{
	"studentMarks.sol": {
		"result": {
			"abi": [
				{
					"inputs": [
						{
							"internalType": "string",
							"name": "a",
							"type": "string"
						},
						{
							"internalType": "uint256",
							"name": "b",
							"type": "uint256"
						},
						{
							"internalType": "uint256",
							"name": "c",
							"type": "uint256"
						},
						{
							"internalType": "uint256",
							"name": "d",
							"type": "uint256"
						}
					],
					"name": "addUser",
					"outputs": [],
					"stateMutability": "nonpayable",
					"type": "function"
				}
			],
			"devdoc": {
				"kind": "dev",
				"methods": {},
				"version": 1
			},
			"evm": {
				"assembly": "    /* \"studentMarks.sol\":73:308  contract result{\r... */\n  mstore(0x40, 0x80)\n  callvalue\n  dup1\n  iszero\n  tag_1\n  jumpi\n  0x00\n  dup1\n  revert\ntag_1:\n  pop\n  dataSize(sub_0)\n  dup1\n  dataOffset(sub_0)\n  0x00\n  codecopy\n  0x00\n  return\nstop\n\nsub_0: assembly {\n        /* \"studentMarks.sol\":73:308  contract result{\r... */\n      mstore(0x40, 0x80)\n      callvalue\n      dup1\n      iszero\n      tag_1\n      jumpi\n      0x00\n      dup1\n      revert\n    tag_1:\n      pop\n      jumpi(tag_2, lt(calldatasize, 0x04))\n      shr(0xe0, calldataload(0x00))\n      dup1\n      0x76b3d161\n      eq\n      tag_3\n      jumpi\n    tag_2:\n      0x00\n      dup1\n      revert\n        /* \"studentMarks.sol\":176:305  function addUser(string memory a, uint b, uint c, uint d )public{\r... */\n    tag_3:\n      tag_4\n      0x04\n      dup1\n      calldatasize\n      sub\n      dup2\n      add\n      swap1\n      tag_5\n      swap2\n      swap1\n      tag_6\n      jump\t// in\n    tag_5:\n      tag_7\n      jump\t// in\n    tag_4:\n      stop\n    tag_7:\n        /* \"studentMarks.sol\":256:257  a */\n      dup4\n        /* \"studentMarks.sol\":251:255  name */\n      0x00\n        /* \"studentMarks.sol\":251:257  name=a */\n      swap1\n      dup1\n      mload\n      swap1\n      0x20\n      add\n      swap1\n      tag_9\n      swap3\n      swap2\n      swap1\n      tag_10\n      jump\t// in\n    tag_9:\n      pop\n        /* \"studentMarks.sol\":271:272  b */\n      dup3\n        /* \"studentMarks.sol\":268:270  m1 */\n      0x01\n        /* \"studentMarks.sol\":268:272  m1=b */\n      dup2\n      swap1\n      sstore\n      pop\n        /* \"studentMarks.sol\":286:287  c */\n      dup2\n        /* \"studentMarks.sol\":283:285  m2 */\n      0x02\n        /* \"studentMarks.sol\":283:287  m2=c */\n      dup2\n      swap1\n      sstore\n      pop\n        /* \"studentMarks.sol\":176:305  function addUser(string memory a, uint b, uint c, uint d )public{\r... */\n      pop\n      pop\n      pop\n      pop\n      jump\t// out\n    tag_10:\n      dup3\n      dup1\n      sload\n      tag_11\n      swap1\n      tag_12\n      jump\t// in\n    tag_11:\n      swap1\n      0x00\n      mstore\n      keccak256(0x00, 0x20)\n      swap1\n      0x1f\n      add\n      0x20\n      swap1\n      div\n      dup2\n      add\n      swap3\n      dup3\n      tag_14\n      jumpi\n      0x00\n      dup6\n      sstore\n      jump(tag_13)\n    tag_14:\n      dup3\n      0x1f\n      lt\n      tag_15\n      jumpi\n      dup1\n      mload\n      not(0xff)\n      and\n      dup4\n      dup1\n      add\n      or\n      dup6\n      sstore\n      jump(tag_13)\n    tag_15:\n      dup3\n      dup1\n      add\n      0x01\n      add\n      dup6\n      sstore\n      dup3\n      iszero\n      tag_13\n      jumpi\n      swap2\n      dup3\n      add\n    tag_16:\n      dup3\n      dup2\n      gt\n      iszero\n      tag_17\n      jumpi\n      dup3\n      mload\n      dup3\n      sstore\n      swap2\n      0x20\n      add\n      swap2\n      swap1\n      0x01\n      add\n      swap1\n      jump(tag_16)\n    tag_17:\n    tag_13:\n      pop\n      swap1\n      pop\n      tag_18\n      swap2\n      swap1\n      tag_19\n      jump\t// in\n    tag_18:\n      pop\n      swap1\n      jump\t// out\n    tag_19:\n    tag_20:\n      dup1\n      dup3\n      gt\n      iszero\n      tag_21\n      jumpi\n      0x00\n      dup2\n      0x00\n      swap1\n      sstore\n      pop\n      0x01\n      add\n      jump(tag_20)\n    tag_21:\n      pop\n      swap1\n      jump\t// out\n        /* \"#utility.yul\":7:419   */\n    tag_23:\n        /* \"#utility.yul\":85:90   */\n      0x00\n        /* \"#utility.yul\":110:176   */\n      tag_25\n        /* \"#utility.yul\":126:175   */\n      tag_26\n        /* \"#utility.yul\":168:174   */\n      dup5\n        /* \"#utility.yul\":126:175   */\n      tag_27\n      jump\t// in\n    tag_26:\n        /* \"#utility.yul\":110:176   */\n      tag_28\n      jump\t// in\n    tag_25:\n        /* \"#utility.yul\":101:176   */\n      swap1\n      pop\n        /* \"#utility.yul\":199:205   */\n      dup3\n        /* \"#utility.yul\":192:197   */\n      dup2\n        /* \"#utility.yul\":185:206   */\n      mstore\n        /* \"#utility.yul\":237:241   */\n      0x20\n        /* \"#utility.yul\":230:235   */\n      dup2\n        /* \"#utility.yul\":226:242   */\n      add\n        /* \"#utility.yul\":275:278   */\n      dup5\n        /* \"#utility.yul\":266:272   */\n      dup5\n        /* \"#utility.yul\":261:264   */\n      dup5\n        /* \"#utility.yul\":257:273   */\n      add\n        /* \"#utility.yul\":254:279   */\n      gt\n        /* \"#utility.yul\":251:363   */\n      iszero\n      tag_29\n      jumpi\n        /* \"#utility.yul\":282:361   */\n      tag_30\n      tag_31\n      jump\t// in\n    tag_30:\n        /* \"#utility.yul\":251:363   */\n    tag_29:\n        /* \"#utility.yul\":372:413   */\n      tag_32\n        /* \"#utility.yul\":406:412   */\n      dup5\n        /* \"#utility.yul\":401:404   */\n      dup3\n        /* \"#utility.yul\":396:399   */\n      dup6\n        /* \"#utility.yul\":372:413   */\n      tag_33\n      jump\t// in\n    tag_32:\n        /* \"#utility.yul\":91:419   */\n      pop\n        /* \"#utility.yul\":7:419   */\n      swap4\n      swap3\n      pop\n      pop\n      pop\n      jump\t// out\n        /* \"#utility.yul\":439:779   */\n    tag_34:\n        /* \"#utility.yul\":495:500   */\n      0x00\n        /* \"#utility.yul\":544:547   */\n      dup3\n        /* \"#utility.yul\":537:541   */\n      0x1f\n        /* \"#utility.yul\":529:535   */\n      dup4\n        /* \"#utility.yul\":525:542   */\n      add\n        /* \"#utility.yul\":521:548   */\n      slt\n        /* \"#utility.yul\":511:633   */\n      tag_36\n      jumpi\n        /* \"#utility.yul\":552:631   */\n      tag_37\n      tag_38\n      jump\t// in\n    tag_37:\n        /* \"#utility.yul\":511:633   */\n    tag_36:\n        /* \"#utility.yul\":669:675   */\n      dup2\n        /* \"#utility.yul\":656:676   */\n      calldataload\n        /* \"#utility.yul\":694:773   */\n      tag_39\n        /* \"#utility.yul\":769:772   */\n      dup5\n        /* \"#utility.yul\":761:767   */\n      dup3\n        /* \"#utility.yul\":754:758   */\n      0x20\n        /* \"#utility.yul\":746:752   */\n      dup7\n        /* \"#utility.yul\":742:759   */\n      add\n        /* \"#utility.yul\":694:773   */\n      tag_23\n      jump\t// in\n    tag_39:\n        /* \"#utility.yul\":685:773   */\n      swap2\n      pop\n        /* \"#utility.yul\":501:779   */\n      pop\n        /* \"#utility.yul\":439:779   */\n      swap3\n      swap2\n      pop\n      pop\n      jump\t// out\n        /* \"#utility.yul\":785:924   */\n    tag_40:\n        /* \"#utility.yul\":831:836   */\n      0x00\n        /* \"#utility.yul\":869:875   */\n      dup2\n        /* \"#utility.yul\":856:876   */\n      calldataload\n        /* \"#utility.yul\":847:876   */\n      swap1\n      pop\n        /* \"#utility.yul\":885:918   */\n      tag_42\n        /* \"#utility.yul\":912:917   */\n      dup2\n        /* \"#utility.yul\":885:918   */\n      tag_43\n      jump\t// in\n    tag_42:\n        /* \"#utility.yul\":785:924   */\n      swap3\n      swap2\n      pop\n      pop\n      jump\t// out\n        /* \"#utility.yul\":930:1875   */\n    tag_6:\n        /* \"#utility.yul\":1026:1032   */\n      0x00\n        /* \"#utility.yul\":1034:1040   */\n      dup1\n        /* \"#utility.yul\":1042:1048   */\n      0x00\n        /* \"#utility.yul\":1050:1056   */\n      dup1\n        /* \"#utility.yul\":1099:1102   */\n      0x80\n        /* \"#utility.yul\":1087:1096   */\n      dup6\n        /* \"#utility.yul\":1078:1085   */\n      dup8\n        /* \"#utility.yul\":1074:1097   */\n      sub\n        /* \"#utility.yul\":1070:1103   */\n      slt\n        /* \"#utility.yul\":1067:1187   */\n      iszero\n      tag_45\n      jumpi\n        /* \"#utility.yul\":1106:1185   */\n      tag_46\n      tag_47\n      jump\t// in\n    tag_46:\n        /* \"#utility.yul\":1067:1187   */\n    tag_45:\n        /* \"#utility.yul\":1254:1255   */\n      0x00\n        /* \"#utility.yul\":1243:1252   */\n      dup6\n        /* \"#utility.yul\":1239:1256   */\n      add\n        /* \"#utility.yul\":1226:1257   */\n      calldataload\n        /* \"#utility.yul\":1284:1302   */\n      0xffffffffffffffff\n        /* \"#utility.yul\":1276:1282   */\n      dup2\n        /* \"#utility.yul\":1273:1303   */\n      gt\n        /* \"#utility.yul\":1270:1387   */\n      iszero\n      tag_48\n      jumpi\n        /* \"#utility.yul\":1306:1385   */\n      tag_49\n      tag_50\n      jump\t// in\n    tag_49:\n        /* \"#utility.yul\":1270:1387   */\n    tag_48:\n        /* \"#utility.yul\":1411:1474   */\n      tag_51\n        /* \"#utility.yul\":1466:1473   */\n      dup8\n        /* \"#utility.yul\":1457:1463   */\n      dup3\n        /* \"#utility.yul\":1446:1455   */\n      dup9\n        /* \"#utility.yul\":1442:1464   */\n      add\n        /* \"#utility.yul\":1411:1474   */\n      tag_34\n      jump\t// in\n    tag_51:\n        /* \"#utility.yul\":1401:1474   */\n      swap5\n      pop\n        /* \"#utility.yul\":1197:1484   */\n      pop\n        /* \"#utility.yul\":1523:1525   */\n      0x20\n        /* \"#utility.yul\":1549:1602   */\n      tag_52\n        /* \"#utility.yul\":1594:1601   */\n      dup8\n        /* \"#utility.yul\":1585:1591   */\n      dup3\n        /* \"#utility.yul\":1574:1583   */\n      dup9\n        /* \"#utility.yul\":1570:1592   */\n      add\n        /* \"#utility.yul\":1549:1602   */\n      tag_40\n      jump\t// in\n    tag_52:\n        /* \"#utility.yul\":1539:1602   */\n      swap4\n      pop\n        /* \"#utility.yul\":1494:1612   */\n      pop\n        /* \"#utility.yul\":1651:1653   */\n      0x40\n        /* \"#utility.yul\":1677:1730   */\n      tag_53\n        /* \"#utility.yul\":1722:1729   */\n      dup8\n        /* \"#utility.yul\":1713:1719   */\n      dup3\n        /* \"#utility.yul\":1702:1711   */\n      dup9\n        /* \"#utility.yul\":1698:1720   */\n      add\n        /* \"#utility.yul\":1677:1730   */\n      tag_40\n      jump\t// in\n    tag_53:\n        /* \"#utility.yul\":1667:1730   */\n      swap3\n      pop\n        /* \"#utility.yul\":1622:1740   */\n      pop\n        /* \"#utility.yul\":1779:1781   */\n      0x60\n        /* \"#utility.yul\":1805:1858   */\n      tag_54\n        /* \"#utility.yul\":1850:1857   */\n      dup8\n        /* \"#utility.yul\":1841:1847   */\n      dup3\n        /* \"#utility.yul\":1830:1839   */\n      dup9\n        /* \"#utility.yul\":1826:1848   */\n      add\n        /* \"#utility.yul\":1805:1858   */\n      tag_40\n      jump\t// in\n    tag_54:\n        /* \"#utility.yul\":1795:1858   */\n      swap2\n      pop\n        /* \"#utility.yul\":1750:1868   */\n      pop\n        /* \"#utility.yul\":930:1875   */\n      swap3\n      swap6\n      swap2\n      swap5\n      pop\n      swap3\n      pop\n      jump\t// out\n        /* \"#utility.yul\":1881:2010   */\n    tag_28:\n        /* \"#utility.yul\":1915:1921   */\n      0x00\n        /* \"#utility.yul\":1942:1962   */\n      tag_56\n      tag_57\n      jump\t// in\n    tag_56:\n        /* \"#utility.yul\":1932:1962   */\n      swap1\n      pop\n        /* \"#utility.yul\":1971:2004   */\n      tag_58\n        /* \"#utility.yul\":1999:2003   */\n      dup3\n        /* \"#utility.yul\":1991:1997   */\n      dup3\n        /* \"#utility.yul\":1971:2004   */\n      tag_59\n      jump\t// in\n    tag_58:\n        /* \"#utility.yul\":1881:2010   */\n      swap2\n      swap1\n      pop\n      jump\t// out\n        /* \"#utility.yul\":2016:2091   */\n    tag_57:\n        /* \"#utility.yul\":2049:2055   */\n      0x00\n        /* \"#utility.yul\":2082:2084   */\n      0x40\n        /* \"#utility.yul\":2076:2085   */\n      mload\n        /* \"#utility.yul\":2066:2085   */\n      swap1\n      pop\n        /* \"#utility.yul\":2016:2091   */\n      swap1\n      jump\t// out\n        /* \"#utility.yul\":2097:2405   */\n    tag_27:\n        /* \"#utility.yul\":2159:2163   */\n      0x00\n        /* \"#utility.yul\":2249:2267   */\n      0xffffffffffffffff\n        /* \"#utility.yul\":2241:2247   */\n      dup3\n        /* \"#utility.yul\":2238:2268   */\n      gt\n        /* \"#utility.yul\":2235:2291   */\n      iszero\n      tag_62\n      jumpi\n        /* \"#utility.yul\":2271:2289   */\n      tag_63\n      tag_64\n      jump\t// in\n    tag_63:\n        /* \"#utility.yul\":2235:2291   */\n    tag_62:\n        /* \"#utility.yul\":2309:2338   */\n      tag_65\n        /* \"#utility.yul\":2331:2337   */\n      dup3\n        /* \"#utility.yul\":2309:2338   */\n      tag_66\n      jump\t// in\n    tag_65:\n        /* \"#utility.yul\":2301:2338   */\n      swap1\n      pop\n        /* \"#utility.yul\":2393:2397   */\n      0x20\n        /* \"#utility.yul\":2387:2391   */\n      dup2\n        /* \"#utility.yul\":2383:2398   */\n      add\n        /* \"#utility.yul\":2375:2398   */\n      swap1\n      pop\n        /* \"#utility.yul\":2097:2405   */\n      swap2\n      swap1\n      pop\n      jump\t// out\n        /* \"#utility.yul\":2411:2488   */\n    tag_67:\n        /* \"#utility.yul\":2448:2455   */\n      0x00\n        /* \"#utility.yul\":2477:2482   */\n      dup2\n        /* \"#utility.yul\":2466:2482   */\n      swap1\n      pop\n        /* \"#utility.yul\":2411:2488   */\n      swap2\n      swap1\n      pop\n      jump\t// out\n        /* \"#utility.yul\":2494:2648   */\n    tag_33:\n        /* \"#utility.yul\":2578:2584   */\n      dup3\n        /* \"#utility.yul\":2573:2576   */\n      dup2\n        /* \"#utility.yul\":2568:2571   */\n      dup4\n        /* \"#utility.yul\":2555:2585   */\n      calldatacopy\n        /* \"#utility.yul\":2640:2641   */\n      0x00\n        /* \"#utility.yul\":2631:2637   */\n      dup4\n        /* \"#utility.yul\":2626:2629   */\n      dup4\n        /* \"#utility.yul\":2622:2638   */\n      add\n        /* \"#utility.yul\":2615:2642   */\n      mstore\n        /* \"#utility.yul\":2494:2648   */\n      pop\n      pop\n      pop\n      jump\t// out\n        /* \"#utility.yul\":2654:2974   */\n    tag_12:\n        /* \"#utility.yul\":2698:2704   */\n      0x00\n        /* \"#utility.yul\":2735:2736   */\n      0x02\n        /* \"#utility.yul\":2729:2733   */\n      dup3\n        /* \"#utility.yul\":2725:2737   */\n      div\n        /* \"#utility.yul\":2715:2737   */\n      swap1\n      pop\n        /* \"#utility.yul\":2782:2783   */\n      0x01\n        /* \"#utility.yul\":2776:2780   */\n      dup3\n        /* \"#utility.yul\":2772:2784   */\n      and\n        /* \"#utility.yul\":2803:2821   */\n      dup1\n        /* \"#utility.yul\":2793:2874   */\n      tag_71\n      jumpi\n        /* \"#utility.yul\":2859:2863   */\n      0x7f\n        /* \"#utility.yul\":2851:2857   */\n      dup3\n        /* \"#utility.yul\":2847:2864   */\n      and\n        /* \"#utility.yul\":2837:2864   */\n      swap2\n      pop\n        /* \"#utility.yul\":2793:2874   */\n    tag_71:\n        /* \"#utility.yul\":2921:2923   */\n      0x20\n        /* \"#utility.yul\":2913:2919   */\n      dup3\n        /* \"#utility.yul\":2910:2924   */\n      lt\n        /* \"#utility.yul\":2890:2908   */\n      dup2\n        /* \"#utility.yul\":2887:2925   */\n      eq\n        /* \"#utility.yul\":2884:2968   */\n      iszero\n      tag_72\n      jumpi\n        /* \"#utility.yul\":2940:2958   */\n      tag_73\n      tag_74\n      jump\t// in\n    tag_73:\n        /* \"#utility.yul\":2884:2968   */\n    tag_72:\n        /* \"#utility.yul\":2705:2974   */\n      pop\n        /* \"#utility.yul\":2654:2974   */\n      swap2\n      swap1\n      pop\n      jump\t// out\n        /* \"#utility.yul\":2980:3261   */\n    tag_59:\n        /* \"#utility.yul\":3063:3090   */\n      tag_76\n        /* \"#utility.yul\":3085:3089   */\n      dup3\n        /* \"#utility.yul\":3063:3090   */\n      tag_66\n      jump\t// in\n    tag_76:\n        /* \"#utility.yul\":3055:3061   */\n      dup2\n        /* \"#utility.yul\":3051:3091   */\n      add\n        /* \"#utility.yul\":3193:3199   */\n      dup2\n        /* \"#utility.yul\":3181:3191   */\n      dup2\n        /* \"#utility.yul\":3178:3200   */\n      lt\n        /* \"#utility.yul\":3157:3175   */\n      0xffffffffffffffff\n        /* \"#utility.yul\":3145:3155   */\n      dup3\n        /* \"#utility.yul\":3142:3176   */\n      gt\n        /* \"#utility.yul\":3139:3201   */\n      or\n        /* \"#utility.yul\":3136:3224   */\n      iszero\n      tag_77\n      jumpi\n        /* \"#utility.yul\":3204:3222   */\n      tag_78\n      tag_64\n      jump\t// in\n    tag_78:\n        /* \"#utility.yul\":3136:3224   */\n    tag_77:\n        /* \"#utility.yul\":3244:3254   */\n      dup1\n        /* \"#utility.yul\":3240:3242   */\n      0x40\n        /* \"#utility.yul\":3233:3255   */\n      mstore\n        /* \"#utility.yul\":3023:3261   */\n      pop\n        /* \"#utility.yul\":2980:3261   */\n      pop\n      pop\n      jump\t// out\n        /* \"#utility.yul\":3267:3447   */\n    tag_74:\n        /* \"#utility.yul\":3315:3392   */\n      0x4e487b7100000000000000000000000000000000000000000000000000000000\n        /* \"#utility.yul\":3312:3313   */\n      0x00\n        /* \"#utility.yul\":3305:3393   */\n      mstore\n        /* \"#utility.yul\":3412:3416   */\n      0x22\n        /* \"#utility.yul\":3409:3410   */\n      0x04\n        /* \"#utility.yul\":3402:3417   */\n      mstore\n        /* \"#utility.yul\":3436:3440   */\n      0x24\n        /* \"#utility.yul\":3433:3434   */\n      0x00\n        /* \"#utility.yul\":3426:3441   */\n      revert\n        /* \"#utility.yul\":3453:3633   */\n    tag_64:\n        /* \"#utility.yul\":3501:3578   */\n      0x4e487b7100000000000000000000000000000000000000000000000000000000\n        /* \"#utility.yul\":3498:3499   */\n      0x00\n        /* \"#utility.yul\":3491:3579   */\n      mstore\n        /* \"#utility.yul\":3598:3602   */\n      0x41\n        /* \"#utility.yul\":3595:3596   */\n      0x04\n        /* \"#utility.yul\":3588:3603   */\n      mstore\n        /* \"#utility.yul\":3622:3626   */\n      0x24\n        /* \"#utility.yul\":3619:3620   */\n      0x00\n        /* \"#utility.yul\":3612:3627   */\n      revert\n        /* \"#utility.yul\":3639:3756   */\n    tag_38:\n        /* \"#utility.yul\":3748:3749   */\n      0x00\n        /* \"#utility.yul\":3745:3746   */\n      dup1\n        /* \"#utility.yul\":3738:3750   */\n      revert\n        /* \"#utility.yul\":3762:3879   */\n    tag_31:\n        /* \"#utility.yul\":3871:3872   */\n      0x00\n        /* \"#utility.yul\":3868:3869   */\n      dup1\n        /* \"#utility.yul\":3861:3873   */\n      revert\n        /* \"#utility.yul\":3885:4002   */\n    tag_50:\n        /* \"#utility.yul\":3994:3995   */\n      0x00\n        /* \"#utility.yul\":3991:3992   */\n      dup1\n        /* \"#utility.yul\":3984:3996   */\n      revert\n        /* \"#utility.yul\":4008:4125   */\n    tag_47:\n        /* \"#utility.yul\":4117:4118   */\n      0x00\n        /* \"#utility.yul\":4114:4115   */\n      dup1\n        /* \"#utility.yul\":4107:4119   */\n      revert\n        /* \"#utility.yul\":4131:4233   */\n    tag_66:\n        /* \"#utility.yul\":4172:4178   */\n      0x00\n        /* \"#utility.yul\":4223:4225   */\n      0x1f\n        /* \"#utility.yul\":4219:4226   */\n      not\n        /* \"#utility.yul\":4214:4216   */\n      0x1f\n        /* \"#utility.yul\":4207:4212   */\n      dup4\n        /* \"#utility.yul\":4203:4217   */\n      add\n        /* \"#utility.yul\":4199:4227   */\n      and\n        /* \"#utility.yul\":4189:4227   */\n      swap1\n      pop\n        /* \"#utility.yul\":4131:4233   */\n      swap2\n      swap1\n      pop\n      jump\t// out\n        /* \"#utility.yul\":4239:4361   */\n    tag_43:\n        /* \"#utility.yul\":4312:4336   */\n      tag_87\n        /* \"#utility.yul\":4330:4335   */\n      dup2\n        /* \"#utility.yul\":4312:4336   */\n      tag_67\n      jump\t// in\n    tag_87:\n        /* \"#utility.yul\":4305:4310   */\n      dup2\n        /* \"#utility.yul\":4302:4337   */\n      eq\n        /* \"#utility.yul\":4292:4355   */\n      tag_88\n      jumpi\n        /* \"#utility.yul\":4351:4352   */\n      0x00\n        /* \"#utility.yul\":4348:4349   */\n      dup1\n        /* \"#utility.yul\":4341:4353   */\n      revert\n        /* \"#utility.yul\":4292:4355   */\n    tag_88:\n        /* \"#utility.yul\":4239:4361   */\n      pop\n      jump\t// out\n\n    auxdata: 0xa2646970667358221220188a83c93c2bf6e4f4caf2a06776706317f4645e7f4a702fa00aecae94898cc764736f6c63430008070033\n}\n",
				"bytecode": {
					"linkReferences": {},
					"object": "608060405234801561001057600080fd5b506103c4806100206000396000f3fe608060405234801561001057600080fd5b506004361061002b5760003560e01c806376b3d16114610030575b600080fd5b61004a6004803603810190610045919061019f565b61004c565b005b8360009080519060200190610062929190610077565b50826001819055508160028190555050505050565b82805461008390610291565b90600052602060002090601f0160209004810192826100a557600085556100ec565b82601f106100be57805160ff19168380011785556100ec565b828001600101855582156100ec579182015b828111156100eb5782518255916020019190600101906100d0565b5b5090506100f991906100fd565b5090565b5b808211156101165760008160009055506001016100fe565b5090565b600061012d61012884610247565b610222565b90508281526020810184848401111561014957610148610357565b5b610154848285610282565b509392505050565b600082601f83011261017157610170610352565b5b813561018184826020860161011a565b91505092915050565b60008135905061019981610377565b92915050565b600080600080608085870312156101b9576101b8610361565b5b600085013567ffffffffffffffff8111156101d7576101d661035c565b5b6101e38782880161015c565b94505060206101f48782880161018a565b93505060406102058782880161018a565b92505060606102168782880161018a565b91505092959194509250565b600061022c61023d565b905061023882826102c3565b919050565b6000604051905090565b600067ffffffffffffffff82111561026257610261610323565b5b61026b82610366565b9050602081019050919050565b6000819050919050565b82818337600083830152505050565b600060028204905060018216806102a957607f821691505b602082108114156102bd576102bc6102f4565b5b50919050565b6102cc82610366565b810181811067ffffffffffffffff821117156102eb576102ea610323565b5b80604052505050565b7f4e487b7100000000000000000000000000000000000000000000000000000000600052602260045260246000fd5b7f4e487b7100000000000000000000000000000000000000000000000000000000600052604160045260246000fd5b600080fd5b600080fd5b600080fd5b600080fd5b6000601f19601f8301169050919050565b61038081610278565b811461038b57600080fd5b5056fea2646970667358221220188a83c93c2bf6e4f4caf2a06776706317f4645e7f4a702fa00aecae94898cc764736f6c63430008070033",
					"opcodes": "PUSH1 0x80 PUSH1 0x40 MSTORE CALLVALUE DUP1 ISZERO PUSH2 0x10 JUMPI PUSH1 0x0 DUP1 REVERT JUMPDEST POP PUSH2 0x3C4 DUP1 PUSH2 0x20 PUSH1 0x0 CODECOPY PUSH1 0x0 RETURN INVALID PUSH1 0x80 PUSH1 0x40 MSTORE CALLVALUE DUP1 ISZERO PUSH2 0x10 JUMPI PUSH1 0x0 DUP1 REVERT JUMPDEST POP PUSH1 0x4 CALLDATASIZE LT PUSH2 0x2B JUMPI PUSH1 0x0 CALLDATALOAD PUSH1 0xE0 SHR DUP1 PUSH4 0x76B3D161 EQ PUSH2 0x30 JUMPI JUMPDEST PUSH1 0x0 DUP1 REVERT JUMPDEST PUSH2 0x4A PUSH1 0x4 DUP1 CALLDATASIZE SUB DUP2 ADD SWAP1 PUSH2 0x45 SWAP2 SWAP1 PUSH2 0x19F JUMP JUMPDEST PUSH2 0x4C JUMP JUMPDEST STOP JUMPDEST DUP4 PUSH1 0x0 SWAP1 DUP1 MLOAD SWAP1 PUSH1 0x20 ADD SWAP1 PUSH2 0x62 SWAP3 SWAP2 SWAP1 PUSH2 0x77 JUMP JUMPDEST POP DUP3 PUSH1 0x1 DUP2 SWAP1 SSTORE POP DUP2 PUSH1 0x2 DUP2 SWAP1 SSTORE POP POP POP POP POP JUMP JUMPDEST DUP3 DUP1 SLOAD PUSH2 0x83 SWAP1 PUSH2 0x291 JUMP JUMPDEST SWAP1 PUSH1 0x0 MSTORE PUSH1 0x20 PUSH1 0x0 KECCAK256 SWAP1 PUSH1 0x1F ADD PUSH1 0x20 SWAP1 DIV DUP2 ADD SWAP3 DUP3 PUSH2 0xA5 JUMPI PUSH1 0x0 DUP6 SSTORE PUSH2 0xEC JUMP JUMPDEST DUP3 PUSH1 0x1F LT PUSH2 0xBE JUMPI DUP1 MLOAD PUSH1 0xFF NOT AND DUP4 DUP1 ADD OR DUP6 SSTORE PUSH2 0xEC JUMP JUMPDEST DUP3 DUP1 ADD PUSH1 0x1 ADD DUP6 SSTORE DUP3 ISZERO PUSH2 0xEC JUMPI SWAP2 DUP3 ADD JUMPDEST DUP3 DUP2 GT ISZERO PUSH2 0xEB JUMPI DUP3 MLOAD DUP3 SSTORE SWAP2 PUSH1 0x20 ADD SWAP2 SWAP1 PUSH1 0x1 ADD SWAP1 PUSH2 0xD0 JUMP JUMPDEST JUMPDEST POP SWAP1 POP PUSH2 0xF9 SWAP2 SWAP1 PUSH2 0xFD JUMP JUMPDEST POP SWAP1 JUMP JUMPDEST JUMPDEST DUP1 DUP3 GT ISZERO PUSH2 0x116 JUMPI PUSH1 0x0 DUP2 PUSH1 0x0 SWAP1 SSTORE POP PUSH1 0x1 ADD PUSH2 0xFE JUMP JUMPDEST POP SWAP1 JUMP JUMPDEST PUSH1 0x0 PUSH2 0x12D PUSH2 0x128 DUP5 PUSH2 0x247 JUMP JUMPDEST PUSH2 0x222 JUMP JUMPDEST SWAP1 POP DUP3 DUP2 MSTORE PUSH1 0x20 DUP2 ADD DUP5 DUP5 DUP5 ADD GT ISZERO PUSH2 0x149 JUMPI PUSH2 0x148 PUSH2 0x357 JUMP JUMPDEST JUMPDEST PUSH2 0x154 DUP5 DUP3 DUP6 PUSH2 0x282 JUMP JUMPDEST POP SWAP4 SWAP3 POP POP POP JUMP JUMPDEST PUSH1 0x0 DUP3 PUSH1 0x1F DUP4 ADD SLT PUSH2 0x171 JUMPI PUSH2 0x170 PUSH2 0x352 JUMP JUMPDEST JUMPDEST DUP2 CALLDATALOAD PUSH2 0x181 DUP5 DUP3 PUSH1 0x20 DUP7 ADD PUSH2 0x11A JUMP JUMPDEST SWAP2 POP POP SWAP3 SWAP2 POP POP JUMP JUMPDEST PUSH1 0x0 DUP2 CALLDATALOAD SWAP1 POP PUSH2 0x199 DUP2 PUSH2 0x377 JUMP JUMPDEST SWAP3 SWAP2 POP POP JUMP JUMPDEST PUSH1 0x0 DUP1 PUSH1 0x0 DUP1 PUSH1 0x80 DUP6 DUP8 SUB SLT ISZERO PUSH2 0x1B9 JUMPI PUSH2 0x1B8 PUSH2 0x361 JUMP JUMPDEST JUMPDEST PUSH1 0x0 DUP6 ADD CALLDATALOAD PUSH8 0xFFFFFFFFFFFFFFFF DUP2 GT ISZERO PUSH2 0x1D7 JUMPI PUSH2 0x1D6 PUSH2 0x35C JUMP JUMPDEST JUMPDEST PUSH2 0x1E3 DUP8 DUP3 DUP9 ADD PUSH2 0x15C JUMP JUMPDEST SWAP5 POP POP PUSH1 0x20 PUSH2 0x1F4 DUP8 DUP3 DUP9 ADD PUSH2 0x18A JUMP JUMPDEST SWAP4 POP POP PUSH1 0x40 PUSH2 0x205 DUP8 DUP3 DUP9 ADD PUSH2 0x18A JUMP JUMPDEST SWAP3 POP POP PUSH1 0x60 PUSH2 0x216 DUP8 DUP3 DUP9 ADD PUSH2 0x18A JUMP JUMPDEST SWAP2 POP POP SWAP3 SWAP6 SWAP2 SWAP5 POP SWAP3 POP JUMP JUMPDEST PUSH1 0x0 PUSH2 0x22C PUSH2 0x23D JUMP JUMPDEST SWAP1 POP PUSH2 0x238 DUP3 DUP3 PUSH2 0x2C3 JUMP JUMPDEST SWAP2 SWAP1 POP JUMP JUMPDEST PUSH1 0x0 PUSH1 0x40 MLOAD SWAP1 POP SWAP1 JUMP JUMPDEST PUSH1 0x0 PUSH8 0xFFFFFFFFFFFFFFFF DUP3 GT ISZERO PUSH2 0x262 JUMPI PUSH2 0x261 PUSH2 0x323 JUMP JUMPDEST JUMPDEST PUSH2 0x26B DUP3 PUSH2 0x366 JUMP JUMPDEST SWAP1 POP PUSH1 0x20 DUP2 ADD SWAP1 POP SWAP2 SWAP1 POP JUMP JUMPDEST PUSH1 0x0 DUP2 SWAP1 POP SWAP2 SWAP1 POP JUMP JUMPDEST DUP3 DUP2 DUP4 CALLDATACOPY PUSH1 0x0 DUP4 DUP4 ADD MSTORE POP POP POP JUMP JUMPDEST PUSH1 0x0 PUSH1 0x2 DUP3 DIV SWAP1 POP PUSH1 0x1 DUP3 AND DUP1 PUSH2 0x2A9 JUMPI PUSH1 0x7F DUP3 AND SWAP2 POP JUMPDEST PUSH1 0x20 DUP3 LT DUP2 EQ ISZERO PUSH2 0x2BD JUMPI PUSH2 0x2BC PUSH2 0x2F4 JUMP JUMPDEST JUMPDEST POP SWAP2 SWAP1 POP JUMP JUMPDEST PUSH2 0x2CC DUP3 PUSH2 0x366 JUMP JUMPDEST DUP2 ADD DUP2 DUP2 LT PUSH8 0xFFFFFFFFFFFFFFFF DUP3 GT OR ISZERO PUSH2 0x2EB JUMPI PUSH2 0x2EA PUSH2 0x323 JUMP JUMPDEST JUMPDEST DUP1 PUSH1 0x40 MSTORE POP POP POP JUMP JUMPDEST PUSH32 0x4E487B7100000000000000000000000000000000000000000000000000000000 PUSH1 0x0 MSTORE PUSH1 0x22 PUSH1 0x4 MSTORE PUSH1 0x24 PUSH1 0x0 REVERT JUMPDEST PUSH32 0x4E487B7100000000000000000000000000000000000000000000000000000000 PUSH1 0x0 MSTORE PUSH1 0x41 PUSH1 0x4 MSTORE PUSH1 0x24 PUSH1 0x0 REVERT JUMPDEST PUSH1 0x0 DUP1 REVERT JUMPDEST PUSH1 0x0 DUP1 REVERT JUMPDEST PUSH1 0x0 DUP1 REVERT JUMPDEST PUSH1 0x0 DUP1 REVERT JUMPDEST PUSH1 0x0 PUSH1 0x1F NOT PUSH1 0x1F DUP4 ADD AND SWAP1 POP SWAP2 SWAP1 POP JUMP JUMPDEST PUSH2 0x380 DUP2 PUSH2 0x278 JUMP JUMPDEST DUP2 EQ PUSH2 0x38B JUMPI PUSH1 0x0 DUP1 REVERT JUMPDEST POP JUMP INVALID LOG2 PUSH5 0x6970667358 0x22 SLT KECCAK256 XOR DUP11 DUP4 0xC9 EXTCODECOPY 0x2B 0xF6 0xE4 DELEGATECALL 0xCA CALLCODE LOG0 PUSH8 0x76706317F4645E7F 0x4A PUSH17 0x2FA00AECAE94898CC764736F6C63430008 SMOD STOP CALLER "
				},
				"gasEstimates": {
					"creation": {
						"codeDepositCost": "192800",
						"executionCost": "238",
						"totalCost": "193038"
					},
					"external": {
						"addUser(string,uint256,uint256,uint256)": "infinite"
					}
				},
				"methodIdentifiers": {
					"addUser(string,uint256,uint256,uint256)": "76b3d161"
				}
			},
			"storageLayout": {
				"storage": [
					{
						"astId": 3,
						"contract": "studentMarks.sol:result",
						"label": "name",
						"offset": 0,
						"slot": "0",
						"type": "t_string_storage"
					},
					{
						"astId": 5,
						"contract": "studentMarks.sol:result",
						"label": "m1",
						"offset": 0,
						"slot": "1",
						"type": "t_uint256"
					},
					{
						"astId": 7,
						"contract": "studentMarks.sol:result",
						"label": "m2",
						"offset": 0,
						"slot": "2",
						"type": "t_uint256"
					},
					{
						"astId": 9,
						"contract": "studentMarks.sol:result",
						"label": "m3",
						"offset": 0,
						"slot": "3",
						"type": "t_uint256"
					},
					{
						"astId": 11,
						"contract": "studentMarks.sol:result",
						"label": "total",
						"offset": 0,
						"slot": "4",
						"type": "t_uint256"
					}
				],
				"types": {
					"t_string_storage": {
						"encoding": "bytes",
						"label": "string",
						"numberOfBytes": "32"
					},
					"t_uint256": {
						"encoding": "inplace",
						"label": "uint256",
						"numberOfBytes": "32"
					}
				}
			},
			"userdoc": {
				"kind": "user",
				"methods": {},
				"version": 1
			}
		}
	}
}