{
	"bank.sol": {
		"bank": {
			"abi": [
				{
					"inputs": [
						{
							"internalType": "string",
							"name": "a",
							"type": "string"
						},
						{
							"internalType": "uint256",
							"name": "b",
							"type": "uint256"
						},
						{
							"internalType": "uint256",
							"name": "c",
							"type": "uint256"
						}
					],
					"name": "addUser",
					"outputs": [],
					"stateMutability": "nonpayable",
					"type": "function"
				},
				{
					"inputs": [
						{
							"internalType": "uint256",
							"name": "inr",
							"type": "uint256"
						}
					],
					"name": "deposit",
					"outputs": [
						{
							"internalType": "uint256",
							"name": "",
							"type": "uint256"
						}
					],
					"stateMutability": "nonpayable",
					"type": "function"
				},
				{
					"inputs": [],
					"name": "getUser",
					"outputs": [
						{
							"internalType": "string",
							"name": "",
							"type": "string"
						},
						{
							"internalType": "uint256",
							"name": "",
							"type": "uint256"
						},
						{
							"internalType": "uint256",
							"name": "",
							"type": "uint256"
						}
					],
					"stateMutability": "view",
					"type": "function"
				},
				{
					"inputs": [
						{
							"internalType": "uint256",
							"name": "inr",
							"type": "uint256"
						}
					],
					"name": "withdraw",
					"outputs": [
						{
							"internalType": "uint256",
							"name": "",
							"type": "uint256"
						}
					],
					"stateMutability": "nonpayable",
					"type": "function"
				}
			],
			"devdoc": {
				"kind": "dev",
				"methods": {},
				"version": 1
			},
			"evm": {
				"assembly": "    /* \"bank.sol\":73:702  contract bank{\r... */\n  mstore(0x40, 0x80)\n  callvalue\n  dup1\n  iszero\n  tag_1\n  jumpi\n  0x00\n  dup1\n  revert\ntag_1:\n  pop\n  dataSize(sub_0)\n  dup1\n  dataOffset(sub_0)\n  0x00\n  codecopy\n  0x00\n  return\nstop\n\nsub_0: assembly {\n        /* \"bank.sol\":73:702  contract bank{\r... */\n      mstore(0x40, 0x80)\n      callvalue\n      dup1\n      iszero\n      tag_1\n      jumpi\n      0x00\n      dup1\n      revert\n    tag_1:\n      pop\n      jumpi(tag_2, lt(calldatasize, 0x04))\n      shr(0xe0, calldataload(0x00))\n      dup1\n      0x2e1a7d4d\n      eq\n      tag_3\n      jumpi\n      dup1\n      0x832880e7\n      eq\n      tag_4\n      jumpi\n      dup1\n      0xb6b55f25\n      eq\n      tag_5\n      jumpi\n      dup1\n      0xbe607b74\n      eq\n      tag_6\n      jumpi\n    tag_2:\n      0x00\n      dup1\n      revert\n        /* \"bank.sol\":535:695  function withdraw(uint inr)public  returns(uint){\r... */\n    tag_3:\n      tag_7\n      0x04\n      dup1\n      calldatasize\n      sub\n      dup2\n      add\n      swap1\n      tag_8\n      swap2\n      swap1\n      tag_9\n      jump\t// in\n    tag_8:\n      tag_10\n      jump\t// in\n    tag_7:\n      mload(0x40)\n      tag_11\n      swap2\n      swap1\n      tag_12\n      jump\t// in\n    tag_11:\n      mload(0x40)\n      dup1\n      swap2\n      sub\n      swap1\n      return\n        /* \"bank.sol\":278:414  function getUser()public view returns(string memory, uint, uint){\r... */\n    tag_4:\n      tag_13\n      tag_14\n      jump\t// in\n    tag_13:\n      mload(0x40)\n      tag_15\n      swap4\n      swap3\n      swap2\n      swap1\n      tag_16\n      jump\t// in\n    tag_15:\n      mload(0x40)\n      dup1\n      swap2\n      sub\n      swap1\n      return\n        /* \"bank.sol\":426:529  function deposit(uint inr)public returns(uint) {\r... */\n    tag_5:\n      tag_17\n      0x04\n      dup1\n      calldatasize\n      sub\n      dup2\n      add\n      swap1\n      tag_18\n      swap2\n      swap1\n      tag_9\n      jump\t// in\n    tag_18:\n      tag_19\n      jump\t// in\n    tag_17:\n      mload(0x40)\n      tag_20\n      swap2\n      swap1\n      tag_12\n      jump\t// in\n    tag_20:\n      mload(0x40)\n      dup1\n      swap2\n      sub\n      swap1\n      return\n        /* \"bank.sol\":151:270  function addUser( string memory a, uint b, uint c)public{\r... */\n    tag_6:\n      tag_21\n      0x04\n      dup1\n      calldatasize\n      sub\n      dup2\n      add\n      swap1\n      tag_22\n      swap2\n      swap1\n      tag_23\n      jump\t// in\n    tag_22:\n      tag_24\n      jump\t// in\n    tag_21:\n      stop\n        /* \"bank.sol\":535:695  function withdraw(uint inr)public  returns(uint){\r... */\n    tag_10:\n        /* \"bank.sol\":578:582  uint */\n      0x00\n        /* \"bank.sol\":606:609  inr */\n      dup2\n        /* \"bank.sol\":597:604  balance */\n      sload(0x02)\n        /* \"bank.sol\":597:609  balance>=inr */\n      lt\n        /* \"bank.sol\":594:663  if(balance>=inr){\r... */\n      tag_26\n      jumpi\n        /* \"bank.sol\":634:637  inr */\n      dup2\n        /* \"bank.sol\":625:632  balance */\n      0x02\n      0x00\n        /* \"bank.sol\":625:637  balance-=inr */\n      dup3\n      dup3\n      sload\n      tag_27\n      swap2\n      swap1\n      tag_28\n      jump\t// in\n    tag_27:\n      swap3\n      pop\n      pop\n      dup2\n      swap1\n      sstore\n      pop\n        /* \"bank.sol\":594:663  if(balance>=inr){\r... */\n    tag_26:\n        /* \"bank.sol\":680:687  balance */\n      sload(0x02)\n        /* \"bank.sol\":673:687  return balance */\n      swap1\n      pop\n        /* \"bank.sol\":535:695  function withdraw(uint inr)public  returns(uint){\r... */\n      swap2\n      swap1\n      pop\n      jump\t// out\n        /* \"bank.sol\":278:414  function getUser()public view returns(string memory, uint, uint){\r... */\n    tag_14:\n        /* \"bank.sol\":316:329  string memory */\n      0x60\n        /* \"bank.sol\":331:335  uint */\n      0x00\n        /* \"bank.sol\":337:341  uint */\n      dup1\n        /* \"bank.sol\":375:379  name */\n      0x00\n        /* \"bank.sol\":381:386  acnum */\n      sload(0x01)\n        /* \"bank.sol\":388:395  balance */\n      sload(0x02)\n        /* \"bank.sol\":353:406  return (\r... */\n      dup3\n      dup1\n      sload\n      tag_30\n      swap1\n      tag_31\n      jump\t// in\n    tag_30:\n      dup1\n      0x1f\n      add\n      0x20\n      dup1\n      swap2\n      div\n      mul\n      0x20\n      add\n      mload(0x40)\n      swap1\n      dup2\n      add\n      0x40\n      mstore\n      dup1\n      swap3\n      swap2\n      swap1\n      dup2\n      dup2\n      mstore\n      0x20\n      add\n      dup3\n      dup1\n      sload\n      tag_32\n      swap1\n      tag_31\n      jump\t// in\n    tag_32:\n      dup1\n      iszero\n      tag_33\n      jumpi\n      dup1\n      0x1f\n      lt\n      tag_34\n      jumpi\n      0x0100\n      dup1\n      dup4\n      sload\n      div\n      mul\n      dup4\n      mstore\n      swap2\n      0x20\n      add\n      swap2\n      jump(tag_33)\n    tag_34:\n      dup3\n      add\n      swap2\n      swap1\n      0x00\n      mstore\n      keccak256(0x00, 0x20)\n      swap1\n    tag_35:\n      dup2\n      sload\n      dup2\n      mstore\n      swap1\n      0x01\n      add\n      swap1\n      0x20\n      add\n      dup1\n      dup4\n      gt\n      tag_35\n      jumpi\n      dup3\n      swap1\n      sub\n      0x1f\n      and\n      dup3\n      add\n      swap2\n    tag_33:\n      pop\n      pop\n      pop\n      pop\n      pop\n      swap3\n      pop\n      swap3\n      pop\n      swap3\n      pop\n      swap3\n      pop\n        /* \"bank.sol\":278:414  function getUser()public view returns(string memory, uint, uint){\r... */\n      swap1\n      swap2\n      swap3\n      jump\t// out\n        /* \"bank.sol\":426:529  function deposit(uint inr)public returns(uint) {\r... */\n    tag_19:\n        /* \"bank.sol\":467:471  uint */\n      0x00\n        /* \"bank.sol\":493:496  inr */\n      dup2\n        /* \"bank.sol\":484:491  balance */\n      0x02\n      0x00\n        /* \"bank.sol\":484:496  balance+=inr */\n      dup3\n      dup3\n      sload\n      tag_37\n      swap2\n      swap1\n      tag_38\n      jump\t// in\n    tag_37:\n      swap3\n      pop\n      pop\n      dup2\n      swap1\n      sstore\n      pop\n        /* \"bank.sol\":514:521  balance */\n      sload(0x02)\n        /* \"bank.sol\":507:521  return balance */\n      swap1\n      pop\n        /* \"bank.sol\":426:529  function deposit(uint inr)public returns(uint) {\r... */\n      swap2\n      swap1\n      pop\n      jump\t// out\n        /* \"bank.sol\":151:270  function addUser( string memory a, uint b, uint c)public{\r... */\n    tag_24:\n        /* \"bank.sol\":223:224  a */\n      dup3\n        /* \"bank.sol\":218:222  name */\n      0x00\n        /* \"bank.sol\":218:224  name=a */\n      swap1\n      dup1\n      mload\n      swap1\n      0x20\n      add\n      swap1\n      tag_40\n      swap3\n      swap2\n      swap1\n      tag_41\n      jump\t// in\n    tag_40:\n      pop\n        /* \"bank.sol\":241:242  b */\n      dup2\n        /* \"bank.sol\":235:240  acnum */\n      0x01\n        /* \"bank.sol\":235:242  acnum=b */\n      dup2\n      swap1\n      sstore\n      pop\n        /* \"bank.sol\":261:262  c */\n      dup1\n        /* \"bank.sol\":253:260  balance */\n      0x02\n        /* \"bank.sol\":253:262  balance=c */\n      dup2\n      swap1\n      sstore\n      pop\n        /* \"bank.sol\":151:270  function addUser( string memory a, uint b, uint c)public{\r... */\n      pop\n      pop\n      pop\n      jump\t// out\n    tag_41:\n      dup3\n      dup1\n      sload\n      tag_42\n      swap1\n      tag_31\n      jump\t// in\n    tag_42:\n      swap1\n      0x00\n      mstore\n      keccak256(0x00, 0x20)\n      swap1\n      0x1f\n      add\n      0x20\n      swap1\n      div\n      dup2\n      add\n      swap3\n      dup3\n      tag_44\n      jumpi\n      0x00\n      dup6\n      sstore\n      jump(tag_43)\n    tag_44:\n      dup3\n      0x1f\n      lt\n      tag_45\n      jumpi\n      dup1\n      mload\n      not(0xff)\n      and\n      dup4\n      dup1\n      add\n      or\n      dup6\n      sstore\n      jump(tag_43)\n    tag_45:\n      dup3\n      dup1\n      add\n      0x01\n      add\n      dup6\n      sstore\n      dup3\n      iszero\n      tag_43\n      jumpi\n      swap2\n      dup3\n      add\n    tag_46:\n      dup3\n      dup2\n      gt\n      iszero\n      tag_47\n      jumpi\n      dup3\n      mload\n      dup3\n      sstore\n      swap2\n      0x20\n      add\n      swap2\n      swap1\n      0x01\n      add\n      swap1\n      jump(tag_46)\n    tag_47:\n    tag_43:\n      pop\n      swap1\n      pop\n      tag_48\n      swap2\n      swap1\n      tag_49\n      jump\t// in\n    tag_48:\n      pop\n      swap1\n      jump\t// out\n    tag_49:\n    tag_50:\n      dup1\n      dup3\n      gt\n      iszero\n      tag_51\n      jumpi\n      0x00\n      dup2\n      0x00\n      swap1\n      sstore\n      pop\n      0x01\n      add\n      jump(tag_50)\n    tag_51:\n      pop\n      swap1\n      jump\t// out\n        /* \"#utility.yul\":7:419   */\n    tag_53:\n        /* \"#utility.yul\":85:90   */\n      0x00\n        /* \"#utility.yul\":110:176   */\n      tag_55\n        /* \"#utility.yul\":126:175   */\n      tag_56\n        /* \"#utility.yul\":168:174   */\n      dup5\n        /* \"#utility.yul\":126:175   */\n      tag_57\n      jump\t// in\n    tag_56:\n        /* \"#utility.yul\":110:176   */\n      tag_58\n      jump\t// in\n    tag_55:\n        /* \"#utility.yul\":101:176   */\n      swap1\n      pop\n        /* \"#utility.yul\":199:205   */\n      dup3\n        /* \"#utility.yul\":192:197   */\n      dup2\n        /* \"#utility.yul\":185:206   */\n      mstore\n        /* \"#utility.yul\":237:241   */\n      0x20\n        /* \"#utility.yul\":230:235   */\n      dup2\n        /* \"#utility.yul\":226:242   */\n      add\n        /* \"#utility.yul\":275:278   */\n      dup5\n        /* \"#utility.yul\":266:272   */\n      dup5\n        /* \"#utility.yul\":261:264   */\n      dup5\n        /* \"#utility.yul\":257:273   */\n      add\n        /* \"#utility.yul\":254:279   */\n      gt\n        /* \"#utility.yul\":251:363   */\n      iszero\n      tag_59\n      jumpi\n        /* \"#utility.yul\":282:361   */\n      tag_60\n      tag_61\n      jump\t// in\n    tag_60:\n        /* \"#utility.yul\":251:363   */\n    tag_59:\n        /* \"#utility.yul\":372:413   */\n      tag_62\n        /* \"#utility.yul\":406:412   */\n      dup5\n        /* \"#utility.yul\":401:404   */\n      dup3\n        /* \"#utility.yul\":396:399   */\n      dup6\n        /* \"#utility.yul\":372:413   */\n      tag_63\n      jump\t// in\n    tag_62:\n        /* \"#utility.yul\":91:419   */\n      pop\n        /* \"#utility.yul\":7:419   */\n      swap4\n      swap3\n      pop\n      pop\n      pop\n      jump\t// out\n        /* \"#utility.yul\":439:779   */\n    tag_64:\n        /* \"#utility.yul\":495:500   */\n      0x00\n        /* \"#utility.yul\":544:547   */\n      dup3\n        /* \"#utility.yul\":537:541   */\n      0x1f\n        /* \"#utility.yul\":529:535   */\n      dup4\n        /* \"#utility.yul\":525:542   */\n      add\n        /* \"#utility.yul\":521:548   */\n      slt\n        /* \"#utility.yul\":511:633   */\n      tag_66\n      jumpi\n        /* \"#utility.yul\":552:631   */\n      tag_67\n      tag_68\n      jump\t// in\n    tag_67:\n        /* \"#utility.yul\":511:633   */\n    tag_66:\n        /* \"#utility.yul\":669:675   */\n      dup2\n        /* \"#utility.yul\":656:676   */\n      calldataload\n        /* \"#utility.yul\":694:773   */\n      tag_69\n        /* \"#utility.yul\":769:772   */\n      dup5\n        /* \"#utility.yul\":761:767   */\n      dup3\n        /* \"#utility.yul\":754:758   */\n      0x20\n        /* \"#utility.yul\":746:752   */\n      dup7\n        /* \"#utility.yul\":742:759   */\n      add\n        /* \"#utility.yul\":694:773   */\n      tag_53\n      jump\t// in\n    tag_69:\n        /* \"#utility.yul\":685:773   */\n      swap2\n      pop\n        /* \"#utility.yul\":501:779   */\n      pop\n        /* \"#utility.yul\":439:779   */\n      swap3\n      swap2\n      pop\n      pop\n      jump\t// out\n        /* \"#utility.yul\":785:924   */\n    tag_70:\n        /* \"#utility.yul\":831:836   */\n      0x00\n        /* \"#utility.yul\":869:875   */\n      dup2\n        /* \"#utility.yul\":856:876   */\n      calldataload\n        /* \"#utility.yul\":847:876   */\n      swap1\n      pop\n        /* \"#utility.yul\":885:918   */\n      tag_72\n        /* \"#utility.yul\":912:917   */\n      dup2\n        /* \"#utility.yul\":885:918   */\n      tag_73\n      jump\t// in\n    tag_72:\n        /* \"#utility.yul\":785:924   */\n      swap3\n      swap2\n      pop\n      pop\n      jump\t// out\n        /* \"#utility.yul\":930:1729   */\n    tag_23:\n        /* \"#utility.yul\":1017:1023   */\n      0x00\n        /* \"#utility.yul\":1025:1031   */\n      dup1\n        /* \"#utility.yul\":1033:1039   */\n      0x00\n        /* \"#utility.yul\":1082:1084   */\n      0x60\n        /* \"#utility.yul\":1070:1079   */\n      dup5\n        /* \"#utility.yul\":1061:1068   */\n      dup7\n        /* \"#utility.yul\":1057:1080   */\n      sub\n        /* \"#utility.yul\":1053:1085   */\n      slt\n        /* \"#utility.yul\":1050:1169   */\n      iszero\n      tag_75\n      jumpi\n        /* \"#utility.yul\":1088:1167   */\n      tag_76\n      tag_77\n      jump\t// in\n    tag_76:\n        /* \"#utility.yul\":1050:1169   */\n    tag_75:\n        /* \"#utility.yul\":1236:1237   */\n      0x00\n        /* \"#utility.yul\":1225:1234   */\n      dup5\n        /* \"#utility.yul\":1221:1238   */\n      add\n        /* \"#utility.yul\":1208:1239   */\n      calldataload\n        /* \"#utility.yul\":1266:1284   */\n      0xffffffffffffffff\n        /* \"#utility.yul\":1258:1264   */\n      dup2\n        /* \"#utility.yul\":1255:1285   */\n      gt\n        /* \"#utility.yul\":1252:1369   */\n      iszero\n      tag_78\n      jumpi\n        /* \"#utility.yul\":1288:1367   */\n      tag_79\n      tag_80\n      jump\t// in\n    tag_79:\n        /* \"#utility.yul\":1252:1369   */\n    tag_78:\n        /* \"#utility.yul\":1393:1456   */\n      tag_81\n        /* \"#utility.yul\":1448:1455   */\n      dup7\n        /* \"#utility.yul\":1439:1445   */\n      dup3\n        /* \"#utility.yul\":1428:1437   */\n      dup8\n        /* \"#utility.yul\":1424:1446   */\n      add\n        /* \"#utility.yul\":1393:1456   */\n      tag_64\n      jump\t// in\n    tag_81:\n        /* \"#utility.yul\":1383:1456   */\n      swap4\n      pop\n        /* \"#utility.yul\":1179:1466   */\n      pop\n        /* \"#utility.yul\":1505:1507   */\n      0x20\n        /* \"#utility.yul\":1531:1584   */\n      tag_82\n        /* \"#utility.yul\":1576:1583   */\n      dup7\n        /* \"#utility.yul\":1567:1573   */\n      dup3\n        /* \"#utility.yul\":1556:1565   */\n      dup8\n        /* \"#utility.yul\":1552:1574   */\n      add\n        /* \"#utility.yul\":1531:1584   */\n      tag_70\n      jump\t// in\n    tag_82:\n        /* \"#utility.yul\":1521:1584   */\n      swap3\n      pop\n        /* \"#utility.yul\":1476:1594   */\n      pop\n        /* \"#utility.yul\":1633:1635   */\n      0x40\n        /* \"#utility.yul\":1659:1712   */\n      tag_83\n        /* \"#utility.yul\":1704:1711   */\n      dup7\n        /* \"#utility.yul\":1695:1701   */\n      dup3\n        /* \"#utility.yul\":1684:1693   */\n      dup8\n        /* \"#utility.yul\":1680:1702   */\n      add\n        /* \"#utility.yul\":1659:1712   */\n      tag_70\n      jump\t// in\n    tag_83:\n        /* \"#utility.yul\":1649:1712   */\n      swap2\n      pop\n        /* \"#utility.yul\":1604:1722   */\n      pop\n        /* \"#utility.yul\":930:1729   */\n      swap3\n      pop\n      swap3\n      pop\n      swap3\n      jump\t// out\n        /* \"#utility.yul\":1735:2064   */\n    tag_9:\n        /* \"#utility.yul\":1794:1800   */\n      0x00\n        /* \"#utility.yul\":1843:1845   */\n      0x20\n        /* \"#utility.yul\":1831:1840   */\n      dup3\n        /* \"#utility.yul\":1822:1829   */\n      dup5\n        /* \"#utility.yul\":1818:1841   */\n      sub\n        /* \"#utility.yul\":1814:1846   */\n      slt\n        /* \"#utility.yul\":1811:1930   */\n      iszero\n      tag_85\n      jumpi\n        /* \"#utility.yul\":1849:1928   */\n      tag_86\n      tag_77\n      jump\t// in\n    tag_86:\n        /* \"#utility.yul\":1811:1930   */\n    tag_85:\n        /* \"#utility.yul\":1969:1970   */\n      0x00\n        /* \"#utility.yul\":1994:2047   */\n      tag_87\n        /* \"#utility.yul\":2039:2046   */\n      dup5\n        /* \"#utility.yul\":2030:2036   */\n      dup3\n        /* \"#utility.yul\":2019:2028   */\n      dup6\n        /* \"#utility.yul\":2015:2037   */\n      add\n        /* \"#utility.yul\":1994:2047   */\n      tag_70\n      jump\t// in\n    tag_87:\n        /* \"#utility.yul\":1984:2047   */\n      swap2\n      pop\n        /* \"#utility.yul\":1940:2057   */\n      pop\n        /* \"#utility.yul\":1735:2064   */\n      swap3\n      swap2\n      pop\n      pop\n      jump\t// out\n        /* \"#utility.yul\":2070:2434   */\n    tag_88:\n        /* \"#utility.yul\":2158:2161   */\n      0x00\n        /* \"#utility.yul\":2186:2225   */\n      tag_90\n        /* \"#utility.yul\":2219:2224   */\n      dup3\n        /* \"#utility.yul\":2186:2225   */\n      tag_91\n      jump\t// in\n    tag_90:\n        /* \"#utility.yul\":2241:2312   */\n      tag_92\n        /* \"#utility.yul\":2305:2311   */\n      dup2\n        /* \"#utility.yul\":2300:2303   */\n      dup6\n        /* \"#utility.yul\":2241:2312   */\n      tag_93\n      jump\t// in\n    tag_92:\n        /* \"#utility.yul\":2234:2312   */\n      swap4\n      pop\n        /* \"#utility.yul\":2321:2373   */\n      tag_94\n        /* \"#utility.yul\":2366:2372   */\n      dup2\n        /* \"#utility.yul\":2361:2364   */\n      dup6\n        /* \"#utility.yul\":2354:2358   */\n      0x20\n        /* \"#utility.yul\":2347:2352   */\n      dup7\n        /* \"#utility.yul\":2343:2359   */\n      add\n        /* \"#utility.yul\":2321:2373   */\n      tag_95\n      jump\t// in\n    tag_94:\n        /* \"#utility.yul\":2398:2427   */\n      tag_96\n        /* \"#utility.yul\":2420:2426   */\n      dup2\n        /* \"#utility.yul\":2398:2427   */\n      tag_97\n      jump\t// in\n    tag_96:\n        /* \"#utility.yul\":2393:2396   */\n      dup5\n        /* \"#utility.yul\":2389:2428   */\n      add\n        /* \"#utility.yul\":2382:2428   */\n      swap2\n      pop\n        /* \"#utility.yul\":2162:2434   */\n      pop\n        /* \"#utility.yul\":2070:2434   */\n      swap3\n      swap2\n      pop\n      pop\n      jump\t// out\n        /* \"#utility.yul\":2440:2558   */\n    tag_98:\n        /* \"#utility.yul\":2527:2551   */\n      tag_100\n        /* \"#utility.yul\":2545:2550   */\n      dup2\n        /* \"#utility.yul\":2527:2551   */\n      tag_101\n      jump\t// in\n    tag_100:\n        /* \"#utility.yul\":2522:2525   */\n      dup3\n        /* \"#utility.yul\":2515:2552   */\n      mstore\n        /* \"#utility.yul\":2440:2558   */\n      pop\n      pop\n      jump\t// out\n        /* \"#utility.yul\":2564:3097   */\n    tag_16:\n        /* \"#utility.yul\":2733:2737   */\n      0x00\n        /* \"#utility.yul\":2771:2773   */\n      0x60\n        /* \"#utility.yul\":2760:2769   */\n      dup3\n        /* \"#utility.yul\":2756:2774   */\n      add\n        /* \"#utility.yul\":2748:2774   */\n      swap1\n      pop\n        /* \"#utility.yul\":2820:2829   */\n      dup2\n        /* \"#utility.yul\":2814:2818   */\n      dup2\n        /* \"#utility.yul\":2810:2830   */\n      sub\n        /* \"#utility.yul\":2806:2807   */\n      0x00\n        /* \"#utility.yul\":2795:2804   */\n      dup4\n        /* \"#utility.yul\":2791:2808   */\n      add\n        /* \"#utility.yul\":2784:2831   */\n      mstore\n        /* \"#utility.yul\":2848:2926   */\n      tag_103\n        /* \"#utility.yul\":2921:2925   */\n      dup2\n        /* \"#utility.yul\":2912:2918   */\n      dup7\n        /* \"#utility.yul\":2848:2926   */\n      tag_88\n      jump\t// in\n    tag_103:\n        /* \"#utility.yul\":2840:2926   */\n      swap1\n      pop\n        /* \"#utility.yul\":2936:3008   */\n      tag_104\n        /* \"#utility.yul\":3004:3006   */\n      0x20\n        /* \"#utility.yul\":2993:3002   */\n      dup4\n        /* \"#utility.yul\":2989:3007   */\n      add\n        /* \"#utility.yul\":2980:2986   */\n      dup6\n        /* \"#utility.yul\":2936:3008   */\n      tag_98\n      jump\t// in\n    tag_104:\n        /* \"#utility.yul\":3018:3090   */\n      tag_105\n        /* \"#utility.yul\":3086:3088   */\n      0x40\n        /* \"#utility.yul\":3075:3084   */\n      dup4\n        /* \"#utility.yul\":3071:3089   */\n      add\n        /* \"#utility.yul\":3062:3068   */\n      dup5\n        /* \"#utility.yul\":3018:3090   */\n      tag_98\n      jump\t// in\n    tag_105:\n        /* \"#utility.yul\":2564:3097   */\n      swap5\n      swap4\n      pop\n      pop\n      pop\n      pop\n      jump\t// out\n        /* \"#utility.yul\":3103:3325   */\n    tag_12:\n        /* \"#utility.yul\":3196:3200   */\n      0x00\n        /* \"#utility.yul\":3234:3236   */\n      0x20\n        /* \"#utility.yul\":3223:3232   */\n      dup3\n        /* \"#utility.yul\":3219:3237   */\n      add\n        /* \"#utility.yul\":3211:3237   */\n      swap1\n      pop\n        /* \"#utility.yul\":3247:3318   */\n      tag_107\n        /* \"#utility.yul\":3315:3316   */\n      0x00\n        /* \"#utility.yul\":3304:3313   */\n      dup4\n        /* \"#utility.yul\":3300:3317   */\n      add\n        /* \"#utility.yul\":3291:3297   */\n      dup5\n        /* \"#utility.yul\":3247:3318   */\n      tag_98\n      jump\t// in\n    tag_107:\n        /* \"#utility.yul\":3103:3325   */\n      swap3\n      swap2\n      pop\n      pop\n      jump\t// out\n        /* \"#utility.yul\":3331:3460   */\n    tag_58:\n        /* \"#utility.yul\":3365:3371   */\n      0x00\n        /* \"#utility.yul\":3392:3412   */\n      tag_109\n      tag_110\n      jump\t// in\n    tag_109:\n        /* \"#utility.yul\":3382:3412   */\n      swap1\n      pop\n        /* \"#utility.yul\":3421:3454   */\n      tag_111\n        /* \"#utility.yul\":3449:3453   */\n      dup3\n        /* \"#utility.yul\":3441:3447   */\n      dup3\n        /* \"#utility.yul\":3421:3454   */\n      tag_112\n      jump\t// in\n    tag_111:\n        /* \"#utility.yul\":3331:3460   */\n      swap2\n      swap1\n      pop\n      jump\t// out\n        /* \"#utility.yul\":3466:3541   */\n    tag_110:\n        /* \"#utility.yul\":3499:3505   */\n      0x00\n        /* \"#utility.yul\":3532:3534   */\n      0x40\n        /* \"#utility.yul\":3526:3535   */\n      mload\n        /* \"#utility.yul\":3516:3535   */\n      swap1\n      pop\n        /* \"#utility.yul\":3466:3541   */\n      swap1\n      jump\t// out\n        /* \"#utility.yul\":3547:3855   */\n    tag_57:\n        /* \"#utility.yul\":3609:3613   */\n      0x00\n        /* \"#utility.yul\":3699:3717   */\n      0xffffffffffffffff\n        /* \"#utility.yul\":3691:3697   */\n      dup3\n        /* \"#utility.yul\":3688:3718   */\n      gt\n        /* \"#utility.yul\":3685:3741   */\n      iszero\n      tag_115\n      jumpi\n        /* \"#utility.yul\":3721:3739   */\n      tag_116\n      tag_117\n      jump\t// in\n    tag_116:\n        /* \"#utility.yul\":3685:3741   */\n    tag_115:\n        /* \"#utility.yul\":3759:3788   */\n      tag_118\n        /* \"#utility.yul\":3781:3787   */\n      dup3\n        /* \"#utility.yul\":3759:3788   */\n      tag_97\n      jump\t// in\n    tag_118:\n        /* \"#utility.yul\":3751:3788   */\n      swap1\n      pop\n        /* \"#utility.yul\":3843:3847   */\n      0x20\n        /* \"#utility.yul\":3837:3841   */\n      dup2\n        /* \"#utility.yul\":3833:3848   */\n      add\n        /* \"#utility.yul\":3825:3848   */\n      swap1\n      pop\n        /* \"#utility.yul\":3547:3855   */\n      swap2\n      swap1\n      pop\n      jump\t// out\n        /* \"#utility.yul\":3861:3960   */\n    tag_91:\n        /* \"#utility.yul\":3913:3919   */\n      0x00\n        /* \"#utility.yul\":3947:3952   */\n      dup2\n        /* \"#utility.yul\":3941:3953   */\n      mload\n        /* \"#utility.yul\":3931:3953   */\n      swap1\n      pop\n        /* \"#utility.yul\":3861:3960   */\n      swap2\n      swap1\n      pop\n      jump\t// out\n        /* \"#utility.yul\":3966:4135   */\n    tag_93:\n        /* \"#utility.yul\":4050:4061   */\n      0x00\n        /* \"#utility.yul\":4084:4090   */\n      dup3\n        /* \"#utility.yul\":4079:4082   */\n      dup3\n        /* \"#utility.yul\":4072:4091   */\n      mstore\n        /* \"#utility.yul\":4124:4128   */\n      0x20\n        /* \"#utility.yul\":4119:4122   */\n      dup3\n        /* \"#utility.yul\":4115:4129   */\n      add\n        /* \"#utility.yul\":4100:4129   */\n      swap1\n      pop\n        /* \"#utility.yul\":3966:4135   */\n      swap3\n      swap2\n      pop\n      pop\n      jump\t// out\n        /* \"#utility.yul\":4141:4446   */\n    tag_38:\n        /* \"#utility.yul\":4181:4184   */\n      0x00\n        /* \"#utility.yul\":4200:4220   */\n      tag_122\n        /* \"#utility.yul\":4218:4219   */\n      dup3\n        /* \"#utility.yul\":4200:4220   */\n      tag_101\n      jump\t// in\n    tag_122:\n        /* \"#utility.yul\":4195:4220   */\n      swap2\n      pop\n        /* \"#utility.yul\":4234:4254   */\n      tag_123\n        /* \"#utility.yul\":4252:4253   */\n      dup4\n        /* \"#utility.yul\":4234:4254   */\n      tag_101\n      jump\t// in\n    tag_123:\n        /* \"#utility.yul\":4229:4254   */\n      swap3\n      pop\n        /* \"#utility.yul\":4388:4389   */\n      dup3\n        /* \"#utility.yul\":4320:4386   */\n      0xffffffffffffffffffffffffffffffffffffffffffffffffffffffffffffffff\n        /* \"#utility.yul\":4316:4390   */\n      sub\n        /* \"#utility.yul\":4313:4314   */\n      dup3\n        /* \"#utility.yul\":4310:4391   */\n      gt\n        /* \"#utility.yul\":4307:4414   */\n      iszero\n      tag_124\n      jumpi\n        /* \"#utility.yul\":4394:4412   */\n      tag_125\n      tag_126\n      jump\t// in\n    tag_125:\n        /* \"#utility.yul\":4307:4414   */\n    tag_124:\n        /* \"#utility.yul\":4438:4439   */\n      dup3\n        /* \"#utility.yul\":4435:4436   */\n      dup3\n        /* \"#utility.yul\":4431:4440   */\n      add\n        /* \"#utility.yul\":4424:4440   */\n      swap1\n      pop\n        /* \"#utility.yul\":4141:4446   */\n      swap3\n      swap2\n      pop\n      pop\n      jump\t// out\n        /* \"#utility.yul\":4452:4643   */\n    tag_28:\n        /* \"#utility.yul\":4492:4496   */\n      0x00\n        /* \"#utility.yul\":4512:4532   */\n      tag_128\n        /* \"#utility.yul\":4530:4531   */\n      dup3\n        /* \"#utility.yul\":4512:4532   */\n      tag_101\n      jump\t// in\n    tag_128:\n        /* \"#utility.yul\":4507:4532   */\n      swap2\n      pop\n        /* \"#utility.yul\":4546:4566   */\n      tag_129\n        /* \"#utility.yul\":4564:4565   */\n      dup4\n        /* \"#utility.yul\":4546:4566   */\n      tag_101\n      jump\t// in\n    tag_129:\n        /* \"#utility.yul\":4541:4566   */\n      swap3\n      pop\n        /* \"#utility.yul\":4585:4586   */\n      dup3\n        /* \"#utility.yul\":4582:4583   */\n      dup3\n        /* \"#utility.yul\":4579:4587   */\n      lt\n        /* \"#utility.yul\":4576:4610   */\n      iszero\n      tag_130\n      jumpi\n        /* \"#utility.yul\":4590:4608   */\n      tag_131\n      tag_126\n      jump\t// in\n    tag_131:\n        /* \"#utility.yul\":4576:4610   */\n    tag_130:\n        /* \"#utility.yul\":4635:4636   */\n      dup3\n        /* \"#utility.yul\":4632:4633   */\n      dup3\n        /* \"#utility.yul\":4628:4637   */\n      sub\n        /* \"#utility.yul\":4620:4637   */\n      swap1\n      pop\n        /* \"#utility.yul\":4452:4643   */\n      swap3\n      swap2\n      pop\n      pop\n      jump\t// out\n        /* \"#utility.yul\":4649:4726   */\n    tag_101:\n        /* \"#utility.yul\":4686:4693   */\n      0x00\n        /* \"#utility.yul\":4715:4720   */\n      dup2\n        /* \"#utility.yul\":4704:4720   */\n      swap1\n      pop\n        /* \"#utility.yul\":4649:4726   */\n      swap2\n      swap1\n      pop\n      jump\t// out\n        /* \"#utility.yul\":4732:4886   */\n    tag_63:\n        /* \"#utility.yul\":4816:4822   */\n      dup3\n        /* \"#utility.yul\":4811:4814   */\n      dup2\n        /* \"#utility.yul\":4806:4809   */\n      dup4\n        /* \"#utility.yul\":4793:4823   */\n      calldatacopy\n        /* \"#utility.yul\":4878:4879   */\n      0x00\n        /* \"#utility.yul\":4869:4875   */\n      dup4\n        /* \"#utility.yul\":4864:4867   */\n      dup4\n        /* \"#utility.yul\":4860:4876   */\n      add\n        /* \"#utility.yul\":4853:4880   */\n      mstore\n        /* \"#utility.yul\":4732:4886   */\n      pop\n      pop\n      pop\n      jump\t// out\n        /* \"#utility.yul\":4892:5199   */\n    tag_95:\n        /* \"#utility.yul\":4960:4961   */\n      0x00\n        /* \"#utility.yul\":4970:5083   */\n    tag_135:\n        /* \"#utility.yul\":4984:4990   */\n      dup4\n        /* \"#utility.yul\":4981:4982   */\n      dup2\n        /* \"#utility.yul\":4978:4991   */\n      lt\n        /* \"#utility.yul\":4970:5083   */\n      iszero\n      tag_137\n      jumpi\n        /* \"#utility.yul\":5069:5070   */\n      dup1\n        /* \"#utility.yul\":5064:5067   */\n      dup3\n        /* \"#utility.yul\":5060:5071   */\n      add\n        /* \"#utility.yul\":5054:5072   */\n      mload\n        /* \"#utility.yul\":5050:5051   */\n      dup2\n        /* \"#utility.yul\":5045:5048   */\n      dup5\n        /* \"#utility.yul\":5041:5052   */\n      add\n        /* \"#utility.yul\":5034:5073   */\n      mstore\n        /* \"#utility.yul\":5006:5008   */\n      0x20\n        /* \"#utility.yul\":5003:5004   */\n      dup2\n        /* \"#utility.yul\":4999:5009   */\n      add\n        /* \"#utility.yul\":4994:5009   */\n      swap1\n      pop\n        /* \"#utility.yul\":4970:5083   */\n      jump(tag_135)\n    tag_137:\n        /* \"#utility.yul\":5101:5107   */\n      dup4\n        /* \"#utility.yul\":5098:5099   */\n      dup2\n        /* \"#utility.yul\":5095:5108   */\n      gt\n        /* \"#utility.yul\":5092:5193   */\n      iszero\n      tag_138\n      jumpi\n        /* \"#utility.yul\":5181:5182   */\n      0x00\n        /* \"#utility.yul\":5172:5178   */\n      dup5\n        /* \"#utility.yul\":5167:5170   */\n      dup5\n        /* \"#utility.yul\":5163:5179   */\n      add\n        /* \"#utility.yul\":5156:5183   */\n      mstore\n        /* \"#utility.yul\":5092:5193   */\n    tag_138:\n        /* \"#utility.yul\":4941:5199   */\n      pop\n        /* \"#utility.yul\":4892:5199   */\n      pop\n      pop\n      pop\n      jump\t// out\n        /* \"#utility.yul\":5205:5525   */\n    tag_31:\n        /* \"#utility.yul\":5249:5255   */\n      0x00\n        /* \"#utility.yul\":5286:5287   */\n      0x02\n        /* \"#utility.yul\":5280:5284   */\n      dup3\n        /* \"#utility.yul\":5276:5288   */\n      div\n        /* \"#utility.yul\":5266:5288   */\n      swap1\n      pop\n        /* \"#utility.yul\":5333:5334   */\n      0x01\n        /* \"#utility.yul\":5327:5331   */\n      dup3\n        /* \"#utility.yul\":5323:5335   */\n      and\n        /* \"#utility.yul\":5354:5372   */\n      dup1\n        /* \"#utility.yul\":5344:5425   */\n      tag_140\n      jumpi\n        /* \"#utility.yul\":5410:5414   */\n      0x7f\n        /* \"#utility.yul\":5402:5408   */\n      dup3\n        /* \"#utility.yul\":5398:5415   */\n      and\n        /* \"#utility.yul\":5388:5415   */\n      swap2\n      pop\n        /* \"#utility.yul\":5344:5425   */\n    tag_140:\n        /* \"#utility.yul\":5472:5474   */\n      0x20\n        /* \"#utility.yul\":5464:5470   */\n      dup3\n        /* \"#utility.yul\":5461:5475   */\n      lt\n        /* \"#utility.yul\":5441:5459   */\n      dup2\n        /* \"#utility.yul\":5438:5476   */\n      eq\n        /* \"#utility.yul\":5435:5519   */\n      iszero\n      tag_141\n      jumpi\n        /* \"#utility.yul\":5491:5509   */\n      tag_142\n      tag_143\n      jump\t// in\n    tag_142:\n        /* \"#utility.yul\":5435:5519   */\n    tag_141:\n        /* \"#utility.yul\":5256:5525   */\n      pop\n        /* \"#utility.yul\":5205:5525   */\n      swap2\n      swap1\n      pop\n      jump\t// out\n        /* \"#utility.yul\":5531:5812   */\n    tag_112:\n        /* \"#utility.yul\":5614:5641   */\n      tag_145\n        /* \"#utility.yul\":5636:5640   */\n      dup3\n        /* \"#utility.yul\":5614:5641   */\n      tag_97\n      jump\t// in\n    tag_145:\n        /* \"#utility.yul\":5606:5612   */\n      dup2\n        /* \"#utility.yul\":5602:5642   */\n      add\n        /* \"#utility.yul\":5744:5750   */\n      dup2\n        /* \"#utility.yul\":5732:5742   */\n      dup2\n        /* \"#utility.yul\":5729:5751   */\n      lt\n        /* \"#utility.yul\":5708:5726   */\n      0xffffffffffffffff\n        /* \"#utility.yul\":5696:5706   */\n      dup3\n        /* \"#utility.yul\":5693:5727   */\n      gt\n        /* \"#utility.yul\":5690:5752   */\n      or\n        /* \"#utility.yul\":5687:5775   */\n      iszero\n      tag_146\n      jumpi\n        /* \"#utility.yul\":5755:5773   */\n      tag_147\n      tag_117\n      jump\t// in\n    tag_147:\n        /* \"#utility.yul\":5687:5775   */\n    tag_146:\n        /* \"#utility.yul\":5795:5805   */\n      dup1\n        /* \"#utility.yul\":5791:5793   */\n      0x40\n        /* \"#utility.yul\":5784:5806   */\n      mstore\n        /* \"#utility.yul\":5574:5812   */\n      pop\n        /* \"#utility.yul\":5531:5812   */\n      pop\n      pop\n      jump\t// out\n        /* \"#utility.yul\":5818:5998   */\n    tag_126:\n        /* \"#utility.yul\":5866:5943   */\n      0x4e487b7100000000000000000000000000000000000000000000000000000000\n        /* \"#utility.yul\":5863:5864   */\n      0x00\n        /* \"#utility.yul\":5856:5944   */\n      mstore\n        /* \"#utility.yul\":5963:5967   */\n      0x11\n        /* \"#utility.yul\":5960:5961   */\n      0x04\n        /* \"#utility.yul\":5953:5968   */\n      mstore\n        /* \"#utility.yul\":5987:5991   */\n      0x24\n        /* \"#utility.yul\":5984:5985   */\n      0x00\n        /* \"#utility.yul\":5977:5992   */\n      revert\n        /* \"#utility.yul\":6004:6184   */\n    tag_143:\n        /* \"#utility.yul\":6052:6129   */\n      0x4e487b7100000000000000000000000000000000000000000000000000000000\n        /* \"#utility.yul\":6049:6050   */\n      0x00\n        /* \"#utility.yul\":6042:6130   */\n      mstore\n        /* \"#utility.yul\":6149:6153   */\n      0x22\n        /* \"#utility.yul\":6146:6147   */\n      0x04\n        /* \"#utility.yul\":6139:6154   */\n      mstore\n        /* \"#utility.yul\":6173:6177   */\n      0x24\n        /* \"#utility.yul\":6170:6171   */\n      0x00\n        /* \"#utility.yul\":6163:6178   */\n      revert\n        /* \"#utility.yul\":6190:6370   */\n    tag_117:\n        /* \"#utility.yul\":6238:6315   */\n      0x4e487b7100000000000000000000000000000000000000000000000000000000\n        /* \"#utility.yul\":6235:6236   */\n      0x00\n        /* \"#utility.yul\":6228:6316   */\n      mstore\n        /* \"#utility.yul\":6335:6339   */\n      0x41\n        /* \"#utility.yul\":6332:6333   */\n      0x04\n        /* \"#utility.yul\":6325:6340   */\n      mstore\n        /* \"#utility.yul\":6359:6363   */\n      0x24\n        /* \"#utility.yul\":6356:6357   */\n      0x00\n        /* \"#utility.yul\":6349:6364   */\n      revert\n        /* \"#utility.yul\":6376:6493   */\n    tag_68:\n        /* \"#utility.yul\":6485:6486   */\n      0x00\n        /* \"#utility.yul\":6482:6483   */\n      dup1\n        /* \"#utility.yul\":6475:6487   */\n      revert\n        /* \"#utility.yul\":6499:6616   */\n    tag_61:\n        /* \"#utility.yul\":6608:6609   */\n      0x00\n        /* \"#utility.yul\":6605:6606   */\n      dup1\n        /* \"#utility.yul\":6598:6610   */\n      revert\n        /* \"#utility.yul\":6622:6739   */\n    tag_80:\n        /* \"#utility.yul\":6731:6732   */\n      0x00\n        /* \"#utility.yul\":6728:6729   */\n      dup1\n        /* \"#utility.yul\":6721:6733   */\n      revert\n        /* \"#utility.yul\":6745:6862   */\n    tag_77:\n        /* \"#utility.yul\":6854:6855   */\n      0x00\n        /* \"#utility.yul\":6851:6852   */\n      dup1\n        /* \"#utility.yul\":6844:6856   */\n      revert\n        /* \"#utility.yul\":6868:6970   */\n    tag_97:\n        /* \"#utility.yul\":6909:6915   */\n      0x00\n        /* \"#utility.yul\":6960:6962   */\n      0x1f\n        /* \"#utility.yul\":6956:6963   */\n      not\n        /* \"#utility.yul\":6951:6953   */\n      0x1f\n        /* \"#utility.yul\":6944:6949   */\n      dup4\n        /* \"#utility.yul\":6940:6954   */\n      add\n        /* \"#utility.yul\":6936:6964   */\n      and\n        /* \"#utility.yul\":6926:6964   */\n      swap1\n      pop\n        /* \"#utility.yul\":6868:6970   */\n      swap2\n      swap1\n      pop\n      jump\t// out\n        /* \"#utility.yul\":6976:7098   */\n    tag_73:\n        /* \"#utility.yul\":7049:7073   */\n      tag_157\n        /* \"#utility.yul\":7067:7072   */\n      dup2\n        /* \"#utility.yul\":7049:7073   */\n      tag_101\n      jump\t// in\n    tag_157:\n        /* \"#utility.yul\":7042:7047   */\n      dup2\n        /* \"#utility.yul\":7039:7074   */\n      eq\n        /* \"#utility.yul\":7029:7092   */\n      tag_158\n      jumpi\n        /* \"#utility.yul\":7088:7089   */\n      0x00\n        /* \"#utility.yul\":7085:7086   */\n      dup1\n        /* \"#utility.yul\":7078:7090   */\n      revert\n        /* \"#utility.yul\":7029:7092   */\n    tag_158:\n        /* \"#utility.yul\":6976:7098   */\n      pop\n      jump\t// out\n\n    auxdata: 0xa26469706673582212203d38cc25c4666f79c5ae2848255e96687805b024e5c38b9e18d0dee3912fb15764736f6c63430008070033\n}\n",
				"bytecode": {
					"linkReferences": {},
					"object": "608060405234801561001057600080fd5b5061071e806100206000396000f3fe608060405234801561001057600080fd5b506004361061004c5760003560e01c80632e1a7d4d14610051578063832880e714610081578063b6b55f25146100a1578063be607b74146100d1575b600080fd5b61006b600480360381019061006691906103a6565b6100ed565b6040516100789190610459565b60405180910390f35b61008961011c565b6040516100989392919061041b565b60405180910390f35b6100bb60048036038101906100b691906103a6565b6101c0565b6040516100c89190610459565b60405180910390f35b6100eb60048036038101906100e69190610337565b6101e5565b005b6000816002541061011257816002600082825461010a919061053c565b925050819055505b6002549050919050565b60606000806000600154600254828054610135906105bc565b80601f0160208091040260200160405190810160405280929190818152602001828054610161906105bc565b80156101ae5780601f10610183576101008083540402835291602001916101ae565b820191906000526020600020905b81548152906001019060200180831161019157829003601f168201915b50505050509250925092509250909192565b600081600260008282546101d491906104e6565b925050819055506002549050919050565b82600090805190602001906101fb92919061020f565b508160018190555080600281905550505050565b82805461021b906105bc565b90600052602060002090601f01602090048101928261023d5760008555610284565b82601f1061025657805160ff1916838001178555610284565b82800160010185558215610284579182015b82811115610283578251825591602001919060010190610268565b5b5090506102919190610295565b5090565b5b808211156102ae576000816000905550600101610296565b5090565b60006102c56102c084610499565b610474565b9050828152602081018484840111156102e1576102e06106b1565b5b6102ec84828561057a565b509392505050565b600082601f830112610309576103086106ac565b5b81356103198482602086016102b2565b91505092915050565b600081359050610331816106d1565b92915050565b6000806000606084860312156103505761034f6106bb565b5b600084013567ffffffffffffffff81111561036e5761036d6106b6565b5b61037a868287016102f4565b935050602061038b86828701610322565b925050604061039c86828701610322565b9150509250925092565b6000602082840312156103bc576103bb6106bb565b5b60006103ca84828501610322565b91505092915050565b60006103de826104ca565b6103e881856104d5565b93506103f8818560208601610589565b610401816106c0565b840191505092915050565b61041581610570565b82525050565b6000606082019050818103600083015261043581866103d3565b9050610444602083018561040c565b610451604083018461040c565b949350505050565b600060208201905061046e600083018461040c565b92915050565b600061047e61048f565b905061048a82826105ee565b919050565b6000604051905090565b600067ffffffffffffffff8211156104b4576104b361067d565b5b6104bd826106c0565b9050602081019050919050565b600081519050919050565b600082825260208201905092915050565b60006104f182610570565b91506104fc83610570565b9250827fffffffffffffffffffffffffffffffffffffffffffffffffffffffffffffffff038211156105315761053061061f565b5b828201905092915050565b600061054782610570565b915061055283610570565b9250828210156105655761056461061f565b5b828203905092915050565b6000819050919050565b82818337600083830152505050565b60005b838110156105a757808201518184015260208101905061058c565b838111156105b6576000848401525b50505050565b600060028204905060018216806105d457607f821691505b602082108114156105e8576105e761064e565b5b50919050565b6105f7826106c0565b810181811067ffffffffffffffff821117156106165761061561067d565b5b80604052505050565b7f4e487b7100000000000000000000000000000000000000000000000000000000600052601160045260246000fd5b7f4e487b7100000000000000000000000000000000000000000000000000000000600052602260045260246000fd5b7f4e487b7100000000000000000000000000000000000000000000000000000000600052604160045260246000fd5b600080fd5b600080fd5b600080fd5b600080fd5b6000601f19601f8301169050919050565b6106da81610570565b81146106e557600080fd5b5056fea26469706673582212203d38cc25c4666f79c5ae2848255e96687805b024e5c38b9e18d0dee3912fb15764736f6c63430008070033",
					"opcodes": "PUSH1 0x80 PUSH1 0x40 MSTORE CALLVALUE DUP1 ISZERO PUSH2 0x10 JUMPI PUSH1 0x0 DUP1 REVERT JUMPDEST POP PUSH2 0x71E DUP1 PUSH2 0x20 PUSH1 0x0 CODECOPY PUSH1 0x0 RETURN INVALID PUSH1 0x80 PUSH1 0x40 MSTORE CALLVALUE DUP1 ISZERO PUSH2 0x10 JUMPI PUSH1 0x0 DUP1 REVERT JUMPDEST POP PUSH1 0x4 CALLDATASIZE LT PUSH2 0x4C JUMPI PUSH1 0x0 CALLDATALOAD PUSH1 0xE0 SHR DUP1 PUSH4 0x2E1A7D4D EQ PUSH2 0x51 JUMPI DUP1 PUSH4 0x832880E7 EQ PUSH2 0x81 JUMPI DUP1 PUSH4 0xB6B55F25 EQ PUSH2 0xA1 JUMPI DUP1 PUSH4 0xBE607B74 EQ PUSH2 0xD1 JUMPI JUMPDEST PUSH1 0x0 DUP1 REVERT JUMPDEST PUSH2 0x6B PUSH1 0x4 DUP1 CALLDATASIZE SUB DUP2 ADD SWAP1 PUSH2 0x66 SWAP2 SWAP1 PUSH2 0x3A6 JUMP JUMPDEST PUSH2 0xED JUMP JUMPDEST PUSH1 0x40 MLOAD PUSH2 0x78 SWAP2 SWAP1 PUSH2 0x459 JUMP JUMPDEST PUSH1 0x40 MLOAD DUP1 SWAP2 SUB SWAP1 RETURN JUMPDEST PUSH2 0x89 PUSH2 0x11C JUMP JUMPDEST PUSH1 0x40 MLOAD PUSH2 0x98 SWAP4 SWAP3 SWAP2 SWAP1 PUSH2 0x41B JUMP JUMPDEST PUSH1 0x40 MLOAD DUP1 SWAP2 SUB SWAP1 RETURN JUMPDEST PUSH2 0xBB PUSH1 0x4 DUP1 CALLDATASIZE SUB DUP2 ADD SWAP1 PUSH2 0xB6 SWAP2 SWAP1 PUSH2 0x3A6 JUMP JUMPDEST PUSH2 0x1C0 JUMP JUMPDEST PUSH1 0x40 MLOAD PUSH2 0xC8 SWAP2 SWAP1 PUSH2 0x459 JUMP JUMPDEST PUSH1 0x40 MLOAD DUP1 SWAP2 SUB SWAP1 RETURN JUMPDEST PUSH2 0xEB PUSH1 0x4 DUP1 CALLDATASIZE SUB DUP2 ADD SWAP1 PUSH2 0xE6 SWAP2 SWAP1 PUSH2 0x337 JUMP JUMPDEST PUSH2 0x1E5 JUMP JUMPDEST STOP JUMPDEST PUSH1 0x0 DUP2 PUSH1 0x2 SLOAD LT PUSH2 0x112 JUMPI DUP2 PUSH1 0x2 PUSH1 0x0 DUP3 DUP3 SLOAD PUSH2 0x10A SWAP2 SWAP1 PUSH2 0x53C JUMP JUMPDEST SWAP3 POP POP DUP2 SWAP1 SSTORE POP JUMPDEST PUSH1 0x2 SLOAD SWAP1 POP SWAP2 SWAP1 POP JUMP JUMPDEST PUSH1 0x60 PUSH1 0x0 DUP1 PUSH1 0x0 PUSH1 0x1 SLOAD PUSH1 0x2 SLOAD DUP3 DUP1 SLOAD PUSH2 0x135 SWAP1 PUSH2 0x5BC JUMP JUMPDEST DUP1 PUSH1 0x1F ADD PUSH1 0x20 DUP1 SWAP2 DIV MUL PUSH1 0x20 ADD PUSH1 0x40 MLOAD SWAP1 DUP2 ADD PUSH1 0x40 MSTORE DUP1 SWAP3 SWAP2 SWAP1 DUP2 DUP2 MSTORE PUSH1 0x20 ADD DUP3 DUP1 SLOAD PUSH2 0x161 SWAP1 PUSH2 0x5BC JUMP JUMPDEST DUP1 ISZERO PUSH2 0x1AE JUMPI DUP1 PUSH1 0x1F LT PUSH2 0x183 JUMPI PUSH2 0x100 DUP1 DUP4 SLOAD DIV MUL DUP4 MSTORE SWAP2 PUSH1 0x20 ADD SWAP2 PUSH2 0x1AE JUMP JUMPDEST DUP3 ADD SWAP2 SWAP1 PUSH1 0x0 MSTORE PUSH1 0x20 PUSH1 0x0 KECCAK256 SWAP1 JUMPDEST DUP2 SLOAD DUP2 MSTORE SWAP1 PUSH1 0x1 ADD SWAP1 PUSH1 0x20 ADD DUP1 DUP4 GT PUSH2 0x191 JUMPI DUP3 SWAP1 SUB PUSH1 0x1F AND DUP3 ADD SWAP2 JUMPDEST POP POP POP POP POP SWAP3 POP SWAP3 POP SWAP3 POP SWAP3 POP SWAP1 SWAP2 SWAP3 JUMP JUMPDEST PUSH1 0x0 DUP2 PUSH1 0x2 PUSH1 0x0 DUP3 DUP3 SLOAD PUSH2 0x1D4 SWAP2 SWAP1 PUSH2 0x4E6 JUMP JUMPDEST SWAP3 POP POP DUP2 SWAP1 SSTORE POP PUSH1 0x2 SLOAD SWAP1 POP SWAP2 SWAP1 POP JUMP JUMPDEST DUP3 PUSH1 0x0 SWAP1 DUP1 MLOAD SWAP1 PUSH1 0x20 ADD SWAP1 PUSH2 0x1FB SWAP3 SWAP2 SWAP1 PUSH2 0x20F JUMP JUMPDEST POP DUP2 PUSH1 0x1 DUP2 SWAP1 SSTORE POP DUP1 PUSH1 0x2 DUP2 SWAP1 SSTORE POP POP POP POP JUMP JUMPDEST DUP3 DUP1 SLOAD PUSH2 0x21B SWAP1 PUSH2 0x5BC JUMP JUMPDEST SWAP1 PUSH1 0x0 MSTORE PUSH1 0x20 PUSH1 0x0 KECCAK256 SWAP1 PUSH1 0x1F ADD PUSH1 0x20 SWAP1 DIV DUP2 ADD SWAP3 DUP3 PUSH2 0x23D JUMPI PUSH1 0x0 DUP6 SSTORE PUSH2 0x284 JUMP JUMPDEST DUP3 PUSH1 0x1F LT PUSH2 0x256 JUMPI DUP1 MLOAD PUSH1 0xFF NOT AND DUP4 DUP1 ADD OR DUP6 SSTORE PUSH2 0x284 JUMP JUMPDEST DUP3 DUP1 ADD PUSH1 0x1 ADD DUP6 SSTORE DUP3 ISZERO PUSH2 0x284 JUMPI SWAP2 DUP3 ADD JUMPDEST DUP3 DUP2 GT ISZERO PUSH2 0x283 JUMPI DUP3 MLOAD DUP3 SSTORE SWAP2 PUSH1 0x20 ADD SWAP2 SWAP1 PUSH1 0x1 ADD SWAP1 PUSH2 0x268 JUMP JUMPDEST JUMPDEST POP SWAP1 POP PUSH2 0x291 SWAP2 SWAP1 PUSH2 0x295 JUMP JUMPDEST POP SWAP1 JUMP JUMPDEST JUMPDEST DUP1 DUP3 GT ISZERO PUSH2 0x2AE JUMPI PUSH1 0x0 DUP2 PUSH1 0x0 SWAP1 SSTORE POP PUSH1 0x1 ADD PUSH2 0x296 JUMP JUMPDEST POP SWAP1 JUMP JUMPDEST PUSH1 0x0 PUSH2 0x2C5 PUSH2 0x2C0 DUP5 PUSH2 0x499 JUMP JUMPDEST PUSH2 0x474 JUMP JUMPDEST SWAP1 POP DUP3 DUP2 MSTORE PUSH1 0x20 DUP2 ADD DUP5 DUP5 DUP5 ADD GT ISZERO PUSH2 0x2E1 JUMPI PUSH2 0x2E0 PUSH2 0x6B1 JUMP JUMPDEST JUMPDEST PUSH2 0x2EC DUP5 DUP3 DUP6 PUSH2 0x57A JUMP JUMPDEST POP SWAP4 SWAP3 POP POP POP JUMP JUMPDEST PUSH1 0x0 DUP3 PUSH1 0x1F DUP4 ADD SLT PUSH2 0x309 JUMPI PUSH2 0x308 PUSH2 0x6AC JUMP JUMPDEST JUMPDEST DUP2 CALLDATALOAD PUSH2 0x319 DUP5 DUP3 PUSH1 0x20 DUP7 ADD PUSH2 0x2B2 JUMP JUMPDEST SWAP2 POP POP SWAP3 SWAP2 POP POP JUMP JUMPDEST PUSH1 0x0 DUP2 CALLDATALOAD SWAP1 POP PUSH2 0x331 DUP2 PUSH2 0x6D1 JUMP JUMPDEST SWAP3 SWAP2 POP POP JUMP JUMPDEST PUSH1 0x0 DUP1 PUSH1 0x0 PUSH1 0x60 DUP5 DUP7 SUB SLT ISZERO PUSH2 0x350 JUMPI PUSH2 0x34F PUSH2 0x6BB JUMP JUMPDEST JUMPDEST PUSH1 0x0 DUP5 ADD CALLDATALOAD PUSH8 0xFFFFFFFFFFFFFFFF DUP2 GT ISZERO PUSH2 0x36E JUMPI PUSH2 0x36D PUSH2 0x6B6 JUMP JUMPDEST JUMPDEST PUSH2 0x37A DUP7 DUP3 DUP8 ADD PUSH2 0x2F4 JUMP JUMPDEST SWAP4 POP POP PUSH1 0x20 PUSH2 0x38B DUP7 DUP3 DUP8 ADD PUSH2 0x322 JUMP JUMPDEST SWAP3 POP POP PUSH1 0x40 PUSH2 0x39C DUP7 DUP3 DUP8 ADD PUSH2 0x322 JUMP JUMPDEST SWAP2 POP POP SWAP3 POP SWAP3 POP SWAP3 JUMP JUMPDEST PUSH1 0x0 PUSH1 0x20 DUP3 DUP5 SUB SLT ISZERO PUSH2 0x3BC JUMPI PUSH2 0x3BB PUSH2 0x6BB JUMP JUMPDEST JUMPDEST PUSH1 0x0 PUSH2 0x3CA DUP5 DUP3 DUP6 ADD PUSH2 0x322 JUMP JUMPDEST SWAP2 POP POP SWAP3 SWAP2 POP POP JUMP JUMPDEST PUSH1 0x0 PUSH2 0x3DE DUP3 PUSH2 0x4CA JUMP JUMPDEST PUSH2 0x3E8 DUP2 DUP6 PUSH2 0x4D5 JUMP JUMPDEST SWAP4 POP PUSH2 0x3F8 DUP2 DUP6 PUSH1 0x20 DUP7 ADD PUSH2 0x589 JUMP JUMPDEST PUSH2 0x401 DUP2 PUSH2 0x6C0 JUMP JUMPDEST DUP5 ADD SWAP2 POP POP SWAP3 SWAP2 POP POP JUMP JUMPDEST PUSH2 0x415 DUP2 PUSH2 0x570 JUMP JUMPDEST DUP3 MSTORE POP POP JUMP JUMPDEST PUSH1 0x0 PUSH1 0x60 DUP3 ADD SWAP1 POP DUP2 DUP2 SUB PUSH1 0x0 DUP4 ADD MSTORE PUSH2 0x435 DUP2 DUP7 PUSH2 0x3D3 JUMP JUMPDEST SWAP1 POP PUSH2 0x444 PUSH1 0x20 DUP4 ADD DUP6 PUSH2 0x40C JUMP JUMPDEST PUSH2 0x451 PUSH1 0x40 DUP4 ADD DUP5 PUSH2 0x40C JUMP JUMPDEST SWAP5 SWAP4 POP POP POP POP JUMP JUMPDEST PUSH1 0x0 PUSH1 0x20 DUP3 ADD SWAP1 POP PUSH2 0x46E PUSH1 0x0 DUP4 ADD DUP5 PUSH2 0x40C JUMP JUMPDEST SWAP3 SWAP2 POP POP JUMP JUMPDEST PUSH1 0x0 PUSH2 0x47E PUSH2 0x48F JUMP JUMPDEST SWAP1 POP PUSH2 0x48A DUP3 DUP3 PUSH2 0x5EE JUMP JUMPDEST SWAP2 SWAP1 POP JUMP JUMPDEST PUSH1 0x0 PUSH1 0x40 MLOAD SWAP1 POP SWAP1 JUMP JUMPDEST PUSH1 0x0 PUSH8 0xFFFFFFFFFFFFFFFF DUP3 GT ISZERO PUSH2 0x4B4 JUMPI PUSH2 0x4B3 PUSH2 0x67D JUMP JUMPDEST JUMPDEST PUSH2 0x4BD DUP3 PUSH2 0x6C0 JUMP JUMPDEST SWAP1 POP PUSH1 0x20 DUP2 ADD SWAP1 POP SWAP2 SWAP1 POP JUMP JUMPDEST PUSH1 0x0 DUP2 MLOAD SWAP1 POP SWAP2 SWAP1 POP JUMP JUMPDEST PUSH1 0x0 DUP3 DUP3 MSTORE PUSH1 0x20 DUP3 ADD SWAP1 POP SWAP3 SWAP2 POP POP JUMP JUMPDEST PUSH1 0x0 PUSH2 0x4F1 DUP3 PUSH2 0x570 JUMP JUMPDEST SWAP2 POP PUSH2 0x4FC DUP4 PUSH2 0x570 JUMP JUMPDEST SWAP3 POP DUP3 PUSH32 0xFFFFFFFFFFFFFFFFFFFFFFFFFFFFFFFFFFFFFFFFFFFFFFFFFFFFFFFFFFFFFFFF SUB DUP3 GT ISZERO PUSH2 0x531 JUMPI PUSH2 0x530 PUSH2 0x61F JUMP JUMPDEST JUMPDEST DUP3 DUP3 ADD SWAP1 POP SWAP3 SWAP2 POP POP JUMP JUMPDEST PUSH1 0x0 PUSH2 0x547 DUP3 PUSH2 0x570 JUMP JUMPDEST SWAP2 POP PUSH2 0x552 DUP4 PUSH2 0x570 JUMP JUMPDEST SWAP3 POP DUP3 DUP3 LT ISZERO PUSH2 0x565 JUMPI PUSH2 0x564 PUSH2 0x61F JUMP JUMPDEST JUMPDEST DUP3 DUP3 SUB SWAP1 POP SWAP3 SWAP2 POP POP JUMP JUMPDEST PUSH1 0x0 DUP2 SWAP1 POP SWAP2 SWAP1 POP JUMP JUMPDEST DUP3 DUP2 DUP4 CALLDATACOPY PUSH1 0x0 DUP4 DUP4 ADD MSTORE POP POP POP JUMP JUMPDEST PUSH1 0x0 JUMPDEST DUP4 DUP2 LT ISZERO PUSH2 0x5A7 JUMPI DUP1 DUP3 ADD MLOAD DUP2 DUP5 ADD MSTORE PUSH1 0x20 DUP2 ADD SWAP1 POP PUSH2 0x58C JUMP JUMPDEST DUP4 DUP2 GT ISZERO PUSH2 0x5B6 JUMPI PUSH1 0x0 DUP5 DUP5 ADD MSTORE JUMPDEST POP POP POP POP JUMP JUMPDEST PUSH1 0x0 PUSH1 0x2 DUP3 DIV SWAP1 POP PUSH1 0x1 DUP3 AND DUP1 PUSH2 0x5D4 JUMPI PUSH1 0x7F DUP3 AND SWAP2 POP JUMPDEST PUSH1 0x20 DUP3 LT DUP2 EQ ISZERO PUSH2 0x5E8 JUMPI PUSH2 0x5E7 PUSH2 0x64E JUMP JUMPDEST JUMPDEST POP SWAP2 SWAP1 POP JUMP JUMPDEST PUSH2 0x5F7 DUP3 PUSH2 0x6C0 JUMP JUMPDEST DUP2 ADD DUP2 DUP2 LT PUSH8 0xFFFFFFFFFFFFFFFF DUP3 GT OR ISZERO PUSH2 0x616 JUMPI PUSH2 0x615 PUSH2 0x67D JUMP JUMPDEST JUMPDEST DUP1 PUSH1 0x40 MSTORE POP POP POP JUMP JUMPDEST PUSH32 0x4E487B7100000000000000000000000000000000000000000000000000000000 PUSH1 0x0 MSTORE PUSH1 0x11 PUSH1 0x4 MSTORE PUSH1 0x24 PUSH1 0x0 REVERT JUMPDEST PUSH32 0x4E487B7100000000000000000000000000000000000000000000000000000000 PUSH1 0x0 MSTORE PUSH1 0x22 PUSH1 0x4 MSTORE PUSH1 0x24 PUSH1 0x0 REVERT JUMPDEST PUSH32 0x4E487B7100000000000000000000000000000000000000000000000000000000 PUSH1 0x0 MSTORE PUSH1 0x41 PUSH1 0x4 MSTORE PUSH1 0x24 PUSH1 0x0 REVERT JUMPDEST PUSH1 0x0 DUP1 REVERT JUMPDEST PUSH1 0x0 DUP1 REVERT JUMPDEST PUSH1 0x0 DUP1 REVERT JUMPDEST PUSH1 0x0 DUP1 REVERT JUMPDEST PUSH1 0x0 PUSH1 0x1F NOT PUSH1 0x1F DUP4 ADD AND SWAP1 POP SWAP2 SWAP1 POP JUMP JUMPDEST PUSH2 0x6DA DUP2 PUSH2 0x570 JUMP JUMPDEST DUP2 EQ PUSH2 0x6E5 JUMPI PUSH1 0x0 DUP1 REVERT JUMPDEST POP JUMP INVALID LOG2 PUSH5 0x6970667358 0x22 SLT KECCAK256 RETURNDATASIZE CODESIZE 0xCC 0x25 0xC4 PUSH7 0x6F79C5AE284825 0x5E SWAP7 PUSH9 0x7805B024E5C38B9E18 0xD0 0xDE 0xE3 SWAP2 0x2F 0xB1 JUMPI PUSH5 0x736F6C6343 STOP ADDMOD SMOD STOP CALLER "
				},
				"gasEstimates": {
					"creation": {
						"codeDepositCost": "364400",
						"executionCost": "399",
						"totalCost": "364799"
					},
					"external": {
						"addUser(string,uint256,uint256)": "infinite",
						"deposit(uint256)": "infinite",
						"getUser()": "infinite",
						"withdraw(uint256)": "infinite"
					}
				},
				"methodIdentifiers": {
					"addUser(string,uint256,uint256)": "be607b74",
					"deposit(uint256)": "b6b55f25",
					"getUser()": "832880e7",
					"withdraw(uint256)": "2e1a7d4d"
				}
			},
			"storageLayout": {
				"storage": [
					{
						"astId": 3,
						"contract": "bank.sol:bank",
						"label": "name",
						"offset": 0,
						"slot": "0",
						"type": "t_string_storage"
					},
					{
						"astId": 5,
						"contract": "bank.sol:bank",
						"label": "acnum",
						"offset": 0,
						"slot": "1",
						"type": "t_uint256"
					},
					{
						"astId": 7,
						"contract": "bank.sol:bank",
						"label": "balance",
						"offset": 0,
						"slot": "2",
						"type": "t_uint256"
					}
				],
				"types": {
					"t_string_storage": {
						"encoding": "bytes",
						"label": "string",
						"numberOfBytes": "32"
					},
					"t_uint256": {
						"encoding": "inplace",
						"label": "uint256",
						"numberOfBytes": "32"
					}
				}
			},
			"userdoc": {
				"kind": "user",
				"methods": {},
				"version": 1
			}
		}
	}
}