{
	"studentMarks.sol": {
		"result": {
			"abi": [
				{
					"inputs": [
						{
							"internalType": "string",
							"name": "a",
							"type": "string"
						},
						{
							"internalType": "uint256",
							"name": "b",
							"type": "uint256"
						},
						{
							"internalType": "uint256",
							"name": "c",
							"type": "uint256"
						},
						{
							"internalType": "uint256",
							"name": "d",
							"type": "uint256"
						}
					],
					"name": "addUser",
					"outputs": [],
					"stateMutability": "nonpayable",
					"type": "function"
				},
				{
					"inputs": [],
					"name": "display",
					"outputs": [
						{
							"internalType": "string",
							"name": "",
							"type": "string"
						},
						{
							"internalType": "uint256",
							"name": "",
							"type": "uint256"
						},
						{
							"internalType": "uint256",
							"name": "",
							"type": "uint256"
						},
						{
							"internalType": "uint256",
							"name": "",
							"type": "uint256"
						},
						{
							"internalType": "uint256",
							"name": "",
							"type": "uint256"
						},
						{
							"internalType": "string",
							"name": "",
							"type": "string"
						}
					],
					"stateMutability": "view",
					"type": "function"
				}
			],
			"devdoc": {
				"kind": "dev",
				"methods": {},
				"version": 1
			},
			"evm": {
				"assembly": "    /* \"studentMarks.sol\":73:921  contract result{\r... */\n  mstore(0x40, 0x80)\n  callvalue\n  dup1\n  iszero\n  tag_1\n  jumpi\n  0x00\n  dup1\n  revert\ntag_1:\n  pop\n  dataSize(sub_0)\n  dup1\n  dataOffset(sub_0)\n  0x00\n  codecopy\n  0x00\n  return\nstop\n\nsub_0: assembly {\n        /* \"studentMarks.sol\":73:921  contract result{\r... */\n      mstore(0x40, 0x80)\n      callvalue\n      dup1\n      iszero\n      tag_1\n      jumpi\n      0x00\n      dup1\n      revert\n    tag_1:\n      pop\n      jumpi(tag_2, lt(calldatasize, 0x04))\n      shr(0xe0, calldataload(0x00))\n      dup1\n      0x0c1b7c1e\n      eq\n      tag_3\n      jumpi\n      dup1\n      0x76b3d161\n      eq\n      tag_4\n      jumpi\n    tag_2:\n      0x00\n      dup1\n      revert\n        /* \"studentMarks.sol\":753:918  function display() public view returns(string memory, uint, uint, uint,uint,string memory){\r... */\n    tag_3:\n      tag_5\n      tag_6\n      jump\t// in\n    tag_5:\n      mload(0x40)\n      tag_7\n      swap7\n      swap6\n      swap5\n      swap4\n      swap3\n      swap2\n      swap1\n      tag_8\n      jump\t// in\n    tag_7:\n      mload(0x40)\n      dup1\n      swap2\n      sub\n      swap1\n      return\n        /* \"studentMarks.sol\":210:747  function addUser(string memory a, uint b, uint c, uint d )public{\r... */\n    tag_4:\n      tag_9\n      0x04\n      dup1\n      calldatasize\n      sub\n      dup2\n      add\n      swap1\n      tag_10\n      swap2\n      swap1\n      tag_11\n      jump\t// in\n    tag_10:\n      tag_12\n      jump\t// in\n    tag_9:\n      stop\n        /* \"studentMarks.sol\":753:918  function display() public view returns(string memory, uint, uint, uint,uint,string memory){\r... */\n    tag_6:\n        /* \"studentMarks.sol\":792:805  string memory */\n      0x60\n        /* \"studentMarks.sol\":807:811  uint */\n      0x00\n        /* \"studentMarks.sol\":813:817  uint */\n      dup1\n        /* \"studentMarks.sol\":819:823  uint */\n      0x00\n        /* \"studentMarks.sol\":824:828  uint */\n      dup1\n        /* \"studentMarks.sol\":829:842  string memory */\n      0x60\n        /* \"studentMarks.sol\":879:883  name */\n      0x00\n        /* \"studentMarks.sol\":885:887  m1 */\n      sload(0x01)\n        /* \"studentMarks.sol\":888:890  m2 */\n      sload(0x02)\n        /* \"studentMarks.sol\":891:893  m3 */\n      sload(0x03)\n        /* \"studentMarks.sol\":894:899  total */\n      sload(0x04)\n        /* \"studentMarks.sol\":901:906  grade */\n      0x06\n        /* \"studentMarks.sol\":872:908  return(name, m1,m2,m3,total, grade ) */\n      dup6\n      dup1\n      sload\n      tag_14\n      swap1\n      tag_15\n      jump\t// in\n    tag_14:\n      dup1\n      0x1f\n      add\n      0x20\n      dup1\n      swap2\n      div\n      mul\n      0x20\n      add\n      mload(0x40)\n      swap1\n      dup2\n      add\n      0x40\n      mstore\n      dup1\n      swap3\n      swap2\n      swap1\n      dup2\n      dup2\n      mstore\n      0x20\n      add\n      dup3\n      dup1\n      sload\n      tag_16\n      swap1\n      tag_15\n      jump\t// in\n    tag_16:\n      dup1\n      iszero\n      tag_17\n      jumpi\n      dup1\n      0x1f\n      lt\n      tag_18\n      jumpi\n      0x0100\n      dup1\n      dup4\n      sload\n      div\n      mul\n      dup4\n      mstore\n      swap2\n      0x20\n      add\n      swap2\n      jump(tag_17)\n    tag_18:\n      dup3\n      add\n      swap2\n      swap1\n      0x00\n      mstore\n      keccak256(0x00, 0x20)\n      swap1\n    tag_19:\n      dup2\n      sload\n      dup2\n      mstore\n      swap1\n      0x01\n      add\n      swap1\n      0x20\n      add\n      dup1\n      dup4\n      gt\n      tag_19\n      jumpi\n      dup3\n      swap1\n      sub\n      0x1f\n      and\n      dup3\n      add\n      swap2\n    tag_17:\n      pop\n      pop\n      pop\n      pop\n      pop\n      swap6\n      pop\n      dup1\n      dup1\n      sload\n      tag_20\n      swap1\n      tag_15\n      jump\t// in\n    tag_20:\n      dup1\n      0x1f\n      add\n      0x20\n      dup1\n      swap2\n      div\n      mul\n      0x20\n      add\n      mload(0x40)\n      swap1\n      dup2\n      add\n      0x40\n      mstore\n      dup1\n      swap3\n      swap2\n      swap1\n      dup2\n      dup2\n      mstore\n      0x20\n      add\n      dup3\n      dup1\n      sload\n      tag_21\n      swap1\n      tag_15\n      jump\t// in\n    tag_21:\n      dup1\n      iszero\n      tag_22\n      jumpi\n      dup1\n      0x1f\n      lt\n      tag_23\n      jumpi\n      0x0100\n      dup1\n      dup4\n      sload\n      div\n      mul\n      dup4\n      mstore\n      swap2\n      0x20\n      add\n      swap2\n      jump(tag_22)\n    tag_23:\n      dup3\n      add\n      swap2\n      swap1\n      0x00\n      mstore\n      keccak256(0x00, 0x20)\n      swap1\n    tag_24:\n      dup2\n      sload\n      dup2\n      mstore\n      swap1\n      0x01\n      add\n      swap1\n      0x20\n      add\n      dup1\n      dup4\n      gt\n      tag_24\n      jumpi\n      dup3\n      swap1\n      sub\n      0x1f\n      and\n      dup3\n      add\n      swap2\n    tag_22:\n      pop\n      pop\n      pop\n      pop\n      pop\n      swap1\n      pop\n      swap6\n      pop\n      swap6\n      pop\n      swap6\n      pop\n      swap6\n      pop\n      swap6\n      pop\n      swap6\n      pop\n        /* \"studentMarks.sol\":753:918  function display() public view returns(string memory, uint, uint, uint,uint,string memory){\r... */\n      swap1\n      swap2\n      swap3\n      swap4\n      swap5\n      swap6\n      jump\t// out\n        /* \"studentMarks.sol\":210:747  function addUser(string memory a, uint b, uint c, uint d )public{\r... */\n    tag_12:\n        /* \"studentMarks.sol\":290:291  a */\n      dup4\n        /* \"studentMarks.sol\":285:289  name */\n      0x00\n        /* \"studentMarks.sol\":285:291  name=a */\n      swap1\n      dup1\n      mload\n      swap1\n      0x20\n      add\n      swap1\n      tag_26\n      swap3\n      swap2\n      swap1\n      tag_27\n      jump\t// in\n    tag_26:\n      pop\n        /* \"studentMarks.sol\":305:306  b */\n      dup3\n        /* \"studentMarks.sol\":302:304  m1 */\n      0x01\n        /* \"studentMarks.sol\":302:306  m1=b */\n      dup2\n      swap1\n      sstore\n      pop\n        /* \"studentMarks.sol\":320:321  c */\n      dup2\n        /* \"studentMarks.sol\":317:319  m2 */\n      0x02\n        /* \"studentMarks.sol\":317:321  m2=c */\n      dup2\n      swap1\n      sstore\n      pop\n        /* \"studentMarks.sol\":335:336  d */\n      dup1\n        /* \"studentMarks.sol\":332:334  m3 */\n      0x03\n        /* \"studentMarks.sol\":332:336  m3=d */\n      dup2\n      swap1\n      sstore\n      pop\n        /* \"studentMarks.sol\":359:361  m3 */\n      sload(0x03)\n        /* \"studentMarks.sol\":356:358  m2 */\n      sload(0x02)\n        /* \"studentMarks.sol\":353:355  m1 */\n      sload(0x01)\n        /* \"studentMarks.sol\":353:358  m1+m2 */\n      tag_28\n      swap2\n      swap1\n      tag_29\n      jump\t// in\n    tag_28:\n        /* \"studentMarks.sol\":353:361  m1+m2+m3 */\n      tag_30\n      swap2\n      swap1\n      tag_29\n      jump\t// in\n    tag_30:\n        /* \"studentMarks.sol\":347:352  total */\n      0x04\n        /* \"studentMarks.sol\":347:361  total=m1+m2+m3 */\n      dup2\n      swap1\n      sstore\n      pop\n        /* \"studentMarks.sol\":385:386  3 */\n      0x03\n        /* \"studentMarks.sol\":379:384  total */\n      sload(0x04)\n        /* \"studentMarks.sol\":379:386  total/3 */\n      tag_31\n      swap2\n      swap1\n      tag_32\n      jump\t// in\n    tag_31:\n        /* \"studentMarks.sol\":374:377  avg */\n      0x05\n        /* \"studentMarks.sol\":374:387  avg=(total/3) */\n      dup2\n      swap1\n      sstore\n      pop\n        /* \"studentMarks.sol\":415:418  100 */\n      0x64\n        /* \"studentMarks.sol\":410:413  avg */\n      sload(0x05)\n        /* \"studentMarks.sol\":410:418  avg<=100 */\n      gt\n      iszero\n        /* \"studentMarks.sol\":410:429  avg<=100 && avg>=91 */\n      dup1\n      iszero\n      tag_33\n      jumpi\n      pop\n        /* \"studentMarks.sol\":427:429  91 */\n      0x5b\n        /* \"studentMarks.sol\":422:425  avg */\n      sload(0x05)\n        /* \"studentMarks.sol\":422:429  avg>=91 */\n      lt\n      iszero\n        /* \"studentMarks.sol\":410:429  avg<=100 && avg>=91 */\n    tag_33:\n        /* \"studentMarks.sol\":406:738  if (avg<=100 && avg>=91){\r... */\n      iszero\n      tag_34\n      jumpi\n        /* \"studentMarks.sol\":445:454  grade='A' */\n      mload(0x40)\n      dup1\n      0x40\n      add\n      0x40\n      mstore\n      dup1\n      0x01\n      dup2\n      mstore\n      0x20\n      add\n      0x4100000000000000000000000000000000000000000000000000000000000000\n      dup2\n      mstore\n      pop\n        /* \"studentMarks.sol\":445:450  grade */\n      0x06\n        /* \"studentMarks.sol\":445:454  grade='A' */\n      swap1\n      dup1\n      mload\n      swap1\n      0x20\n      add\n      swap1\n      tag_35\n      swap3\n      swap2\n      swap1\n      tag_27\n      jump\t// in\n    tag_35:\n      pop\n        /* \"studentMarks.sol\":406:738  if (avg<=100 && avg>=91){\r... */\n      jump(tag_36)\n    tag_34:\n        /* \"studentMarks.sol\":490:492  90 */\n      0x5a\n        /* \"studentMarks.sol\":485:488  avg */\n      sload(0x05)\n        /* \"studentMarks.sol\":485:492  avg<=90 */\n      gt\n      iszero\n        /* \"studentMarks.sol\":485:503  avg<=90 && avg>=81 */\n      dup1\n      iszero\n      tag_37\n      jumpi\n      pop\n        /* \"studentMarks.sol\":501:503  81 */\n      0x51\n        /* \"studentMarks.sol\":496:499  avg */\n      sload(0x05)\n        /* \"studentMarks.sol\":496:503  avg>=81 */\n      lt\n      iszero\n        /* \"studentMarks.sol\":485:503  avg<=90 && avg>=81 */\n    tag_37:\n        /* \"studentMarks.sol\":481:738  if (avg<=90 && avg>=81){\r... */\n      iszero\n      tag_38\n      jumpi\n        /* \"studentMarks.sol\":519:528  grade='B' */\n      mload(0x40)\n      dup1\n      0x40\n      add\n      0x40\n      mstore\n      dup1\n      0x01\n      dup2\n      mstore\n      0x20\n      add\n      0x4200000000000000000000000000000000000000000000000000000000000000\n      dup2\n      mstore\n      pop\n        /* \"studentMarks.sol\":519:524  grade */\n      0x06\n        /* \"studentMarks.sol\":519:528  grade='B' */\n      swap1\n      dup1\n      mload\n      swap1\n      0x20\n      add\n      swap1\n      tag_39\n      swap3\n      swap2\n      swap1\n      tag_27\n      jump\t// in\n    tag_39:\n      pop\n        /* \"studentMarks.sol\":481:738  if (avg<=90 && avg>=81){\r... */\n      jump(tag_40)\n    tag_38:\n        /* \"studentMarks.sol\":564:566  80 */\n      0x50\n        /* \"studentMarks.sol\":559:562  avg */\n      sload(0x05)\n        /* \"studentMarks.sol\":559:566  avg<=80 */\n      gt\n      iszero\n        /* \"studentMarks.sol\":559:577  avg<=80 && avg>=71 */\n      dup1\n      iszero\n      tag_41\n      jumpi\n      pop\n        /* \"studentMarks.sol\":575:577  71 */\n      0x47\n        /* \"studentMarks.sol\":570:573  avg */\n      sload(0x05)\n        /* \"studentMarks.sol\":570:577  avg>=71 */\n      lt\n      iszero\n        /* \"studentMarks.sol\":559:577  avg<=80 && avg>=71 */\n    tag_41:\n        /* \"studentMarks.sol\":555:738  if (avg<=80 && avg>=71){\r... */\n      iszero\n      tag_42\n      jumpi\n        /* \"studentMarks.sol\":593:602  grade='C' */\n      mload(0x40)\n      dup1\n      0x40\n      add\n      0x40\n      mstore\n      dup1\n      0x01\n      dup2\n      mstore\n      0x20\n      add\n      0x4300000000000000000000000000000000000000000000000000000000000000\n      dup2\n      mstore\n      pop\n        /* \"studentMarks.sol\":593:598  grade */\n      0x06\n        /* \"studentMarks.sol\":593:602  grade='C' */\n      swap1\n      dup1\n      mload\n      swap1\n      0x20\n      add\n      swap1\n      tag_43\n      swap3\n      swap2\n      swap1\n      tag_27\n      jump\t// in\n    tag_43:\n      pop\n        /* \"studentMarks.sol\":555:738  if (avg<=80 && avg>=71){\r... */\n      jump(tag_44)\n    tag_42:\n        /* \"studentMarks.sol\":638:640  70 */\n      0x46\n        /* \"studentMarks.sol\":633:636  avg */\n      sload(0x05)\n        /* \"studentMarks.sol\":633:640  avg<=70 */\n      gt\n      iszero\n        /* \"studentMarks.sol\":633:651  avg<=70 && avg>=61 */\n      dup1\n      iszero\n      tag_45\n      jumpi\n      pop\n        /* \"studentMarks.sol\":649:651  61 */\n      0x3d\n        /* \"studentMarks.sol\":644:647  avg */\n      sload(0x05)\n        /* \"studentMarks.sol\":644:651  avg>=61 */\n      lt\n      iszero\n        /* \"studentMarks.sol\":633:651  avg<=70 && avg>=61 */\n    tag_45:\n        /* \"studentMarks.sol\":629:738  if (avg<=70 && avg>=61){\r... */\n      iszero\n      tag_46\n      jumpi\n        /* \"studentMarks.sol\":667:676  grade='D' */\n      mload(0x40)\n      dup1\n      0x40\n      add\n      0x40\n      mstore\n      dup1\n      0x01\n      dup2\n      mstore\n      0x20\n      add\n      0x4400000000000000000000000000000000000000000000000000000000000000\n      dup2\n      mstore\n      pop\n        /* \"studentMarks.sol\":667:672  grade */\n      0x06\n        /* \"studentMarks.sol\":667:676  grade='D' */\n      swap1\n      dup1\n      mload\n      swap1\n      0x20\n      add\n      swap1\n      tag_47\n      swap3\n      swap2\n      swap1\n      tag_27\n      jump\t// in\n    tag_47:\n      pop\n        /* \"studentMarks.sol\":629:738  if (avg<=70 && avg>=61){\r... */\n      jump(tag_48)\n    tag_46:\n        /* \"studentMarks.sol\":717:726  grade='U' */\n      mload(0x40)\n      dup1\n      0x40\n      add\n      0x40\n      mstore\n      dup1\n      0x01\n      dup2\n      mstore\n      0x20\n      add\n      0x5500000000000000000000000000000000000000000000000000000000000000\n      dup2\n      mstore\n      pop\n        /* \"studentMarks.sol\":717:722  grade */\n      0x06\n        /* \"studentMarks.sol\":717:726  grade='U' */\n      swap1\n      dup1\n      mload\n      swap1\n      0x20\n      add\n      swap1\n      tag_49\n      swap3\n      swap2\n      swap1\n      tag_27\n      jump\t// in\n    tag_49:\n      pop\n        /* \"studentMarks.sol\":629:738  if (avg<=70 && avg>=61){\r... */\n    tag_48:\n        /* \"studentMarks.sol\":555:738  if (avg<=80 && avg>=71){\r... */\n    tag_44:\n        /* \"studentMarks.sol\":481:738  if (avg<=90 && avg>=81){\r... */\n    tag_40:\n        /* \"studentMarks.sol\":406:738  if (avg<=100 && avg>=91){\r... */\n    tag_36:\n        /* \"studentMarks.sol\":210:747  function addUser(string memory a, uint b, uint c, uint d )public{\r... */\n      pop\n      pop\n      pop\n      pop\n      jump\t// out\n    tag_27:\n      dup3\n      dup1\n      sload\n      tag_50\n      swap1\n      tag_15\n      jump\t// in\n    tag_50:\n      swap1\n      0x00\n      mstore\n      keccak256(0x00, 0x20)\n      swap1\n      0x1f\n      add\n      0x20\n      swap1\n      div\n      dup2\n      add\n      swap3\n      dup3\n      tag_52\n      jumpi\n      0x00\n      dup6\n      sstore\n      jump(tag_51)\n    tag_52:\n      dup3\n      0x1f\n      lt\n      tag_53\n      jumpi\n      dup1\n      mload\n      not(0xff)\n      and\n      dup4\n      dup1\n      add\n      or\n      dup6\n      sstore\n      jump(tag_51)\n    tag_53:\n      dup3\n      dup1\n      add\n      0x01\n      add\n      dup6\n      sstore\n      dup3\n      iszero\n      tag_51\n      jumpi\n      swap2\n      dup3\n      add\n    tag_54:\n      dup3\n      dup2\n      gt\n      iszero\n      tag_55\n      jumpi\n      dup3\n      mload\n      dup3\n      sstore\n      swap2\n      0x20\n      add\n      swap2\n      swap1\n      0x01\n      add\n      swap1\n      jump(tag_54)\n    tag_55:\n    tag_51:\n      pop\n      swap1\n      pop\n      tag_56\n      swap2\n      swap1\n      tag_57\n      jump\t// in\n    tag_56:\n      pop\n      swap1\n      jump\t// out\n    tag_57:\n    tag_58:\n      dup1\n      dup3\n      gt\n      iszero\n      tag_59\n      jumpi\n      0x00\n      dup2\n      0x00\n      swap1\n      sstore\n      pop\n      0x01\n      add\n      jump(tag_58)\n    tag_59:\n      pop\n      swap1\n      jump\t// out\n        /* \"#utility.yul\":7:419   */\n    tag_61:\n        /* \"#utility.yul\":85:90   */\n      0x00\n        /* \"#utility.yul\":110:176   */\n      tag_63\n        /* \"#utility.yul\":126:175   */\n      tag_64\n        /* \"#utility.yul\":168:174   */\n      dup5\n        /* \"#utility.yul\":126:175   */\n      tag_65\n      jump\t// in\n    tag_64:\n        /* \"#utility.yul\":110:176   */\n      tag_66\n      jump\t// in\n    tag_63:\n        /* \"#utility.yul\":101:176   */\n      swap1\n      pop\n        /* \"#utility.yul\":199:205   */\n      dup3\n        /* \"#utility.yul\":192:197   */\n      dup2\n        /* \"#utility.yul\":185:206   */\n      mstore\n        /* \"#utility.yul\":237:241   */\n      0x20\n        /* \"#utility.yul\":230:235   */\n      dup2\n        /* \"#utility.yul\":226:242   */\n      add\n        /* \"#utility.yul\":275:278   */\n      dup5\n        /* \"#utility.yul\":266:272   */\n      dup5\n        /* \"#utility.yul\":261:264   */\n      dup5\n        /* \"#utility.yul\":257:273   */\n      add\n        /* \"#utility.yul\":254:279   */\n      gt\n        /* \"#utility.yul\":251:363   */\n      iszero\n      tag_67\n      jumpi\n        /* \"#utility.yul\":282:361   */\n      tag_68\n      tag_69\n      jump\t// in\n    tag_68:\n        /* \"#utility.yul\":251:363   */\n    tag_67:\n        /* \"#utility.yul\":372:413   */\n      tag_70\n        /* \"#utility.yul\":406:412   */\n      dup5\n        /* \"#utility.yul\":401:404   */\n      dup3\n        /* \"#utility.yul\":396:399   */\n      dup6\n        /* \"#utility.yul\":372:413   */\n      tag_71\n      jump\t// in\n    tag_70:\n        /* \"#utility.yul\":91:419   */\n      pop\n        /* \"#utility.yul\":7:419   */\n      swap4\n      swap3\n      pop\n      pop\n      pop\n      jump\t// out\n        /* \"#utility.yul\":439:779   */\n    tag_72:\n        /* \"#utility.yul\":495:500   */\n      0x00\n        /* \"#utility.yul\":544:547   */\n      dup3\n        /* \"#utility.yul\":537:541   */\n      0x1f\n        /* \"#utility.yul\":529:535   */\n      dup4\n        /* \"#utility.yul\":525:542   */\n      add\n        /* \"#utility.yul\":521:548   */\n      slt\n        /* \"#utility.yul\":511:633   */\n      tag_74\n      jumpi\n        /* \"#utility.yul\":552:631   */\n      tag_75\n      tag_76\n      jump\t// in\n    tag_75:\n        /* \"#utility.yul\":511:633   */\n    tag_74:\n        /* \"#utility.yul\":669:675   */\n      dup2\n        /* \"#utility.yul\":656:676   */\n      calldataload\n        /* \"#utility.yul\":694:773   */\n      tag_77\n        /* \"#utility.yul\":769:772   */\n      dup5\n        /* \"#utility.yul\":761:767   */\n      dup3\n        /* \"#utility.yul\":754:758   */\n      0x20\n        /* \"#utility.yul\":746:752   */\n      dup7\n        /* \"#utility.yul\":742:759   */\n      add\n        /* \"#utility.yul\":694:773   */\n      tag_61\n      jump\t// in\n    tag_77:\n        /* \"#utility.yul\":685:773   */\n      swap2\n      pop\n        /* \"#utility.yul\":501:779   */\n      pop\n        /* \"#utility.yul\":439:779   */\n      swap3\n      swap2\n      pop\n      pop\n      jump\t// out\n        /* \"#utility.yul\":785:924   */\n    tag_78:\n        /* \"#utility.yul\":831:836   */\n      0x00\n        /* \"#utility.yul\":869:875   */\n      dup2\n        /* \"#utility.yul\":856:876   */\n      calldataload\n        /* \"#utility.yul\":847:876   */\n      swap1\n      pop\n        /* \"#utility.yul\":885:918   */\n      tag_80\n        /* \"#utility.yul\":912:917   */\n      dup2\n        /* \"#utility.yul\":885:918   */\n      tag_81\n      jump\t// in\n    tag_80:\n        /* \"#utility.yul\":785:924   */\n      swap3\n      swap2\n      pop\n      pop\n      jump\t// out\n        /* \"#utility.yul\":930:1875   */\n    tag_11:\n        /* \"#utility.yul\":1026:1032   */\n      0x00\n        /* \"#utility.yul\":1034:1040   */\n      dup1\n        /* \"#utility.yul\":1042:1048   */\n      0x00\n        /* \"#utility.yul\":1050:1056   */\n      dup1\n        /* \"#utility.yul\":1099:1102   */\n      0x80\n        /* \"#utility.yul\":1087:1096   */\n      dup6\n        /* \"#utility.yul\":1078:1085   */\n      dup8\n        /* \"#utility.yul\":1074:1097   */\n      sub\n        /* \"#utility.yul\":1070:1103   */\n      slt\n        /* \"#utility.yul\":1067:1187   */\n      iszero\n      tag_83\n      jumpi\n        /* \"#utility.yul\":1106:1185   */\n      tag_84\n      tag_85\n      jump\t// in\n    tag_84:\n        /* \"#utility.yul\":1067:1187   */\n    tag_83:\n        /* \"#utility.yul\":1254:1255   */\n      0x00\n        /* \"#utility.yul\":1243:1252   */\n      dup6\n        /* \"#utility.yul\":1239:1256   */\n      add\n        /* \"#utility.yul\":1226:1257   */\n      calldataload\n        /* \"#utility.yul\":1284:1302   */\n      0xffffffffffffffff\n        /* \"#utility.yul\":1276:1282   */\n      dup2\n        /* \"#utility.yul\":1273:1303   */\n      gt\n        /* \"#utility.yul\":1270:1387   */\n      iszero\n      tag_86\n      jumpi\n        /* \"#utility.yul\":1306:1385   */\n      tag_87\n      tag_88\n      jump\t// in\n    tag_87:\n        /* \"#utility.yul\":1270:1387   */\n    tag_86:\n        /* \"#utility.yul\":1411:1474   */\n      tag_89\n        /* \"#utility.yul\":1466:1473   */\n      dup8\n        /* \"#utility.yul\":1457:1463   */\n      dup3\n        /* \"#utility.yul\":1446:1455   */\n      dup9\n        /* \"#utility.yul\":1442:1464   */\n      add\n        /* \"#utility.yul\":1411:1474   */\n      tag_72\n      jump\t// in\n    tag_89:\n        /* \"#utility.yul\":1401:1474   */\n      swap5\n      pop\n        /* \"#utility.yul\":1197:1484   */\n      pop\n        /* \"#utility.yul\":1523:1525   */\n      0x20\n        /* \"#utility.yul\":1549:1602   */\n      tag_90\n        /* \"#utility.yul\":1594:1601   */\n      dup8\n        /* \"#utility.yul\":1585:1591   */\n      dup3\n        /* \"#utility.yul\":1574:1583   */\n      dup9\n        /* \"#utility.yul\":1570:1592   */\n      add\n        /* \"#utility.yul\":1549:1602   */\n      tag_78\n      jump\t// in\n    tag_90:\n        /* \"#utility.yul\":1539:1602   */\n      swap4\n      pop\n        /* \"#utility.yul\":1494:1612   */\n      pop\n        /* \"#utility.yul\":1651:1653   */\n      0x40\n        /* \"#utility.yul\":1677:1730   */\n      tag_91\n        /* \"#utility.yul\":1722:1729   */\n      dup8\n        /* \"#utility.yul\":1713:1719   */\n      dup3\n        /* \"#utility.yul\":1702:1711   */\n      dup9\n        /* \"#utility.yul\":1698:1720   */\n      add\n        /* \"#utility.yul\":1677:1730   */\n      tag_78\n      jump\t// in\n    tag_91:\n        /* \"#utility.yul\":1667:1730   */\n      swap3\n      pop\n        /* \"#utility.yul\":1622:1740   */\n      pop\n        /* \"#utility.yul\":1779:1781   */\n      0x60\n        /* \"#utility.yul\":1805:1858   */\n      tag_92\n        /* \"#utility.yul\":1850:1857   */\n      dup8\n        /* \"#utility.yul\":1841:1847   */\n      dup3\n        /* \"#utility.yul\":1830:1839   */\n      dup9\n        /* \"#utility.yul\":1826:1848   */\n      add\n        /* \"#utility.yul\":1805:1858   */\n      tag_78\n      jump\t// in\n    tag_92:\n        /* \"#utility.yul\":1795:1858   */\n      swap2\n      pop\n        /* \"#utility.yul\":1750:1868   */\n      pop\n        /* \"#utility.yul\":930:1875   */\n      swap3\n      swap6\n      swap2\n      swap5\n      pop\n      swap3\n      pop\n      jump\t// out\n        /* \"#utility.yul\":1881:2245   */\n    tag_93:\n        /* \"#utility.yul\":1969:1972   */\n      0x00\n        /* \"#utility.yul\":1997:2036   */\n      tag_95\n        /* \"#utility.yul\":2030:2035   */\n      dup3\n        /* \"#utility.yul\":1997:2036   */\n      tag_96\n      jump\t// in\n    tag_95:\n        /* \"#utility.yul\":2052:2123   */\n      tag_97\n        /* \"#utility.yul\":2116:2122   */\n      dup2\n        /* \"#utility.yul\":2111:2114   */\n      dup6\n        /* \"#utility.yul\":2052:2123   */\n      tag_98\n      jump\t// in\n    tag_97:\n        /* \"#utility.yul\":2045:2123   */\n      swap4\n      pop\n        /* \"#utility.yul\":2132:2184   */\n      tag_99\n        /* \"#utility.yul\":2177:2183   */\n      dup2\n        /* \"#utility.yul\":2172:2175   */\n      dup6\n        /* \"#utility.yul\":2165:2169   */\n      0x20\n        /* \"#utility.yul\":2158:2163   */\n      dup7\n        /* \"#utility.yul\":2154:2170   */\n      add\n        /* \"#utility.yul\":2132:2184   */\n      tag_100\n      jump\t// in\n    tag_99:\n        /* \"#utility.yul\":2209:2238   */\n      tag_101\n        /* \"#utility.yul\":2231:2237   */\n      dup2\n        /* \"#utility.yul\":2209:2238   */\n      tag_102\n      jump\t// in\n    tag_101:\n        /* \"#utility.yul\":2204:2207   */\n      dup5\n        /* \"#utility.yul\":2200:2239   */\n      add\n        /* \"#utility.yul\":2193:2239   */\n      swap2\n      pop\n        /* \"#utility.yul\":1973:2245   */\n      pop\n        /* \"#utility.yul\":1881:2245   */\n      swap3\n      swap2\n      pop\n      pop\n      jump\t// out\n        /* \"#utility.yul\":2251:2369   */\n    tag_103:\n        /* \"#utility.yul\":2338:2362   */\n      tag_105\n        /* \"#utility.yul\":2356:2361   */\n      dup2\n        /* \"#utility.yul\":2338:2362   */\n      tag_106\n      jump\t// in\n    tag_105:\n        /* \"#utility.yul\":2333:2336   */\n      dup3\n        /* \"#utility.yul\":2326:2363   */\n      mstore\n        /* \"#utility.yul\":2251:2369   */\n      pop\n      pop\n      jump\t// out\n        /* \"#utility.yul\":2375:3332   */\n    tag_8:\n        /* \"#utility.yul\":2648:2652   */\n      0x00\n        /* \"#utility.yul\":2686:2689   */\n      0xc0\n        /* \"#utility.yul\":2675:2684   */\n      dup3\n        /* \"#utility.yul\":2671:2690   */\n      add\n        /* \"#utility.yul\":2663:2690   */\n      swap1\n      pop\n        /* \"#utility.yul\":2736:2745   */\n      dup2\n        /* \"#utility.yul\":2730:2734   */\n      dup2\n        /* \"#utility.yul\":2726:2746   */\n      sub\n        /* \"#utility.yul\":2722:2723   */\n      0x00\n        /* \"#utility.yul\":2711:2720   */\n      dup4\n        /* \"#utility.yul\":2707:2724   */\n      add\n        /* \"#utility.yul\":2700:2747   */\n      mstore\n        /* \"#utility.yul\":2764:2842   */\n      tag_108\n        /* \"#utility.yul\":2837:2841   */\n      dup2\n        /* \"#utility.yul\":2828:2834   */\n      dup10\n        /* \"#utility.yul\":2764:2842   */\n      tag_93\n      jump\t// in\n    tag_108:\n        /* \"#utility.yul\":2756:2842   */\n      swap1\n      pop\n        /* \"#utility.yul\":2852:2924   */\n      tag_109\n        /* \"#utility.yul\":2920:2922   */\n      0x20\n        /* \"#utility.yul\":2909:2918   */\n      dup4\n        /* \"#utility.yul\":2905:2923   */\n      add\n        /* \"#utility.yul\":2896:2902   */\n      dup9\n        /* \"#utility.yul\":2852:2924   */\n      tag_103\n      jump\t// in\n    tag_109:\n        /* \"#utility.yul\":2934:3006   */\n      tag_110\n        /* \"#utility.yul\":3002:3004   */\n      0x40\n        /* \"#utility.yul\":2991:3000   */\n      dup4\n        /* \"#utility.yul\":2987:3005   */\n      add\n        /* \"#utility.yul\":2978:2984   */\n      dup8\n        /* \"#utility.yul\":2934:3006   */\n      tag_103\n      jump\t// in\n    tag_110:\n        /* \"#utility.yul\":3016:3088   */\n      tag_111\n        /* \"#utility.yul\":3084:3086   */\n      0x60\n        /* \"#utility.yul\":3073:3082   */\n      dup4\n        /* \"#utility.yul\":3069:3087   */\n      add\n        /* \"#utility.yul\":3060:3066   */\n      dup7\n        /* \"#utility.yul\":3016:3088   */\n      tag_103\n      jump\t// in\n    tag_111:\n        /* \"#utility.yul\":3098:3171   */\n      tag_112\n        /* \"#utility.yul\":3166:3169   */\n      0x80\n        /* \"#utility.yul\":3155:3164   */\n      dup4\n        /* \"#utility.yul\":3151:3170   */\n      add\n        /* \"#utility.yul\":3142:3148   */\n      dup6\n        /* \"#utility.yul\":3098:3171   */\n      tag_103\n      jump\t// in\n    tag_112:\n        /* \"#utility.yul\":3219:3228   */\n      dup2\n        /* \"#utility.yul\":3213:3217   */\n      dup2\n        /* \"#utility.yul\":3209:3229   */\n      sub\n        /* \"#utility.yul\":3203:3206   */\n      0xa0\n        /* \"#utility.yul\":3192:3201   */\n      dup4\n        /* \"#utility.yul\":3188:3207   */\n      add\n        /* \"#utility.yul\":3181:3230   */\n      mstore\n        /* \"#utility.yul\":3247:3325   */\n      tag_113\n        /* \"#utility.yul\":3320:3324   */\n      dup2\n        /* \"#utility.yul\":3311:3317   */\n      dup5\n        /* \"#utility.yul\":3247:3325   */\n      tag_93\n      jump\t// in\n    tag_113:\n        /* \"#utility.yul\":3239:3325   */\n      swap1\n      pop\n        /* \"#utility.yul\":2375:3332   */\n      swap8\n      swap7\n      pop\n      pop\n      pop\n      pop\n      pop\n      pop\n      pop\n      jump\t// out\n        /* \"#utility.yul\":3338:3467   */\n    tag_66:\n        /* \"#utility.yul\":3372:3378   */\n      0x00\n        /* \"#utility.yul\":3399:3419   */\n      tag_115\n      tag_116\n      jump\t// in\n    tag_115:\n        /* \"#utility.yul\":3389:3419   */\n      swap1\n      pop\n        /* \"#utility.yul\":3428:3461   */\n      tag_117\n        /* \"#utility.yul\":3456:3460   */\n      dup3\n        /* \"#utility.yul\":3448:3454   */\n      dup3\n        /* \"#utility.yul\":3428:3461   */\n      tag_118\n      jump\t// in\n    tag_117:\n        /* \"#utility.yul\":3338:3467   */\n      swap2\n      swap1\n      pop\n      jump\t// out\n        /* \"#utility.yul\":3473:3548   */\n    tag_116:\n        /* \"#utility.yul\":3506:3512   */\n      0x00\n        /* \"#utility.yul\":3539:3541   */\n      0x40\n        /* \"#utility.yul\":3533:3542   */\n      mload\n        /* \"#utility.yul\":3523:3542   */\n      swap1\n      pop\n        /* \"#utility.yul\":3473:3548   */\n      swap1\n      jump\t// out\n        /* \"#utility.yul\":3554:3862   */\n    tag_65:\n        /* \"#utility.yul\":3616:3620   */\n      0x00\n        /* \"#utility.yul\":3706:3724   */\n      0xffffffffffffffff\n        /* \"#utility.yul\":3698:3704   */\n      dup3\n        /* \"#utility.yul\":3695:3725   */\n      gt\n        /* \"#utility.yul\":3692:3748   */\n      iszero\n      tag_121\n      jumpi\n        /* \"#utility.yul\":3728:3746   */\n      tag_122\n      tag_123\n      jump\t// in\n    tag_122:\n        /* \"#utility.yul\":3692:3748   */\n    tag_121:\n        /* \"#utility.yul\":3766:3795   */\n      tag_124\n        /* \"#utility.yul\":3788:3794   */\n      dup3\n        /* \"#utility.yul\":3766:3795   */\n      tag_102\n      jump\t// in\n    tag_124:\n        /* \"#utility.yul\":3758:3795   */\n      swap1\n      pop\n        /* \"#utility.yul\":3850:3854   */\n      0x20\n        /* \"#utility.yul\":3844:3848   */\n      dup2\n        /* \"#utility.yul\":3840:3855   */\n      add\n        /* \"#utility.yul\":3832:3855   */\n      swap1\n      pop\n        /* \"#utility.yul\":3554:3862   */\n      swap2\n      swap1\n      pop\n      jump\t// out\n        /* \"#utility.yul\":3868:3967   */\n    tag_96:\n        /* \"#utility.yul\":3920:3926   */\n      0x00\n        /* \"#utility.yul\":3954:3959   */\n      dup2\n        /* \"#utility.yul\":3948:3960   */\n      mload\n        /* \"#utility.yul\":3938:3960   */\n      swap1\n      pop\n        /* \"#utility.yul\":3868:3967   */\n      swap2\n      swap1\n      pop\n      jump\t// out\n        /* \"#utility.yul\":3973:4142   */\n    tag_98:\n        /* \"#utility.yul\":4057:4068   */\n      0x00\n        /* \"#utility.yul\":4091:4097   */\n      dup3\n        /* \"#utility.yul\":4086:4089   */\n      dup3\n        /* \"#utility.yul\":4079:4098   */\n      mstore\n        /* \"#utility.yul\":4131:4135   */\n      0x20\n        /* \"#utility.yul\":4126:4129   */\n      dup3\n        /* \"#utility.yul\":4122:4136   */\n      add\n        /* \"#utility.yul\":4107:4136   */\n      swap1\n      pop\n        /* \"#utility.yul\":3973:4142   */\n      swap3\n      swap2\n      pop\n      pop\n      jump\t// out\n        /* \"#utility.yul\":4148:4453   */\n    tag_29:\n        /* \"#utility.yul\":4188:4191   */\n      0x00\n        /* \"#utility.yul\":4207:4227   */\n      tag_128\n        /* \"#utility.yul\":4225:4226   */\n      dup3\n        /* \"#utility.yul\":4207:4227   */\n      tag_106\n      jump\t// in\n    tag_128:\n        /* \"#utility.yul\":4202:4227   */\n      swap2\n      pop\n        /* \"#utility.yul\":4241:4261   */\n      tag_129\n        /* \"#utility.yul\":4259:4260   */\n      dup4\n        /* \"#utility.yul\":4241:4261   */\n      tag_106\n      jump\t// in\n    tag_129:\n        /* \"#utility.yul\":4236:4261   */\n      swap3\n      pop\n        /* \"#utility.yul\":4395:4396   */\n      dup3\n        /* \"#utility.yul\":4327:4393   */\n      0xffffffffffffffffffffffffffffffffffffffffffffffffffffffffffffffff\n        /* \"#utility.yul\":4323:4397   */\n      sub\n        /* \"#utility.yul\":4320:4321   */\n      dup3\n        /* \"#utility.yul\":4317:4398   */\n      gt\n        /* \"#utility.yul\":4314:4421   */\n      iszero\n      tag_130\n      jumpi\n        /* \"#utility.yul\":4401:4419   */\n      tag_131\n      tag_132\n      jump\t// in\n    tag_131:\n        /* \"#utility.yul\":4314:4421   */\n    tag_130:\n        /* \"#utility.yul\":4445:4446   */\n      dup3\n        /* \"#utility.yul\":4442:4443   */\n      dup3\n        /* \"#utility.yul\":4438:4447   */\n      add\n        /* \"#utility.yul\":4431:4447   */\n      swap1\n      pop\n        /* \"#utility.yul\":4148:4453   */\n      swap3\n      swap2\n      pop\n      pop\n      jump\t// out\n        /* \"#utility.yul\":4459:4644   */\n    tag_32:\n        /* \"#utility.yul\":4499:4500   */\n      0x00\n        /* \"#utility.yul\":4516:4536   */\n      tag_134\n        /* \"#utility.yul\":4534:4535   */\n      dup3\n        /* \"#utility.yul\":4516:4536   */\n      tag_106\n      jump\t// in\n    tag_134:\n        /* \"#utility.yul\":4511:4536   */\n      swap2\n      pop\n        /* \"#utility.yul\":4550:4570   */\n      tag_135\n        /* \"#utility.yul\":4568:4569   */\n      dup4\n        /* \"#utility.yul\":4550:4570   */\n      tag_106\n      jump\t// in\n    tag_135:\n        /* \"#utility.yul\":4545:4570   */\n      swap3\n      pop\n        /* \"#utility.yul\":4589:4590   */\n      dup3\n        /* \"#utility.yul\":4579:4614   */\n      tag_136\n      jumpi\n        /* \"#utility.yul\":4594:4612   */\n      tag_137\n      tag_138\n      jump\t// in\n    tag_137:\n        /* \"#utility.yul\":4579:4614   */\n    tag_136:\n        /* \"#utility.yul\":4636:4637   */\n      dup3\n        /* \"#utility.yul\":4633:4634   */\n      dup3\n        /* \"#utility.yul\":4629:4638   */\n      div\n        /* \"#utility.yul\":4624:4638   */\n      swap1\n      pop\n        /* \"#utility.yul\":4459:4644   */\n      swap3\n      swap2\n      pop\n      pop\n      jump\t// out\n        /* \"#utility.yul\":4650:4727   */\n    tag_106:\n        /* \"#utility.yul\":4687:4694   */\n      0x00\n        /* \"#utility.yul\":4716:4721   */\n      dup2\n        /* \"#utility.yul\":4705:4721   */\n      swap1\n      pop\n        /* \"#utility.yul\":4650:4727   */\n      swap2\n      swap1\n      pop\n      jump\t// out\n        /* \"#utility.yul\":4733:4887   */\n    tag_71:\n        /* \"#utility.yul\":4817:4823   */\n      dup3\n        /* \"#utility.yul\":4812:4815   */\n      dup2\n        /* \"#utility.yul\":4807:4810   */\n      dup4\n        /* \"#utility.yul\":4794:4824   */\n      calldatacopy\n        /* \"#utility.yul\":4879:4880   */\n      0x00\n        /* \"#utility.yul\":4870:4876   */\n      dup4\n        /* \"#utility.yul\":4865:4868   */\n      dup4\n        /* \"#utility.yul\":4861:4877   */\n      add\n        /* \"#utility.yul\":4854:4881   */\n      mstore\n        /* \"#utility.yul\":4733:4887   */\n      pop\n      pop\n      pop\n      jump\t// out\n        /* \"#utility.yul\":4893:5200   */\n    tag_100:\n        /* \"#utility.yul\":4961:4962   */\n      0x00\n        /* \"#utility.yul\":4971:5084   */\n    tag_142:\n        /* \"#utility.yul\":4985:4991   */\n      dup4\n        /* \"#utility.yul\":4982:4983   */\n      dup2\n        /* \"#utility.yul\":4979:4992   */\n      lt\n        /* \"#utility.yul\":4971:5084   */\n      iszero\n      tag_144\n      jumpi\n        /* \"#utility.yul\":5070:5071   */\n      dup1\n        /* \"#utility.yul\":5065:5068   */\n      dup3\n        /* \"#utility.yul\":5061:5072   */\n      add\n        /* \"#utility.yul\":5055:5073   */\n      mload\n        /* \"#utility.yul\":5051:5052   */\n      dup2\n        /* \"#utility.yul\":5046:5049   */\n      dup5\n        /* \"#utility.yul\":5042:5053   */\n      add\n        /* \"#utility.yul\":5035:5074   */\n      mstore\n        /* \"#utility.yul\":5007:5009   */\n      0x20\n        /* \"#utility.yul\":5004:5005   */\n      dup2\n        /* \"#utility.yul\":5000:5010   */\n      add\n        /* \"#utility.yul\":4995:5010   */\n      swap1\n      pop\n        /* \"#utility.yul\":4971:5084   */\n      jump(tag_142)\n    tag_144:\n        /* \"#utility.yul\":5102:5108   */\n      dup4\n        /* \"#utility.yul\":5099:5100   */\n      dup2\n        /* \"#utility.yul\":5096:5109   */\n      gt\n        /* \"#utility.yul\":5093:5194   */\n      iszero\n      tag_145\n      jumpi\n        /* \"#utility.yul\":5182:5183   */\n      0x00\n        /* \"#utility.yul\":5173:5179   */\n      dup5\n        /* \"#utility.yul\":5168:5171   */\n      dup5\n        /* \"#utility.yul\":5164:5180   */\n      add\n        /* \"#utility.yul\":5157:5184   */\n      mstore\n        /* \"#utility.yul\":5093:5194   */\n    tag_145:\n        /* \"#utility.yul\":4942:5200   */\n      pop\n        /* \"#utility.yul\":4893:5200   */\n      pop\n      pop\n      pop\n      jump\t// out\n        /* \"#utility.yul\":5206:5526   */\n    tag_15:\n        /* \"#utility.yul\":5250:5256   */\n      0x00\n        /* \"#utility.yul\":5287:5288   */\n      0x02\n        /* \"#utility.yul\":5281:5285   */\n      dup3\n        /* \"#utility.yul\":5277:5289   */\n      div\n        /* \"#utility.yul\":5267:5289   */\n      swap1\n      pop\n        /* \"#utility.yul\":5334:5335   */\n      0x01\n        /* \"#utility.yul\":5328:5332   */\n      dup3\n        /* \"#utility.yul\":5324:5336   */\n      and\n        /* \"#utility.yul\":5355:5373   */\n      dup1\n        /* \"#utility.yul\":5345:5426   */\n      tag_147\n      jumpi\n        /* \"#utility.yul\":5411:5415   */\n      0x7f\n        /* \"#utility.yul\":5403:5409   */\n      dup3\n        /* \"#utility.yul\":5399:5416   */\n      and\n        /* \"#utility.yul\":5389:5416   */\n      swap2\n      pop\n        /* \"#utility.yul\":5345:5426   */\n    tag_147:\n        /* \"#utility.yul\":5473:5475   */\n      0x20\n        /* \"#utility.yul\":5465:5471   */\n      dup3\n        /* \"#utility.yul\":5462:5476   */\n      lt\n        /* \"#utility.yul\":5442:5460   */\n      dup2\n        /* \"#utility.yul\":5439:5477   */\n      eq\n        /* \"#utility.yul\":5436:5520   */\n      iszero\n      tag_148\n      jumpi\n        /* \"#utility.yul\":5492:5510   */\n      tag_149\n      tag_150\n      jump\t// in\n    tag_149:\n        /* \"#utility.yul\":5436:5520   */\n    tag_148:\n        /* \"#utility.yul\":5257:5526   */\n      pop\n        /* \"#utility.yul\":5206:5526   */\n      swap2\n      swap1\n      pop\n      jump\t// out\n        /* \"#utility.yul\":5532:5813   */\n    tag_118:\n        /* \"#utility.yul\":5615:5642   */\n      tag_152\n        /* \"#utility.yul\":5637:5641   */\n      dup3\n        /* \"#utility.yul\":5615:5642   */\n      tag_102\n      jump\t// in\n    tag_152:\n        /* \"#utility.yul\":5607:5613   */\n      dup2\n        /* \"#utility.yul\":5603:5643   */\n      add\n        /* \"#utility.yul\":5745:5751   */\n      dup2\n        /* \"#utility.yul\":5733:5743   */\n      dup2\n        /* \"#utility.yul\":5730:5752   */\n      lt\n        /* \"#utility.yul\":5709:5727   */\n      0xffffffffffffffff\n        /* \"#utility.yul\":5697:5707   */\n      dup3\n        /* \"#utility.yul\":5694:5728   */\n      gt\n        /* \"#utility.yul\":5691:5753   */\n      or\n        /* \"#utility.yul\":5688:5776   */\n      iszero\n      tag_153\n      jumpi\n        /* \"#utility.yul\":5756:5774   */\n      tag_154\n      tag_123\n      jump\t// in\n    tag_154:\n        /* \"#utility.yul\":5688:5776   */\n    tag_153:\n        /* \"#utility.yul\":5796:5806   */\n      dup1\n        /* \"#utility.yul\":5792:5794   */\n      0x40\n        /* \"#utility.yul\":5785:5807   */\n      mstore\n        /* \"#utility.yul\":5575:5813   */\n      pop\n        /* \"#utility.yul\":5532:5813   */\n      pop\n      pop\n      jump\t// out\n        /* \"#utility.yul\":5819:5999   */\n    tag_132:\n        /* \"#utility.yul\":5867:5944   */\n      0x4e487b7100000000000000000000000000000000000000000000000000000000\n        /* \"#utility.yul\":5864:5865   */\n      0x00\n        /* \"#utility.yul\":5857:5945   */\n      mstore\n        /* \"#utility.yul\":5964:5968   */\n      0x11\n        /* \"#utility.yul\":5961:5962   */\n      0x04\n        /* \"#utility.yul\":5954:5969   */\n      mstore\n        /* \"#utility.yul\":5988:5992   */\n      0x24\n        /* \"#utility.yul\":5985:5986   */\n      0x00\n        /* \"#utility.yul\":5978:5993   */\n      revert\n        /* \"#utility.yul\":6005:6185   */\n    tag_138:\n        /* \"#utility.yul\":6053:6130   */\n      0x4e487b7100000000000000000000000000000000000000000000000000000000\n        /* \"#utility.yul\":6050:6051   */\n      0x00\n        /* \"#utility.yul\":6043:6131   */\n      mstore\n        /* \"#utility.yul\":6150:6154   */\n      0x12\n        /* \"#utility.yul\":6147:6148   */\n      0x04\n        /* \"#utility.yul\":6140:6155   */\n      mstore\n        /* \"#utility.yul\":6174:6178   */\n      0x24\n        /* \"#utility.yul\":6171:6172   */\n      0x00\n        /* \"#utility.yul\":6164:6179   */\n      revert\n        /* \"#utility.yul\":6191:6371   */\n    tag_150:\n        /* \"#utility.yul\":6239:6316   */\n      0x4e487b7100000000000000000000000000000000000000000000000000000000\n        /* \"#utility.yul\":6236:6237   */\n      0x00\n        /* \"#utility.yul\":6229:6317   */\n      mstore\n        /* \"#utility.yul\":6336:6340   */\n      0x22\n        /* \"#utility.yul\":6333:6334   */\n      0x04\n        /* \"#utility.yul\":6326:6341   */\n      mstore\n        /* \"#utility.yul\":6360:6364   */\n      0x24\n        /* \"#utility.yul\":6357:6358   */\n      0x00\n        /* \"#utility.yul\":6350:6365   */\n      revert\n        /* \"#utility.yul\":6377:6557   */\n    tag_123:\n        /* \"#utility.yul\":6425:6502   */\n      0x4e487b7100000000000000000000000000000000000000000000000000000000\n        /* \"#utility.yul\":6422:6423   */\n      0x00\n        /* \"#utility.yul\":6415:6503   */\n      mstore\n        /* \"#utility.yul\":6522:6526   */\n      0x41\n        /* \"#utility.yul\":6519:6520   */\n      0x04\n        /* \"#utility.yul\":6512:6527   */\n      mstore\n        /* \"#utility.yul\":6546:6550   */\n      0x24\n        /* \"#utility.yul\":6543:6544   */\n      0x00\n        /* \"#utility.yul\":6536:6551   */\n      revert\n        /* \"#utility.yul\":6563:6680   */\n    tag_76:\n        /* \"#utility.yul\":6672:6673   */\n      0x00\n        /* \"#utility.yul\":6669:6670   */\n      dup1\n        /* \"#utility.yul\":6662:6674   */\n      revert\n        /* \"#utility.yul\":6686:6803   */\n    tag_69:\n        /* \"#utility.yul\":6795:6796   */\n      0x00\n        /* \"#utility.yul\":6792:6793   */\n      dup1\n        /* \"#utility.yul\":6785:6797   */\n      revert\n        /* \"#utility.yul\":6809:6926   */\n    tag_88:\n        /* \"#utility.yul\":6918:6919   */\n      0x00\n        /* \"#utility.yul\":6915:6916   */\n      dup1\n        /* \"#utility.yul\":6908:6920   */\n      revert\n        /* \"#utility.yul\":6932:7049   */\n    tag_85:\n        /* \"#utility.yul\":7041:7042   */\n      0x00\n        /* \"#utility.yul\":7038:7039   */\n      dup1\n        /* \"#utility.yul\":7031:7043   */\n      revert\n        /* \"#utility.yul\":7055:7157   */\n    tag_102:\n        /* \"#utility.yul\":7096:7102   */\n      0x00\n        /* \"#utility.yul\":7147:7149   */\n      0x1f\n        /* \"#utility.yul\":7143:7150   */\n      not\n        /* \"#utility.yul\":7138:7140   */\n      0x1f\n        /* \"#utility.yul\":7131:7136   */\n      dup4\n        /* \"#utility.yul\":7127:7141   */\n      add\n        /* \"#utility.yul\":7123:7151   */\n      and\n        /* \"#utility.yul\":7113:7151   */\n      swap1\n      pop\n        /* \"#utility.yul\":7055:7157   */\n      swap2\n      swap1\n      pop\n      jump\t// out\n        /* \"#utility.yul\":7163:7285   */\n    tag_81:\n        /* \"#utility.yul\":7236:7260   */\n      tag_165\n        /* \"#utility.yul\":7254:7259   */\n      dup2\n        /* \"#utility.yul\":7236:7260   */\n      tag_106\n      jump\t// in\n    tag_165:\n        /* \"#utility.yul\":7229:7234   */\n      dup2\n        /* \"#utility.yul\":7226:7261   */\n      eq\n        /* \"#utility.yul\":7216:7279   */\n      tag_166\n      jumpi\n        /* \"#utility.yul\":7275:7276   */\n      0x00\n        /* \"#utility.yul\":7272:7273   */\n      dup1\n        /* \"#utility.yul\":7265:7277   */\n      revert\n        /* \"#utility.yul\":7216:7279   */\n    tag_166:\n        /* \"#utility.yul\":7163:7285   */\n      pop\n      jump\t// out\n\n    auxdata: 0xa26469706673582212208b73f39d3dfe667f8029be6cdba7290df61980e57c731807f22896fbdc32653b64736f6c63430008070033\n}\n",
				"bytecode": {
					"linkReferences": {},
					"object": "608060405234801561001057600080fd5b50610962806100206000396000f3fe608060405234801561001057600080fd5b50600436106100365760003560e01c80630c1b7c1e1461003b57806376b3d1611461005e575b600080fd5b61004361007a565b6040516100559695949392919061061d565b60405180910390f35b61007860048036038101906100739190610552565b6101c0565b005b60606000806000806060600060015460025460035460045460068580546100a0906107d1565b80601f01602080910402602001604051908101604052809291908181526020018280546100cc906107d1565b80156101195780601f106100ee57610100808354040283529160200191610119565b820191906000526020600020905b8154815290600101906020018083116100fc57829003601f168201915b5050505050955080805461012c906107d1565b80601f0160208091040260200160405190810160405280929190818152602001828054610158906107d1565b80156101a55780601f1061017a576101008083540402835291602001916101a5565b820191906000526020600020905b81548152906001019060200180831161018857829003601f168201915b50505050509050955095509550955095509550909192939495565b83600090805190602001906101d692919061042a565b508260018190555081600281905550806003819055506003546002546001546101ff91906106fe565b61020991906106fe565b600481905550600360045461021e9190610754565b60058190555060646005541115801561023a5750605b60055410155b15610290576040518060400160405280600181526020017f41000000000000000000000000000000000000000000000000000000000000008152506006908051906020019061028a92919061042a565b50610424565b605a600554111580156102a65750605160055410155b156102fc576040518060400160405280600181526020017f4200000000000000000000000000000000000000000000000000000000000000815250600690805190602001906102f692919061042a565b50610423565b6050600554111580156103125750604760055410155b15610368576040518060400160405280600181526020017f43000000000000000000000000000000000000000000000000000000000000008152506006908051906020019061036292919061042a565b50610422565b60466005541115801561037e5750603d60055410155b156103d4576040518060400160405280600181526020017f4400000000000000000000000000000000000000000000000000000000000000815250600690805190602001906103ce92919061042a565b50610421565b6040518060400160405280600181526020017f55000000000000000000000000000000000000000000000000000000000000008152506006908051906020019061041f92919061042a565b505b5b5b5b50505050565b828054610436906107d1565b90600052602060002090601f016020900481019282610458576000855561049f565b82601f1061047157805160ff191683800117855561049f565b8280016001018555821561049f579182015b8281111561049e578251825591602001919060010190610483565b5b5090506104ac91906104b0565b5090565b5b808211156104c95760008160009055506001016104b1565b5090565b60006104e06104db846106b1565b61068c565b9050828152602081018484840111156104fc576104fb6108f5565b5b61050784828561078f565b509392505050565b600082601f830112610524576105236108f0565b5b81356105348482602086016104cd565b91505092915050565b60008135905061054c81610915565b92915050565b6000806000806080858703121561056c5761056b6108ff565b5b600085013567ffffffffffffffff81111561058a576105896108fa565b5b6105968782880161050f565b94505060206105a78782880161053d565b93505060406105b88782880161053d565b92505060606105c98782880161053d565b91505092959194509250565b60006105e0826106e2565b6105ea81856106ed565b93506105fa81856020860161079e565b61060381610904565b840191505092915050565b61061781610785565b82525050565b600060c082019050818103600083015261063781896105d5565b9050610646602083018861060e565b610653604083018761060e565b610660606083018661060e565b61066d608083018561060e565b81810360a083015261067f81846105d5565b9050979650505050505050565b60006106966106a7565b90506106a28282610803565b919050565b6000604051905090565b600067ffffffffffffffff8211156106cc576106cb6108c1565b5b6106d582610904565b9050602081019050919050565b600081519050919050565b600082825260208201905092915050565b600061070982610785565b915061071483610785565b9250827fffffffffffffffffffffffffffffffffffffffffffffffffffffffffffffffff0382111561074957610748610834565b5b828201905092915050565b600061075f82610785565b915061076a83610785565b92508261077a57610779610863565b5b828204905092915050565b6000819050919050565b82818337600083830152505050565b60005b838110156107bc5780820151818401526020810190506107a1565b838111156107cb576000848401525b50505050565b600060028204905060018216806107e957607f821691505b602082108114156107fd576107fc610892565b5b50919050565b61080c82610904565b810181811067ffffffffffffffff8211171561082b5761082a6108c1565b5b80604052505050565b7f4e487b7100000000000000000000000000000000000000000000000000000000600052601160045260246000fd5b7f4e487b7100000000000000000000000000000000000000000000000000000000600052601260045260246000fd5b7f4e487b7100000000000000000000000000000000000000000000000000000000600052602260045260246000fd5b7f4e487b7100000000000000000000000000000000000000000000000000000000600052604160045260246000fd5b600080fd5b600080fd5b600080fd5b600080fd5b6000601f19601f8301169050919050565b61091e81610785565b811461092957600080fd5b5056fea26469706673582212208b73f39d3dfe667f8029be6cdba7290df61980e57c731807f22896fbdc32653b64736f6c63430008070033",
					"opcodes": "PUSH1 0x80 PUSH1 0x40 MSTORE CALLVALUE DUP1 ISZERO PUSH2 0x10 JUMPI PUSH1 0x0 DUP1 REVERT JUMPDEST POP PUSH2 0x962 DUP1 PUSH2 0x20 PUSH1 0x0 CODECOPY PUSH1 0x0 RETURN INVALID PUSH1 0x80 PUSH1 0x40 MSTORE CALLVALUE DUP1 ISZERO PUSH2 0x10 JUMPI PUSH1 0x0 DUP1 REVERT JUMPDEST POP PUSH1 0x4 CALLDATASIZE LT PUSH2 0x36 JUMPI PUSH1 0x0 CALLDATALOAD PUSH1 0xE0 SHR DUP1 PUSH4 0xC1B7C1E EQ PUSH2 0x3B JUMPI DUP1 PUSH4 0x76B3D161 EQ PUSH2 0x5E JUMPI JUMPDEST PUSH1 0x0 DUP1 REVERT JUMPDEST PUSH2 0x43 PUSH2 0x7A JUMP JUMPDEST PUSH1 0x40 MLOAD PUSH2 0x55 SWAP7 SWAP6 SWAP5 SWAP4 SWAP3 SWAP2 SWAP1 PUSH2 0x61D JUMP JUMPDEST PUSH1 0x40 MLOAD DUP1 SWAP2 SUB SWAP1 RETURN JUMPDEST PUSH2 0x78 PUSH1 0x4 DUP1 CALLDATASIZE SUB DUP2 ADD SWAP1 PUSH2 0x73 SWAP2 SWAP1 PUSH2 0x552 JUMP JUMPDEST PUSH2 0x1C0 JUMP JUMPDEST STOP JUMPDEST PUSH1 0x60 PUSH1 0x0 DUP1 PUSH1 0x0 DUP1 PUSH1 0x60 PUSH1 0x0 PUSH1 0x1 SLOAD PUSH1 0x2 SLOAD PUSH1 0x3 SLOAD PUSH1 0x4 SLOAD PUSH1 0x6 DUP6 DUP1 SLOAD PUSH2 0xA0 SWAP1 PUSH2 0x7D1 JUMP JUMPDEST DUP1 PUSH1 0x1F ADD PUSH1 0x20 DUP1 SWAP2 DIV MUL PUSH1 0x20 ADD PUSH1 0x40 MLOAD SWAP1 DUP2 ADD PUSH1 0x40 MSTORE DUP1 SWAP3 SWAP2 SWAP1 DUP2 DUP2 MSTORE PUSH1 0x20 ADD DUP3 DUP1 SLOAD PUSH2 0xCC SWAP1 PUSH2 0x7D1 JUMP JUMPDEST DUP1 ISZERO PUSH2 0x119 JUMPI DUP1 PUSH1 0x1F LT PUSH2 0xEE JUMPI PUSH2 0x100 DUP1 DUP4 SLOAD DIV MUL DUP4 MSTORE SWAP2 PUSH1 0x20 ADD SWAP2 PUSH2 0x119 JUMP JUMPDEST DUP3 ADD SWAP2 SWAP1 PUSH1 0x0 MSTORE PUSH1 0x20 PUSH1 0x0 KECCAK256 SWAP1 JUMPDEST DUP2 SLOAD DUP2 MSTORE SWAP1 PUSH1 0x1 ADD SWAP1 PUSH1 0x20 ADD DUP1 DUP4 GT PUSH2 0xFC JUMPI DUP3 SWAP1 SUB PUSH1 0x1F AND DUP3 ADD SWAP2 JUMPDEST POP POP POP POP POP SWAP6 POP DUP1 DUP1 SLOAD PUSH2 0x12C SWAP1 PUSH2 0x7D1 JUMP JUMPDEST DUP1 PUSH1 0x1F ADD PUSH1 0x20 DUP1 SWAP2 DIV MUL PUSH1 0x20 ADD PUSH1 0x40 MLOAD SWAP1 DUP2 ADD PUSH1 0x40 MSTORE DUP1 SWAP3 SWAP2 SWAP1 DUP2 DUP2 MSTORE PUSH1 0x20 ADD DUP3 DUP1 SLOAD PUSH2 0x158 SWAP1 PUSH2 0x7D1 JUMP JUMPDEST DUP1 ISZERO PUSH2 0x1A5 JUMPI DUP1 PUSH1 0x1F LT PUSH2 0x17A JUMPI PUSH2 0x100 DUP1 DUP4 SLOAD DIV MUL DUP4 MSTORE SWAP2 PUSH1 0x20 ADD SWAP2 PUSH2 0x1A5 JUMP JUMPDEST DUP3 ADD SWAP2 SWAP1 PUSH1 0x0 MSTORE PUSH1 0x20 PUSH1 0x0 KECCAK256 SWAP1 JUMPDEST DUP2 SLOAD DUP2 MSTORE SWAP1 PUSH1 0x1 ADD SWAP1 PUSH1 0x20 ADD DUP1 DUP4 GT PUSH2 0x188 JUMPI DUP3 SWAP1 SUB PUSH1 0x1F AND DUP3 ADD SWAP2 JUMPDEST POP POP POP POP POP SWAP1 POP SWAP6 POP SWAP6 POP SWAP6 POP SWAP6 POP SWAP6 POP SWAP6 POP SWAP1 SWAP2 SWAP3 SWAP4 SWAP5 SWAP6 JUMP JUMPDEST DUP4 PUSH1 0x0 SWAP1 DUP1 MLOAD SWAP1 PUSH1 0x20 ADD SWAP1 PUSH2 0x1D6 SWAP3 SWAP2 SWAP1 PUSH2 0x42A JUMP JUMPDEST POP DUP3 PUSH1 0x1 DUP2 SWAP1 SSTORE POP DUP2 PUSH1 0x2 DUP2 SWAP1 SSTORE POP DUP1 PUSH1 0x3 DUP2 SWAP1 SSTORE POP PUSH1 0x3 SLOAD PUSH1 0x2 SLOAD PUSH1 0x1 SLOAD PUSH2 0x1FF SWAP2 SWAP1 PUSH2 0x6FE JUMP JUMPDEST PUSH2 0x209 SWAP2 SWAP1 PUSH2 0x6FE JUMP JUMPDEST PUSH1 0x4 DUP2 SWAP1 SSTORE POP PUSH1 0x3 PUSH1 0x4 SLOAD PUSH2 0x21E SWAP2 SWAP1 PUSH2 0x754 JUMP JUMPDEST PUSH1 0x5 DUP2 SWAP1 SSTORE POP PUSH1 0x64 PUSH1 0x5 SLOAD GT ISZERO DUP1 ISZERO PUSH2 0x23A JUMPI POP PUSH1 0x5B PUSH1 0x5 SLOAD LT ISZERO JUMPDEST ISZERO PUSH2 0x290 JUMPI PUSH1 0x40 MLOAD DUP1 PUSH1 0x40 ADD PUSH1 0x40 MSTORE DUP1 PUSH1 0x1 DUP2 MSTORE PUSH1 0x20 ADD PUSH32 0x4100000000000000000000000000000000000000000000000000000000000000 DUP2 MSTORE POP PUSH1 0x6 SWAP1 DUP1 MLOAD SWAP1 PUSH1 0x20 ADD SWAP1 PUSH2 0x28A SWAP3 SWAP2 SWAP1 PUSH2 0x42A JUMP JUMPDEST POP PUSH2 0x424 JUMP JUMPDEST PUSH1 0x5A PUSH1 0x5 SLOAD GT ISZERO DUP1 ISZERO PUSH2 0x2A6 JUMPI POP PUSH1 0x51 PUSH1 0x5 SLOAD LT ISZERO JUMPDEST ISZERO PUSH2 0x2FC JUMPI PUSH1 0x40 MLOAD DUP1 PUSH1 0x40 ADD PUSH1 0x40 MSTORE DUP1 PUSH1 0x1 DUP2 MSTORE PUSH1 0x20 ADD PUSH32 0x4200000000000000000000000000000000000000000000000000000000000000 DUP2 MSTORE POP PUSH1 0x6 SWAP1 DUP1 MLOAD SWAP1 PUSH1 0x20 ADD SWAP1 PUSH2 0x2F6 SWAP3 SWAP2 SWAP1 PUSH2 0x42A JUMP JUMPDEST POP PUSH2 0x423 JUMP JUMPDEST PUSH1 0x50 PUSH1 0x5 SLOAD GT ISZERO DUP1 ISZERO PUSH2 0x312 JUMPI POP PUSH1 0x47 PUSH1 0x5 SLOAD LT ISZERO JUMPDEST ISZERO PUSH2 0x368 JUMPI PUSH1 0x40 MLOAD DUP1 PUSH1 0x40 ADD PUSH1 0x40 MSTORE DUP1 PUSH1 0x1 DUP2 MSTORE PUSH1 0x20 ADD PUSH32 0x4300000000000000000000000000000000000000000000000000000000000000 DUP2 MSTORE POP PUSH1 0x6 SWAP1 DUP1 MLOAD SWAP1 PUSH1 0x20 ADD SWAP1 PUSH2 0x362 SWAP3 SWAP2 SWAP1 PUSH2 0x42A JUMP JUMPDEST POP PUSH2 0x422 JUMP JUMPDEST PUSH1 0x46 PUSH1 0x5 SLOAD GT ISZERO DUP1 ISZERO PUSH2 0x37E JUMPI POP PUSH1 0x3D PUSH1 0x5 SLOAD LT ISZERO JUMPDEST ISZERO PUSH2 0x3D4 JUMPI PUSH1 0x40 MLOAD DUP1 PUSH1 0x40 ADD PUSH1 0x40 MSTORE DUP1 PUSH1 0x1 DUP2 MSTORE PUSH1 0x20 ADD PUSH32 0x4400000000000000000000000000000000000000000000000000000000000000 DUP2 MSTORE POP PUSH1 0x6 SWAP1 DUP1 MLOAD SWAP1 PUSH1 0x20 ADD SWAP1 PUSH2 0x3CE SWAP3 SWAP2 SWAP1 PUSH2 0x42A JUMP JUMPDEST POP PUSH2 0x421 JUMP JUMPDEST PUSH1 0x40 MLOAD DUP1 PUSH1 0x40 ADD PUSH1 0x40 MSTORE DUP1 PUSH1 0x1 DUP2 MSTORE PUSH1 0x20 ADD PUSH32 0x5500000000000000000000000000000000000000000000000000000000000000 DUP2 MSTORE POP PUSH1 0x6 SWAP1 DUP1 MLOAD SWAP1 PUSH1 0x20 ADD SWAP1 PUSH2 0x41F SWAP3 SWAP2 SWAP1 PUSH2 0x42A JUMP JUMPDEST POP JUMPDEST JUMPDEST JUMPDEST JUMPDEST POP POP POP POP JUMP JUMPDEST DUP3 DUP1 SLOAD PUSH2 0x436 SWAP1 PUSH2 0x7D1 JUMP JUMPDEST SWAP1 PUSH1 0x0 MSTORE PUSH1 0x20 PUSH1 0x0 KECCAK256 SWAP1 PUSH1 0x1F ADD PUSH1 0x20 SWAP1 DIV DUP2 ADD SWAP3 DUP3 PUSH2 0x458 JUMPI PUSH1 0x0 DUP6 SSTORE PUSH2 0x49F JUMP JUMPDEST DUP3 PUSH1 0x1F LT PUSH2 0x471 JUMPI DUP1 MLOAD PUSH1 0xFF NOT AND DUP4 DUP1 ADD OR DUP6 SSTORE PUSH2 0x49F JUMP JUMPDEST DUP3 DUP1 ADD PUSH1 0x1 ADD DUP6 SSTORE DUP3 ISZERO PUSH2 0x49F JUMPI SWAP2 DUP3 ADD JUMPDEST DUP3 DUP2 GT ISZERO PUSH2 0x49E JUMPI DUP3 MLOAD DUP3 SSTORE SWAP2 PUSH1 0x20 ADD SWAP2 SWAP1 PUSH1 0x1 ADD SWAP1 PUSH2 0x483 JUMP JUMPDEST JUMPDEST POP SWAP1 POP PUSH2 0x4AC SWAP2 SWAP1 PUSH2 0x4B0 JUMP JUMPDEST POP SWAP1 JUMP JUMPDEST JUMPDEST DUP1 DUP3 GT ISZERO PUSH2 0x4C9 JUMPI PUSH1 0x0 DUP2 PUSH1 0x0 SWAP1 SSTORE POP PUSH1 0x1 ADD PUSH2 0x4B1 JUMP JUMPDEST POP SWAP1 JUMP JUMPDEST PUSH1 0x0 PUSH2 0x4E0 PUSH2 0x4DB DUP5 PUSH2 0x6B1 JUMP JUMPDEST PUSH2 0x68C JUMP JUMPDEST SWAP1 POP DUP3 DUP2 MSTORE PUSH1 0x20 DUP2 ADD DUP5 DUP5 DUP5 ADD GT ISZERO PUSH2 0x4FC JUMPI PUSH2 0x4FB PUSH2 0x8F5 JUMP JUMPDEST JUMPDEST PUSH2 0x507 DUP5 DUP3 DUP6 PUSH2 0x78F JUMP JUMPDEST POP SWAP4 SWAP3 POP POP POP JUMP JUMPDEST PUSH1 0x0 DUP3 PUSH1 0x1F DUP4 ADD SLT PUSH2 0x524 JUMPI PUSH2 0x523 PUSH2 0x8F0 JUMP JUMPDEST JUMPDEST DUP2 CALLDATALOAD PUSH2 0x534 DUP5 DUP3 PUSH1 0x20 DUP7 ADD PUSH2 0x4CD JUMP JUMPDEST SWAP2 POP POP SWAP3 SWAP2 POP POP JUMP JUMPDEST PUSH1 0x0 DUP2 CALLDATALOAD SWAP1 POP PUSH2 0x54C DUP2 PUSH2 0x915 JUMP JUMPDEST SWAP3 SWAP2 POP POP JUMP JUMPDEST PUSH1 0x0 DUP1 PUSH1 0x0 DUP1 PUSH1 0x80 DUP6 DUP8 SUB SLT ISZERO PUSH2 0x56C JUMPI PUSH2 0x56B PUSH2 0x8FF JUMP JUMPDEST JUMPDEST PUSH1 0x0 DUP6 ADD CALLDATALOAD PUSH8 0xFFFFFFFFFFFFFFFF DUP2 GT ISZERO PUSH2 0x58A JUMPI PUSH2 0x589 PUSH2 0x8FA JUMP JUMPDEST JUMPDEST PUSH2 0x596 DUP8 DUP3 DUP9 ADD PUSH2 0x50F JUMP JUMPDEST SWAP5 POP POP PUSH1 0x20 PUSH2 0x5A7 DUP8 DUP3 DUP9 ADD PUSH2 0x53D JUMP JUMPDEST SWAP4 POP POP PUSH1 0x40 PUSH2 0x5B8 DUP8 DUP3 DUP9 ADD PUSH2 0x53D JUMP JUMPDEST SWAP3 POP POP PUSH1 0x60 PUSH2 0x5C9 DUP8 DUP3 DUP9 ADD PUSH2 0x53D JUMP JUMPDEST SWAP2 POP POP SWAP3 SWAP6 SWAP2 SWAP5 POP SWAP3 POP JUMP JUMPDEST PUSH1 0x0 PUSH2 0x5E0 DUP3 PUSH2 0x6E2 JUMP JUMPDEST PUSH2 0x5EA DUP2 DUP6 PUSH2 0x6ED JUMP JUMPDEST SWAP4 POP PUSH2 0x5FA DUP2 DUP6 PUSH1 0x20 DUP7 ADD PUSH2 0x79E JUMP JUMPDEST PUSH2 0x603 DUP2 PUSH2 0x904 JUMP JUMPDEST DUP5 ADD SWAP2 POP POP SWAP3 SWAP2 POP POP JUMP JUMPDEST PUSH2 0x617 DUP2 PUSH2 0x785 JUMP JUMPDEST DUP3 MSTORE POP POP JUMP JUMPDEST PUSH1 0x0 PUSH1 0xC0 DUP3 ADD SWAP1 POP DUP2 DUP2 SUB PUSH1 0x0 DUP4 ADD MSTORE PUSH2 0x637 DUP2 DUP10 PUSH2 0x5D5 JUMP JUMPDEST SWAP1 POP PUSH2 0x646 PUSH1 0x20 DUP4 ADD DUP9 PUSH2 0x60E JUMP JUMPDEST PUSH2 0x653 PUSH1 0x40 DUP4 ADD DUP8 PUSH2 0x60E JUMP JUMPDEST PUSH2 0x660 PUSH1 0x60 DUP4 ADD DUP7 PUSH2 0x60E JUMP JUMPDEST PUSH2 0x66D PUSH1 0x80 DUP4 ADD DUP6 PUSH2 0x60E JUMP JUMPDEST DUP2 DUP2 SUB PUSH1 0xA0 DUP4 ADD MSTORE PUSH2 0x67F DUP2 DUP5 PUSH2 0x5D5 JUMP JUMPDEST SWAP1 POP SWAP8 SWAP7 POP POP POP POP POP POP POP JUMP JUMPDEST PUSH1 0x0 PUSH2 0x696 PUSH2 0x6A7 JUMP JUMPDEST SWAP1 POP PUSH2 0x6A2 DUP3 DUP3 PUSH2 0x803 JUMP JUMPDEST SWAP2 SWAP1 POP JUMP JUMPDEST PUSH1 0x0 PUSH1 0x40 MLOAD SWAP1 POP SWAP1 JUMP JUMPDEST PUSH1 0x0 PUSH8 0xFFFFFFFFFFFFFFFF DUP3 GT ISZERO PUSH2 0x6CC JUMPI PUSH2 0x6CB PUSH2 0x8C1 JUMP JUMPDEST JUMPDEST PUSH2 0x6D5 DUP3 PUSH2 0x904 JUMP JUMPDEST SWAP1 POP PUSH1 0x20 DUP2 ADD SWAP1 POP SWAP2 SWAP1 POP JUMP JUMPDEST PUSH1 0x0 DUP2 MLOAD SWAP1 POP SWAP2 SWAP1 POP JUMP JUMPDEST PUSH1 0x0 DUP3 DUP3 MSTORE PUSH1 0x20 DUP3 ADD SWAP1 POP SWAP3 SWAP2 POP POP JUMP JUMPDEST PUSH1 0x0 PUSH2 0x709 DUP3 PUSH2 0x785 JUMP JUMPDEST SWAP2 POP PUSH2 0x714 DUP4 PUSH2 0x785 JUMP JUMPDEST SWAP3 POP DUP3 PUSH32 0xFFFFFFFFFFFFFFFFFFFFFFFFFFFFFFFFFFFFFFFFFFFFFFFFFFFFFFFFFFFFFFFF SUB DUP3 GT ISZERO PUSH2 0x749 JUMPI PUSH2 0x748 PUSH2 0x834 JUMP JUMPDEST JUMPDEST DUP3 DUP3 ADD SWAP1 POP SWAP3 SWAP2 POP POP JUMP JUMPDEST PUSH1 0x0 PUSH2 0x75F DUP3 PUSH2 0x785 JUMP JUMPDEST SWAP2 POP PUSH2 0x76A DUP4 PUSH2 0x785 JUMP JUMPDEST SWAP3 POP DUP3 PUSH2 0x77A JUMPI PUSH2 0x779 PUSH2 0x863 JUMP JUMPDEST JUMPDEST DUP3 DUP3 DIV SWAP1 POP SWAP3 SWAP2 POP POP JUMP JUMPDEST PUSH1 0x0 DUP2 SWAP1 POP SWAP2 SWAP1 POP JUMP JUMPDEST DUP3 DUP2 DUP4 CALLDATACOPY PUSH1 0x0 DUP4 DUP4 ADD MSTORE POP POP POP JUMP JUMPDEST PUSH1 0x0 JUMPDEST DUP4 DUP2 LT ISZERO PUSH2 0x7BC JUMPI DUP1 DUP3 ADD MLOAD DUP2 DUP5 ADD MSTORE PUSH1 0x20 DUP2 ADD SWAP1 POP PUSH2 0x7A1 JUMP JUMPDEST DUP4 DUP2 GT ISZERO PUSH2 0x7CB JUMPI PUSH1 0x0 DUP5 DUP5 ADD MSTORE JUMPDEST POP POP POP POP JUMP JUMPDEST PUSH1 0x0 PUSH1 0x2 DUP3 DIV SWAP1 POP PUSH1 0x1 DUP3 AND DUP1 PUSH2 0x7E9 JUMPI PUSH1 0x7F DUP3 AND SWAP2 POP JUMPDEST PUSH1 0x20 DUP3 LT DUP2 EQ ISZERO PUSH2 0x7FD JUMPI PUSH2 0x7FC PUSH2 0x892 JUMP JUMPDEST JUMPDEST POP SWAP2 SWAP1 POP JUMP JUMPDEST PUSH2 0x80C DUP3 PUSH2 0x904 JUMP JUMPDEST DUP2 ADD DUP2 DUP2 LT PUSH8 0xFFFFFFFFFFFFFFFF DUP3 GT OR ISZERO PUSH2 0x82B JUMPI PUSH2 0x82A PUSH2 0x8C1 JUMP JUMPDEST JUMPDEST DUP1 PUSH1 0x40 MSTORE POP POP POP JUMP JUMPDEST PUSH32 0x4E487B7100000000000000000000000000000000000000000000000000000000 PUSH1 0x0 MSTORE PUSH1 0x11 PUSH1 0x4 MSTORE PUSH1 0x24 PUSH1 0x0 REVERT JUMPDEST PUSH32 0x4E487B7100000000000000000000000000000000000000000000000000000000 PUSH1 0x0 MSTORE PUSH1 0x12 PUSH1 0x4 MSTORE PUSH1 0x24 PUSH1 0x0 REVERT JUMPDEST PUSH32 0x4E487B7100000000000000000000000000000000000000000000000000000000 PUSH1 0x0 MSTORE PUSH1 0x22 PUSH1 0x4 MSTORE PUSH1 0x24 PUSH1 0x0 REVERT JUMPDEST PUSH32 0x4E487B7100000000000000000000000000000000000000000000000000000000 PUSH1 0x0 MSTORE PUSH1 0x41 PUSH1 0x4 MSTORE PUSH1 0x24 PUSH1 0x0 REVERT JUMPDEST PUSH1 0x0 DUP1 REVERT JUMPDEST PUSH1 0x0 DUP1 REVERT JUMPDEST PUSH1 0x0 DUP1 REVERT JUMPDEST PUSH1 0x0 DUP1 REVERT JUMPDEST PUSH1 0x0 PUSH1 0x1F NOT PUSH1 0x1F DUP4 ADD AND SWAP1 POP SWAP2 SWAP1 POP JUMP JUMPDEST PUSH2 0x91E DUP2 PUSH2 0x785 JUMP JUMPDEST DUP2 EQ PUSH2 0x929 JUMPI PUSH1 0x0 DUP1 REVERT JUMPDEST POP JUMP INVALID LOG2 PUSH5 0x6970667358 0x22 SLT KECCAK256 DUP12 PUSH20 0xF39D3DFE667F8029BE6CDBA7290DF61980E57C73 XOR SMOD CALLCODE 0x28 SWAP7 0xFB 0xDC ORIGIN PUSH6 0x3B64736F6C63 NUMBER STOP ADDMOD SMOD STOP CALLER "
				},
				"gasEstimates": {
					"creation": {
						"codeDepositCost": "480400",
						"executionCost": "518",
						"totalCost": "480918"
					},
					"external": {
						"addUser(string,uint256,uint256,uint256)": "infinite",
						"display()": "infinite"
					}
				},
				"methodIdentifiers": {
					"addUser(string,uint256,uint256,uint256)": "76b3d161",
					"display()": "0c1b7c1e"
				}
			},
			"storageLayout": {
				"storage": [
					{
						"astId": 3,
						"contract": "studentMarks.sol:result",
						"label": "name",
						"offset": 0,
						"slot": "0",
						"type": "t_string_storage"
					},
					{
						"astId": 5,
						"contract": "studentMarks.sol:result",
						"label": "m1",
						"offset": 0,
						"slot": "1",
						"type": "t_uint256"
					},
					{
						"astId": 7,
						"contract": "studentMarks.sol:result",
						"label": "m2",
						"offset": 0,
						"slot": "2",
						"type": "t_uint256"
					},
					{
						"astId": 9,
						"contract": "studentMarks.sol:result",
						"label": "m3",
						"offset": 0,
						"slot": "3",
						"type": "t_uint256"
					},
					{
						"astId": 11,
						"contract": "studentMarks.sol:result",
						"label": "total",
						"offset": 0,
						"slot": "4",
						"type": "t_uint256"
					},
					{
						"astId": 13,
						"contract": "studentMarks.sol:result",
						"label": "avg",
						"offset": 0,
						"slot": "5",
						"type": "t_uint256"
					},
					{
						"astId": 15,
						"contract": "studentMarks.sol:result",
						"label": "grade",
						"offset": 0,
						"slot": "6",
						"type": "t_string_storage"
					}
				],
				"types": {
					"t_string_storage": {
						"encoding": "bytes",
						"label": "string",
						"numberOfBytes": "32"
					},
					"t_uint256": {
						"encoding": "inplace",
						"label": "uint256",
						"numberOfBytes": "32"
					}
				}
			},
			"userdoc": {
				"kind": "user",
				"methods": {},
				"version": 1
			}
		}
	}
}