{
	"data": {
		"bytecode": {
			"linkReferences": {},
			"object": "608060405234801561001057600080fd5b50610962806100206000396000f3fe608060405234801561001057600080fd5b50600436106100365760003560e01c80630c1b7c1e1461003b57806376b3d1611461005e575b600080fd5b61004361007a565b6040516100559695949392919061061d565b60405180910390f35b61007860048036038101906100739190610552565b6101c0565b005b60606000806000806060600060015460025460035460045460068580546100a0906107d1565b80601f01602080910402602001604051908101604052809291908181526020018280546100cc906107d1565b80156101195780601f106100ee57610100808354040283529160200191610119565b820191906000526020600020905b8154815290600101906020018083116100fc57829003601f168201915b5050505050955080805461012c906107d1565b80601f0160208091040260200160405190810160405280929190818152602001828054610158906107d1565b80156101a55780601f1061017a576101008083540402835291602001916101a5565b820191906000526020600020905b81548152906001019060200180831161018857829003601f168201915b50505050509050955095509550955095509550909192939495565b83600090805190602001906101d692919061042a565b508260018190555081600281905550806003819055506003546002546001546101ff91906106fe565b61020991906106fe565b600481905550600360045461021e9190610754565b60058190555060646005541115801561023a5750605b60055410155b15610290576040518060400160405280600181526020017f41000000000000000000000000000000000000000000000000000000000000008152506006908051906020019061028a92919061042a565b50610424565b605a600554111580156102a65750605160055410155b156102fc576040518060400160405280600181526020017f4200000000000000000000000000000000000000000000000000000000000000815250600690805190602001906102f692919061042a565b50610423565b6050600554111580156103125750604760055410155b15610368576040518060400160405280600181526020017f43000000000000000000000000000000000000000000000000000000000000008152506006908051906020019061036292919061042a565b50610422565b60466005541115801561037e5750603d60055410155b156103d4576040518060400160405280600181526020017f4400000000000000000000000000000000000000000000000000000000000000815250600690805190602001906103ce92919061042a565b50610421565b6040518060400160405280600181526020017f55000000000000000000000000000000000000000000000000000000000000008152506006908051906020019061041f92919061042a565b505b5b5b5b50505050565b828054610436906107d1565b90600052602060002090601f016020900481019282610458576000855561049f565b82601f1061047157805160ff191683800117855561049f565b8280016001018555821561049f579182015b8281111561049e578251825591602001919060010190610483565b5b5090506104ac91906104b0565b5090565b5b808211156104c95760008160009055506001016104b1565b5090565b60006104e06104db846106b1565b61068c565b9050828152602081018484840111156104fc576104fb6108f5565b5b61050784828561078f565b509392505050565b600082601f830112610524576105236108f0565b5b81356105348482602086016104cd565b91505092915050565b60008135905061054c81610915565b92915050565b6000806000806080858703121561056c5761056b6108ff565b5b600085013567ffffffffffffffff81111561058a576105896108fa565b5b6105968782880161050f565b94505060206105a78782880161053d565b93505060406105b88782880161053d565b92505060606105c98782880161053d565b91505092959194509250565b60006105e0826106e2565b6105ea81856106ed565b93506105fa81856020860161079e565b61060381610904565b840191505092915050565b61061781610785565b82525050565b600060c082019050818103600083015261063781896105d5565b9050610646602083018861060e565b610653604083018761060e565b610660606083018661060e565b61066d608083018561060e565b81810360a083015261067f81846105d5565b9050979650505050505050565b60006106966106a7565b90506106a28282610803565b919050565b6000604051905090565b600067ffffffffffffffff8211156106cc576106cb6108c1565b5b6106d582610904565b9050602081019050919050565b600081519050919050565b600082825260208201905092915050565b600061070982610785565b915061071483610785565b9250827fffffffffffffffffffffffffffffffffffffffffffffffffffffffffffffffff0382111561074957610748610834565b5b828201905092915050565b600061075f82610785565b915061076a83610785565b92508261077a57610779610863565b5b828204905092915050565b6000819050919050565b82818337600083830152505050565b60005b838110156107bc5780820151818401526020810190506107a1565b838111156107cb576000848401525b50505050565b600060028204905060018216806107e957607f821691505b602082108114156107fd576107fc610892565b5b50919050565b61080c82610904565b810181811067ffffffffffffffff8211171561082b5761082a6108c1565b5b80604052505050565b7f4e487b7100000000000000000000000000000000000000000000000000000000600052601160045260246000fd5b7f4e487b7100000000000000000000000000000000000000000000000000000000600052601260045260246000fd5b7f4e487b7100000000000000000000000000000000000000000000000000000000600052602260045260246000fd5b7f4e487b7100000000000000000000000000000000000000000000000000000000600052604160045260246000fd5b600080fd5b600080fd5b600080fd5b600080fd5b6000601f19601f8301169050919050565b61091e81610785565b811461092957600080fd5b5056fea264697066735822122068d1d19f61e7b756c35d3515daff038ec4d34a18d7ec85ed9a83c2ef53dba76664736f6c63430008070033",
			"opcodes": "PUSH1 0x80 PUSH1 0x40 MSTORE CALLVALUE DUP1 ISZERO PUSH2 0x10 JUMPI PUSH1 0x0 DUP1 REVERT JUMPDEST POP PUSH2 0x962 DUP1 PUSH2 0x20 PUSH1 0x0 CODECOPY PUSH1 0x0 RETURN INVALID PUSH1 0x80 PUSH1 0x40 MSTORE CALLVALUE DUP1 ISZERO PUSH2 0x10 JUMPI PUSH1 0x0 DUP1 REVERT JUMPDEST POP PUSH1 0x4 CALLDATASIZE LT PUSH2 0x36 JUMPI PUSH1 0x0 CALLDATALOAD PUSH1 0xE0 SHR DUP1 PUSH4 0xC1B7C1E EQ PUSH2 0x3B JUMPI DUP1 PUSH4 0x76B3D161 EQ PUSH2 0x5E JUMPI JUMPDEST PUSH1 0x0 DUP1 REVERT JUMPDEST PUSH2 0x43 PUSH2 0x7A JUMP JUMPDEST PUSH1 0x40 MLOAD PUSH2 0x55 SWAP7 SWAP6 SWAP5 SWAP4 SWAP3 SWAP2 SWAP1 PUSH2 0x61D JUMP JUMPDEST PUSH1 0x40 MLOAD DUP1 SWAP2 SUB SWAP1 RETURN JUMPDEST PUSH2 0x78 PUSH1 0x4 DUP1 CALLDATASIZE SUB DUP2 ADD SWAP1 PUSH2 0x73 SWAP2 SWAP1 PUSH2 0x552 JUMP JUMPDEST PUSH2 0x1C0 JUMP JUMPDEST STOP JUMPDEST PUSH1 0x60 PUSH1 0x0 DUP1 PUSH1 0x0 DUP1 PUSH1 0x60 PUSH1 0x0 PUSH1 0x1 SLOAD PUSH1 0x2 SLOAD PUSH1 0x3 SLOAD PUSH1 0x4 SLOAD PUSH1 0x6 DUP6 DUP1 SLOAD PUSH2 0xA0 SWAP1 PUSH2 0x7D1 JUMP JUMPDEST DUP1 PUSH1 0x1F ADD PUSH1 0x20 DUP1 SWAP2 DIV MUL PUSH1 0x20 ADD PUSH1 0x40 MLOAD SWAP1 DUP2 ADD PUSH1 0x40 MSTORE DUP1 SWAP3 SWAP2 SWAP1 DUP2 DUP2 MSTORE PUSH1 0x20 ADD DUP3 DUP1 SLOAD PUSH2 0xCC SWAP1 PUSH2 0x7D1 JUMP JUMPDEST DUP1 ISZERO PUSH2 0x119 JUMPI DUP1 PUSH1 0x1F LT PUSH2 0xEE JUMPI PUSH2 0x100 DUP1 DUP4 SLOAD DIV MUL DUP4 MSTORE SWAP2 PUSH1 0x20 ADD SWAP2 PUSH2 0x119 JUMP JUMPDEST DUP3 ADD SWAP2 SWAP1 PUSH1 0x0 MSTORE PUSH1 0x20 PUSH1 0x0 KECCAK256 SWAP1 JUMPDEST DUP2 SLOAD DUP2 MSTORE SWAP1 PUSH1 0x1 ADD SWAP1 PUSH1 0x20 ADD DUP1 DUP4 GT PUSH2 0xFC JUMPI DUP3 SWAP1 SUB PUSH1 0x1F AND DUP3 ADD SWAP2 JUMPDEST POP POP POP POP POP SWAP6 POP DUP1 DUP1 SLOAD PUSH2 0x12C SWAP1 PUSH2 0x7D1 JUMP JUMPDEST DUP1 PUSH1 0x1F ADD PUSH1 0x20 DUP1 SWAP2 DIV MUL PUSH1 0x20 ADD PUSH1 0x40 MLOAD SWAP1 DUP2 ADD PUSH1 0x40 MSTORE DUP1 SWAP3 SWAP2 SWAP1 DUP2 DUP2 MSTORE PUSH1 0x20 ADD DUP3 DUP1 SLOAD PUSH2 0x158 SWAP1 PUSH2 0x7D1 JUMP JUMPDEST DUP1 ISZERO PUSH2 0x1A5 JUMPI DUP1 PUSH1 0x1F LT PUSH2 0x17A JUMPI PUSH2 0x100 DUP1 DUP4 SLOAD DIV MUL DUP4 MSTORE SWAP2 PUSH1 0x20 ADD SWAP2 PUSH2 0x1A5 JUMP JUMPDEST DUP3 ADD SWAP2 SWAP1 PUSH1 0x0 MSTORE PUSH1 0x20 PUSH1 0x0 KECCAK256 SWAP1 JUMPDEST DUP2 SLOAD DUP2 MSTORE SWAP1 PUSH1 0x1 ADD SWAP1 PUSH1 0x20 ADD DUP1 DUP4 GT PUSH2 0x188 JUMPI DUP3 SWAP1 SUB PUSH1 0x1F AND DUP3 ADD SWAP2 JUMPDEST POP POP POP POP POP SWAP1 POP SWAP6 POP SWAP6 POP SWAP6 POP SWAP6 POP SWAP6 POP SWAP6 POP SWAP1 SWAP2 SWAP3 SWAP4 SWAP5 SWAP6 JUMP JUMPDEST DUP4 PUSH1 0x0 SWAP1 DUP1 MLOAD SWAP1 PUSH1 0x20 ADD SWAP1 PUSH2 0x1D6 SWAP3 SWAP2 SWAP1 PUSH2 0x42A JUMP JUMPDEST POP DUP3 PUSH1 0x1 DUP2 SWAP1 SSTORE POP DUP2 PUSH1 0x2 DUP2 SWAP1 SSTORE POP DUP1 PUSH1 0x3 DUP2 SWAP1 SSTORE POP PUSH1 0x3 SLOAD PUSH1 0x2 SLOAD PUSH1 0x1 SLOAD PUSH2 0x1FF SWAP2 SWAP1 PUSH2 0x6FE JUMP JUMPDEST PUSH2 0x209 SWAP2 SWAP1 PUSH2 0x6FE JUMP JUMPDEST PUSH1 0x4 DUP2 SWAP1 SSTORE POP PUSH1 0x3 PUSH1 0x4 SLOAD PUSH2 0x21E SWAP2 SWAP1 PUSH2 0x754 JUMP JUMPDEST PUSH1 0x5 DUP2 SWAP1 SSTORE POP PUSH1 0x64 PUSH1 0x5 SLOAD GT ISZERO DUP1 ISZERO PUSH2 0x23A JUMPI POP PUSH1 0x5B PUSH1 0x5 SLOAD LT ISZERO JUMPDEST ISZERO PUSH2 0x290 JUMPI PUSH1 0x40 MLOAD DUP1 PUSH1 0x40 ADD PUSH1 0x40 MSTORE DUP1 PUSH1 0x1 DUP2 MSTORE PUSH1 0x20 ADD PUSH32 0x4100000000000000000000000000000000000000000000000000000000000000 DUP2 MSTORE POP PUSH1 0x6 SWAP1 DUP1 MLOAD SWAP1 PUSH1 0x20 ADD SWAP1 PUSH2 0x28A SWAP3 SWAP2 SWAP1 PUSH2 0x42A JUMP JUMPDEST POP PUSH2 0x424 JUMP JUMPDEST PUSH1 0x5A PUSH1 0x5 SLOAD GT ISZERO DUP1 ISZERO PUSH2 0x2A6 JUMPI POP PUSH1 0x51 PUSH1 0x5 SLOAD LT ISZERO JUMPDEST ISZERO PUSH2 0x2FC JUMPI PUSH1 0x40 MLOAD DUP1 PUSH1 0x40 ADD PUSH1 0x40 MSTORE DUP1 PUSH1 0x1 DUP2 MSTORE PUSH1 0x20 ADD PUSH32 0x4200000000000000000000000000000000000000000000000000000000000000 DUP2 MSTORE POP PUSH1 0x6 SWAP1 DUP1 MLOAD SWAP1 PUSH1 0x20 ADD SWAP1 PUSH2 0x2F6 SWAP3 SWAP2 SWAP1 PUSH2 0x42A JUMP JUMPDEST POP PUSH2 0x423 JUMP JUMPDEST PUSH1 0x50 PUSH1 0x5 SLOAD GT ISZERO DUP1 ISZERO PUSH2 0x312 JUMPI POP PUSH1 0x47 PUSH1 0x5 SLOAD LT ISZERO JUMPDEST ISZERO PUSH2 0x368 JUMPI PUSH1 0x40 MLOAD DUP1 PUSH1 0x40 ADD PUSH1 0x40 MSTORE DUP1 PUSH1 0x1 DUP2 MSTORE PUSH1 0x20 ADD PUSH32 0x4300000000000000000000000000000000000000000000000000000000000000 DUP2 MSTORE POP PUSH1 0x6 SWAP1 DUP1 MLOAD SWAP1 PUSH1 0x20 ADD SWAP1 PUSH2 0x362 SWAP3 SWAP2 SWAP1 PUSH2 0x42A JUMP JUMPDEST POP PUSH2 0x422 JUMP JUMPDEST PUSH1 0x46 PUSH1 0x5 SLOAD GT ISZERO DUP1 ISZERO PUSH2 0x37E JUMPI POP PUSH1 0x3D PUSH1 0x5 SLOAD LT ISZERO JUMPDEST ISZERO PUSH2 0x3D4 JUMPI PUSH1 0x40 MLOAD DUP1 PUSH1 0x40 ADD PUSH1 0x40 MSTORE DUP1 PUSH1 0x1 DUP2 MSTORE PUSH1 0x20 ADD PUSH32 0x4400000000000000000000000000000000000000000000000000000000000000 DUP2 MSTORE POP PUSH1 0x6 SWAP1 DUP1 MLOAD SWAP1 PUSH1 0x20 ADD SWAP1 PUSH2 0x3CE SWAP3 SWAP2 SWAP1 PUSH2 0x42A JUMP JUMPDEST POP PUSH2 0x421 JUMP JUMPDEST PUSH1 0x40 MLOAD DUP1 PUSH1 0x40 ADD PUSH1 0x40 MSTORE DUP1 PUSH1 0x1 DUP2 MSTORE PUSH1 0x20 ADD PUSH32 0x5500000000000000000000000000000000000000000000000000000000000000 DUP2 MSTORE POP PUSH1 0x6 SWAP1 DUP1 MLOAD SWAP1 PUSH1 0x20 ADD SWAP1 PUSH2 0x41F SWAP3 SWAP2 SWAP1 PUSH2 0x42A JUMP JUMPDEST POP JUMPDEST JUMPDEST JUMPDEST JUMPDEST POP POP POP POP JUMP JUMPDEST DUP3 DUP1 SLOAD PUSH2 0x436 SWAP1 PUSH2 0x7D1 JUMP JUMPDEST SWAP1 PUSH1 0x0 MSTORE PUSH1 0x20 PUSH1 0x0 KECCAK256 SWAP1 PUSH1 0x1F ADD PUSH1 0x20 SWAP1 DIV DUP2 ADD SWAP3 DUP3 PUSH2 0x458 JUMPI PUSH1 0x0 DUP6 SSTORE PUSH2 0x49F JUMP JUMPDEST DUP3 PUSH1 0x1F LT PUSH2 0x471 JUMPI DUP1 MLOAD PUSH1 0xFF NOT AND DUP4 DUP1 ADD OR DUP6 SSTORE PUSH2 0x49F JUMP JUMPDEST DUP3 DUP1 ADD PUSH1 0x1 ADD DUP6 SSTORE DUP3 ISZERO PUSH2 0x49F JUMPI SWAP2 DUP3 ADD JUMPDEST DUP3 DUP2 GT ISZERO PUSH2 0x49E JUMPI DUP3 MLOAD DUP3 SSTORE SWAP2 PUSH1 0x20 ADD SWAP2 SWAP1 PUSH1 0x1 ADD SWAP1 PUSH2 0x483 JUMP JUMPDEST JUMPDEST POP SWAP1 POP PUSH2 0x4AC SWAP2 SWAP1 PUSH2 0x4B0 JUMP JUMPDEST POP SWAP1 JUMP JUMPDEST JUMPDEST DUP1 DUP3 GT ISZERO PUSH2 0x4C9 JUMPI PUSH1 0x0 DUP2 PUSH1 0x0 SWAP1 SSTORE POP PUSH1 0x1 ADD PUSH2 0x4B1 JUMP JUMPDEST POP SWAP1 JUMP JUMPDEST PUSH1 0x0 PUSH2 0x4E0 PUSH2 0x4DB DUP5 PUSH2 0x6B1 JUMP JUMPDEST PUSH2 0x68C JUMP JUMPDEST SWAP1 POP DUP3 DUP2 MSTORE PUSH1 0x20 DUP2 ADD DUP5 DUP5 DUP5 ADD GT ISZERO PUSH2 0x4FC JUMPI PUSH2 0x4FB PUSH2 0x8F5 JUMP JUMPDEST JUMPDEST PUSH2 0x507 DUP5 DUP3 DUP6 PUSH2 0x78F JUMP JUMPDEST POP SWAP4 SWAP3 POP POP POP JUMP JUMPDEST PUSH1 0x0 DUP3 PUSH1 0x1F DUP4 ADD SLT PUSH2 0x524 JUMPI PUSH2 0x523 PUSH2 0x8F0 JUMP JUMPDEST JUMPDEST DUP2 CALLDATALOAD PUSH2 0x534 DUP5 DUP3 PUSH1 0x20 DUP7 ADD PUSH2 0x4CD JUMP JUMPDEST SWAP2 POP POP SWAP3 SWAP2 POP POP JUMP JUMPDEST PUSH1 0x0 DUP2 CALLDATALOAD SWAP1 POP PUSH2 0x54C DUP2 PUSH2 0x915 JUMP JUMPDEST SWAP3 SWAP2 POP POP JUMP JUMPDEST PUSH1 0x0 DUP1 PUSH1 0x0 DUP1 PUSH1 0x80 DUP6 DUP8 SUB SLT ISZERO PUSH2 0x56C JUMPI PUSH2 0x56B PUSH2 0x8FF JUMP JUMPDEST JUMPDEST PUSH1 0x0 DUP6 ADD CALLDATALOAD PUSH8 0xFFFFFFFFFFFFFFFF DUP2 GT ISZERO PUSH2 0x58A JUMPI PUSH2 0x589 PUSH2 0x8FA JUMP JUMPDEST JUMPDEST PUSH2 0x596 DUP8 DUP3 DUP9 ADD PUSH2 0x50F JUMP JUMPDEST SWAP5 POP POP PUSH1 0x20 PUSH2 0x5A7 DUP8 DUP3 DUP9 ADD PUSH2 0x53D JUMP JUMPDEST SWAP4 POP POP PUSH1 0x40 PUSH2 0x5B8 DUP8 DUP3 DUP9 ADD PUSH2 0x53D JUMP JUMPDEST SWAP3 POP POP PUSH1 0x60 PUSH2 0x5C9 DUP8 DUP3 DUP9 ADD PUSH2 0x53D JUMP JUMPDEST SWAP2 POP POP SWAP3 SWAP6 SWAP2 SWAP5 POP SWAP3 POP JUMP JUMPDEST PUSH1 0x0 PUSH2 0x5E0 DUP3 PUSH2 0x6E2 JUMP JUMPDEST PUSH2 0x5EA DUP2 DUP6 PUSH2 0x6ED JUMP JUMPDEST SWAP4 POP PUSH2 0x5FA DUP2 DUP6 PUSH1 0x20 DUP7 ADD PUSH2 0x79E JUMP JUMPDEST PUSH2 0x603 DUP2 PUSH2 0x904 JUMP JUMPDEST DUP5 ADD SWAP2 POP POP SWAP3 SWAP2 POP POP JUMP JUMPDEST PUSH2 0x617 DUP2 PUSH2 0x785 JUMP JUMPDEST DUP3 MSTORE POP POP JUMP JUMPDEST PUSH1 0x0 PUSH1 0xC0 DUP3 ADD SWAP1 POP DUP2 DUP2 SUB PUSH1 0x0 DUP4 ADD MSTORE PUSH2 0x637 DUP2 DUP10 PUSH2 0x5D5 JUMP JUMPDEST SWAP1 POP PUSH2 0x646 PUSH1 0x20 DUP4 ADD DUP9 PUSH2 0x60E JUMP JUMPDEST PUSH2 0x653 PUSH1 0x40 DUP4 ADD DUP8 PUSH2 0x60E JUMP JUMPDEST PUSH2 0x660 PUSH1 0x60 DUP4 ADD DUP7 PUSH2 0x60E JUMP JUMPDEST PUSH2 0x66D PUSH1 0x80 DUP4 ADD DUP6 PUSH2 0x60E JUMP JUMPDEST DUP2 DUP2 SUB PUSH1 0xA0 DUP4 ADD MSTORE PUSH2 0x67F DUP2 DUP5 PUSH2 0x5D5 JUMP JUMPDEST SWAP1 POP SWAP8 SWAP7 POP POP POP POP POP POP POP JUMP JUMPDEST PUSH1 0x0 PUSH2 0x696 PUSH2 0x6A7 JUMP JUMPDEST SWAP1 POP PUSH2 0x6A2 DUP3 DUP3 PUSH2 0x803 JUMP JUMPDEST SWAP2 SWAP1 POP JUMP JUMPDEST PUSH1 0x0 PUSH1 0x40 MLOAD SWAP1 POP SWAP1 JUMP JUMPDEST PUSH1 0x0 PUSH8 0xFFFFFFFFFFFFFFFF DUP3 GT ISZERO PUSH2 0x6CC JUMPI PUSH2 0x6CB PUSH2 0x8C1 JUMP JUMPDEST JUMPDEST PUSH2 0x6D5 DUP3 PUSH2 0x904 JUMP JUMPDEST SWAP1 POP PUSH1 0x20 DUP2 ADD SWAP1 POP SWAP2 SWAP1 POP JUMP JUMPDEST PUSH1 0x0 DUP2 MLOAD SWAP1 POP SWAP2 SWAP1 POP JUMP JUMPDEST PUSH1 0x0 DUP3 DUP3 MSTORE PUSH1 0x20 DUP3 ADD SWAP1 POP SWAP3 SWAP2 POP POP JUMP JUMPDEST PUSH1 0x0 PUSH2 0x709 DUP3 PUSH2 0x785 JUMP JUMPDEST SWAP2 POP PUSH2 0x714 DUP4 PUSH2 0x785 JUMP JUMPDEST SWAP3 POP DUP3 PUSH32 0xFFFFFFFFFFFFFFFFFFFFFFFFFFFFFFFFFFFFFFFFFFFFFFFFFFFFFFFFFFFFFFFF SUB DUP3 GT ISZERO PUSH2 0x749 JUMPI PUSH2 0x748 PUSH2 0x834 JUMP JUMPDEST JUMPDEST DUP3 DUP3 ADD SWAP1 POP SWAP3 SWAP2 POP POP JUMP JUMPDEST PUSH1 0x0 PUSH2 0x75F DUP3 PUSH2 0x785 JUMP JUMPDEST SWAP2 POP PUSH2 0x76A DUP4 PUSH2 0x785 JUMP JUMPDEST SWAP3 POP DUP3 PUSH2 0x77A JUMPI PUSH2 0x779 PUSH2 0x863 JUMP JUMPDEST JUMPDEST DUP3 DUP3 DIV SWAP1 POP SWAP3 SWAP2 POP POP JUMP JUMPDEST PUSH1 0x0 DUP2 SWAP1 POP SWAP2 SWAP1 POP JUMP JUMPDEST DUP3 DUP2 DUP4 CALLDATACOPY PUSH1 0x0 DUP4 DUP4 ADD MSTORE POP POP POP JUMP JUMPDEST PUSH1 0x0 JUMPDEST DUP4 DUP2 LT ISZERO PUSH2 0x7BC JUMPI DUP1 DUP3 ADD MLOAD DUP2 DUP5 ADD MSTORE PUSH1 0x20 DUP2 ADD SWAP1 POP PUSH2 0x7A1 JUMP JUMPDEST DUP4 DUP2 GT ISZERO PUSH2 0x7CB JUMPI PUSH1 0x0 DUP5 DUP5 ADD MSTORE JUMPDEST POP POP POP POP JUMP JUMPDEST PUSH1 0x0 PUSH1 0x2 DUP3 DIV SWAP1 POP PUSH1 0x1 DUP3 AND DUP1 PUSH2 0x7E9 JUMPI PUSH1 0x7F DUP3 AND SWAP2 POP JUMPDEST PUSH1 0x20 DUP3 LT DUP2 EQ ISZERO PUSH2 0x7FD JUMPI PUSH2 0x7FC PUSH2 0x892 JUMP JUMPDEST JUMPDEST POP SWAP2 SWAP1 POP JUMP JUMPDEST PUSH2 0x80C DUP3 PUSH2 0x904 JUMP JUMPDEST DUP2 ADD DUP2 DUP2 LT PUSH8 0xFFFFFFFFFFFFFFFF DUP3 GT OR ISZERO PUSH2 0x82B JUMPI PUSH2 0x82A PUSH2 0x8C1 JUMP JUMPDEST JUMPDEST DUP1 PUSH1 0x40 MSTORE POP POP POP JUMP JUMPDEST PUSH32 0x4E487B7100000000000000000000000000000000000000000000000000000000 PUSH1 0x0 MSTORE PUSH1 0x11 PUSH1 0x4 MSTORE PUSH1 0x24 PUSH1 0x0 REVERT JUMPDEST PUSH32 0x4E487B7100000000000000000000000000000000000000000000000000000000 PUSH1 0x0 MSTORE PUSH1 0x12 PUSH1 0x4 MSTORE PUSH1 0x24 PUSH1 0x0 REVERT JUMPDEST PUSH32 0x4E487B7100000000000000000000000000000000000000000000000000000000 PUSH1 0x0 MSTORE PUSH1 0x22 PUSH1 0x4 MSTORE PUSH1 0x24 PUSH1 0x0 REVERT JUMPDEST PUSH32 0x4E487B7100000000000000000000000000000000000000000000000000000000 PUSH1 0x0 MSTORE PUSH1 0x41 PUSH1 0x4 MSTORE PUSH1 0x24 PUSH1 0x0 REVERT JUMPDEST PUSH1 0x0 DUP1 REVERT JUMPDEST PUSH1 0x0 DUP1 REVERT JUMPDEST PUSH1 0x0 DUP1 REVERT JUMPDEST PUSH1 0x0 DUP1 REVERT JUMPDEST PUSH1 0x0 PUSH1 0x1F NOT PUSH1 0x1F DUP4 ADD AND SWAP1 POP SWAP2 SWAP1 POP JUMP JUMPDEST PUSH2 0x91E DUP2 PUSH2 0x785 JUMP JUMPDEST DUP2 EQ PUSH2 0x929 JUMPI PUSH1 0x0 DUP1 REVERT JUMPDEST POP JUMP INVALID LOG2 PUSH5 0x6970667358 0x22 SLT KECCAK256 PUSH9 0xD1D19F61E7B756C35D CALLDATALOAD ISZERO 0xDA SELFDESTRUCT SUB DUP15 0xC4 0xD3 0x4A XOR 0xD7 0xEC DUP6 0xED SWAP11 DUP4 0xC2 0xEF MSTORE8 0xDB 0xA7 PUSH7 0x64736F6C634300 ADDMOD SMOD STOP CALLER "
		},
		"gasEstimates": {
			"creation": {
				"codeDepositCost": "480400",
				"executionCost": "518",
				"totalCost": "480918"
			},
			"external": {
				"addUser(string,uint256,uint256,uint256)": "infinite",
				"display()": "infinite"
			}
		},
		"methodIdentifiers": {
			"addUser(string,uint256,uint256,uint256)": "76b3d161",
			"display()": "0c1b7c1e"
		}
	},
	"abi": [
		{
			"inputs": [
				{
					"internalType": "string",
					"name": "a",
					"type": "string"
				},
				{
					"internalType": "uint256",
					"name": "b",
					"type": "uint256"
				},
				{
					"internalType": "uint256",
					"name": "c",
					"type": "uint256"
				},
				{
					"internalType": "uint256",
					"name": "d",
					"type": "uint256"
				}
			],
			"name": "addUser",
			"outputs": [],
			"stateMutability": "nonpayable",
			"type": "function"
		},
		{
			"inputs": [],
			"name": "display",
			"outputs": [
				{
					"internalType": "string",
					"name": "",
					"type": "string"
				},
				{
					"internalType": "uint256",
					"name": "",
					"type": "uint256"
				},
				{
					"internalType": "uint256",
					"name": "",
					"type": "uint256"
				},
				{
					"internalType": "uint256",
					"name": "",
					"type": "uint256"
				},
				{
					"internalType": "uint256",
					"name": "",
					"type": "uint256"
				},
				{
					"internalType": "string",
					"name": "",
					"type": "string"
				}
			],
			"stateMutability": "view",
			"type": "function"
		}
	]
}